:100000000C9409020C9438020C9438020C943802B7
:100010000C9438020C9438020C9438020C94380278
:100020000C9438020C94981D0C9438020C943802ED
:100030000C9438020C9438020C9438020C94380258
:100040000C9438020C9438020C942F1C0C94380237
:100050000C94E51B0C94AD020C9438020C943802FD
:100060000C9438020C9438020C9438020C94380228
:100070000C9438020C9438020C9438020C94380218
:100080000C9438020C9438020C9438026D10B90F9D
:100090005D0E920F660F4A0F5D0E5D0E5D0E5D0EDA
:1000A000350F1E0FE20E300E5D0E1D105D0E5D0E43
:1000B0005D0E5D0E0910F50FD90F5A105D0E5D0E25
:1000C0005D0E5D0E5D0E5D0E5D0E5D0E5D0E5D0ED8
:1000D0005D0E5D0E5D0E5D0E5D0E5D0E5D0E5D0EC8
:1000E0005D0E5D0E5D0E5D0E5D0E5D0E5D0E5D0EB8
:1000F0005D0E5D0E5D0E5D0E5D0E5D0E5D0E5D0EA8
:100100005D0E5D0E5D0E5D0E5D0E5D0E5D0E5D0E97
:100110005D0E5D0E5D0E5D0E5D0E5D0E5D0E5D0E87
:100120005D0E5D0E5D0E5D0E5D0E5D0E5D0E5D0E77
:100130005D0E5D0E5D0E5D0E5D0E5D0E5D0E5D0E67
:100140005D0E5D0E5D0E5D0E5D0E5D0E5D0E5D0E57
:100150005D0E5D0E5D0E5D0E5D0E5D0E5D0E5D0E47
:100160005D0E5D0E5D0E5D0E5D0E5D0E5D0E5D0E37
:100170005D0E5D0E5D0E5D0E5D0E5D0E5D0E5D0E27
:100180005D0E5D0E5D0E5D0E5D0E5D0EA70E960E94
:100190005D0E5D0E5D0E5D0E5D0E5D0E5D0E5D0E07
:1001A000B90EB90E5D0E5D0E5D0E5D0E5D0E5D0E3F
:1001B0005D0E5D0EA70E960E42125D124F11491193
:1001C000A8124F114F114F114F114F11D611F111AC
:1001D0000C124F114F114F114F114F114F114F1161
:1001E00027127812931249114F114F114F114F11CD
:1001F0004F114F114F114F114F114F114F114F11FF
:100200004F114F114F114F114F114F114F114F11EE
:100210004F114F114F114F114F114F114F114F11DE
:100220004F114F114F114F114F114F114F114F11CE
:100230004F114F114F114F114F114F114F114F11BE
:100240004F114F114F114F114F114F114F114F11AE
:100250004F114F114F114F114F114F114F114F119E
:100260004F114F114F114F114F114F114F114F118E
:100270004F114F114F114F114F114F114F114F117E
:100280004F114F114F114F114F114F114F114F116E
:100290004F114F114F114F114F114F114F114F115E
:1002A0004F114F114F114F114F114F114F114F114E
:1002B0004F114F114F114F11A01186114F114F11B6
:1002C0004F114F114F114F114F114F11BB11BB1156
:1002D0004F114F114F114F114F114F114F114F111E
:1002E000A0118611671547151E132C157A145F147B
:1002F0001E131E131E131E133F141F14E213C513E7
:10030000A513F5121E131E131E131E13EC14CC148A
:10031000B01495141E131E131E131E131E131E134A
:100320001E131E131E131E131E131E131E131E1345
:100330001E131E131E131E131E131E131E131E1335
:100340001E131E131E131E131E131E131E131E1325
:100350001E131E131E131E131E131E131E131E1315
:100360001E131E131E131E131E131E131E131E1305
:100370001E131E131E131E131E131E131E131E13F5
:100380001E131E131E131E131E131E131E131E13E5
:100390001E131E131E131E131E131E131E131E13D5
:1003A0001E131E131E131E131E131E131E131E13C5
:1003B0001E131E131E131E131E131E131E131E13B5
:1003C0001E131E131E131E131E131E131E131E13A5
:1003D0001E131E131E131E131E131E131E131E1395
:1003E0001E131E136F1355131E131E131E131E13FD
:1003F0001E131E131E131E138A138A131E131E139D
:100400001E130C151E131E131E131E136F135513EC
:10041000E61D11241FBECFEFD0E1DEBFCDBF14E03B
:10042000A0E0B1E0EEE7FCE300E00BBF02C0079004
:100430000D92A839B107D9F71AE0A8E9B4E001C0D4
:100440001D92AE3DB107E1F714E0C2E1D4E000E057
:1004500006C022970109FE010BBF0E94391EC03160
:10046000D10780E00807A9F70E94F21D0C943D1EF9
:100470000C940000109299041092980410929B041E
:1004800010929A0410929D0410929C0410929F0462
:1004900010929E041092A1041092A0041092A30442
:1004A0001092A2041092A5041092A4041092A70422
:1004B0001092A60483E680930001109261001092CE
:1004C000620017B880B58F7E80BD8DE886B986E959
:1004D00092E00E94D61D089520910001233671F408
:1004E00024C0322F3F5FE32FF0E0232FEE0FFF1FDA
:1004F000E856FB4F80819181009771F4273089F78E
:1005000030E0E0E0F0E020E0EE0FFF1FE856FB4FA8
:1005100080819181009791F33093000187B1807EB3
:1005200087B987B1832B87B9369A08950E946C02E8
:100530000895683060F4E62FF0E0EE0FFF1FE856F4
:10054000FB4F9183808380910001833609F00895E9
:10055000109200010E946C0208951F920F920FB634
:100560000F920BB60F9211242F933F934F935F93EB
:100570006F937F938F939F93AF93BF93EF93FF936B
:10058000E0910001F0E0EE0FFF1FE856FB4F0190F5
:10059000F081E02D0995FF91EF91BF91AF919F916F
:1005A0008F917F916F915F914F913F912F910F901C
:1005B0000BBE0F900FBE0F901F9018958091A8044E
:1005C0009091A904009731F001979093A90480932A
:1005D000A80408951092AA04089597FD0EC040E063
:1005E00050E02AE134E0000021503040E1F74F5F55
:1005F0005F4F84179507ACF70895089597FD0EC0D7
:1006000040E050E025E530E0000021503040E1F7C7
:100610004F5F5F4F84179507ACF70895089597FDD6
:100620000DC020E030E000000000000000000000ED
:1006300000002F5F3F4F82179307ACF70895109289
:10064000A9041092A8041092AA048EED92E00E94D0
:10065000D61D089521E02093AA049093A9048093C5
:10066000A8048091AA04882329F0A8958091AA045F
:100670008823D9F7089587B3807C87BB88B38F63BD
:1006800088BB82B18F7182B983B1806E83B90895BE
:100690001092FE041092C7041092C60420E030E0CD
:1006A00042E0F901EE0FFF1FE20FF31FDF01AA0F77
:1006B000BB1FAA0FBB1FA652BB4FEE0FFF1FE85375
:1006C000FB4F80E090E01D921D9241930196863091
:1006D0009105C9F72F5F3F4F2330310511F70E9475
:1006E0003B0388E195E00E94D61D0895CF93DF93E8
:1006F0000F92CDB7DEB789830E943B0397B321E009
:1007000030E0898102C0220F331F8A95E2F7922BD5
:1007100097BB88B32095206C282328BB0F90DF91CE
:10072000CF91089581B18295869587700895262F7F
:1007300030E090E002C0959587956A95E2F780FDDC
:100740001AC08091C6049091C704F901EE0FFF1FF3
:10075000E20FF31FEE0FFF1FE80FF91FEE0FFF1F51
:10076000E652FB4F8081918184319105E8F4019636
:100770009183808308958091C6049091C704F90104
:10078000EE0FFF1FE20FF31FEE0FFF1FE80FF91F21
:10079000EE0FFF1FE652FB4F80819181181619065C
:1007A0001CF40197918380830895CF93DF9388236E
:1007B00089F4662361F4413009F46CC01092AB04F3
:1007C000C0E0D0E0A0E0B0E060E070E02CC06130BC
:1007D00009F455C0A82FB0E0C62FD0E0BD01660FC8
:1007E000771FFB01EA0FFB1FEE0FFF1FEC0FFD1F32
:1007F000413029F1EF5FFE4F50818091C504209177
:10080000C3043091C404823009F44DC0F901E355AA
:10081000FB4F50832F5F3F4F3093C4042093C3049A
:100820002431310521F1A60FB71FAA0FBB1FAC0F52
:10083000BD1FA853BB4F4C93DF91CF910895ED5E40
:10084000FE4F50818091C5042091C3043091C404AF
:10085000823091F1F901E355FB4F5083C9010196B4
:100860009093C4048093C30484319105E1F61092FF
:10087000C4041092C30482E08093C504D4CF4130F5
:1008800019F11092AC04C1E0D0E0A0E0B0E060E06B
:1008900070E0C9CF4093AB04C0E0D0E0A0E0B0E08E
:1008A00060E070E0C0CF8091C1049091C20428172D
:1008B000390709F0ABCFB7CF8091C1049091C20442
:1008C0002817390739F6AFCF4093AC04C1E0D0E028
:1008D000A0E0B0E060E070E0A6CFCF92DF92EF92B0
:1008E000FF920F931F93CF93DF930F92CDB7DEB795
:1008F000EE24FF248701000F111F0E0D1F1D68013C
:10090000CC0CDD1CCC0CDD1C8AED94E0C80ED91E8D
:10091000000F111F08531B4F20E009C0F801808110
:100920008130B1F12F5F0F5F1F4F2630F9F0F601D4
:100930004081318182E090E0C80ED91E842F932F30
:100940008530910558F38031910560F3F80180817D
:10095000823041F78E2D622F41E029830E94D5031A
:1009600029812F5F0F5F1F4F263009F70894E11C84
:10097000F11CF3E0EF16F10409F0BCCF0F90DF910A
:10098000CF911F910F91FF90EF90DF90CF9008953E
:100990008E2D622F42E029830E94D5032981C2CF88
:1009A000CF938091FE04813069F0813020F0823055
:1009B000A1F0CF91089581E08093FE040E943B0353
:1009C000CF91089582E08093FE048091C6049091B7
:1009D000C7040E947603CF9108958093FE04C1B1AD
:1009E000C295C695C7708C2F60E00E9497038C2F2C
:1009F00061E00E9497038C2F62E00E9497030E949F
:100A00006D048091C6049091C70401969093C70429
:100A10008093C6048630910521F00E947603CF9121
:100A200008951092C7041092C60480E090E0F5CFBC
:100A30000E94D00408958091C504813069F120910D
:100A4000C1043091C2042431310579F0F901E35534
:100A5000FB4F80812F5F3F4F3093C2042093C1042E
:100A60002431310509F442C008952091C304309126
:100A7000C4042115310571F5F901E355FB4F80815F
:100A80003093C2042093C10491E09093C5042115D2
:100A90003105F9F480E008956091C3047091C404B5
:100AA0004091C1045091C2046417750739F1FA01ED
:100AB000E355FB4F808121E030E06417750769F052
:100AC000420F531F5093C2044093C10421153105B6
:100AD00009F3089521E030E0CFCF20E030E0420F6D
:100AE000531F5093C2044093C104F0CF1092C2042C
:100AF0001092C10491E09093C504089580E0089598
:100B00008091AC0408958091AB0408958091FF0416
:100B1000909100058A30910591F08631910531F070
:100B20000196909300058093FF0408958C9A949AFF
:100B300081E090E0909300058093FF0408958C9AE3
:100B40009498EBCFA8959598969A979A94B314BADF
:100B500095B315BA93B39798969824B314BA25B35E
:100B600015BA97FDEFCF089594B39FEF94BB85BB63
:100B7000089584B314BA85B315BA83B308959598CC
:100B80009698979A94B39FEF94BB85BB979884B33C
:100B900014BA85B315BA0895109200051092FF0497
:100BA00081B38C6081BB82B38C6082BBE4E6F0E0F1
:100BB00080818F618083E5E6F0E080818F618083B2
:100BC00081B3806E81BB84B314BA85B315BA8FE04C
:100BD00090E00E942A0380E361E00E94BF058FE05D
:100BE00090E00E942A0380E361E00E94BF058FE04D
:100BF00090E00E942A0380E361E00E94BF0581E04B
:100C00000E94A20588E361E00E94BF0581E00E9486
:100C1000A2058CE061E00E94BF0581E00E94A20570
:100C200086E061E00E94BF0581E00E94A20581E0AC
:100C300061E00E94BF0586E895E00E94D61D0895F8
:100C4000959A9698979A94B39FEF94BB85BB979883
:100C500084B314BA85B315BA0895CF93DF93C82F20
:100C6000E62FF0E0EB5DFE4FD08181E0C031D8F09F
:100C7000C032F0F0C03390F00E94A2058C2F805655
:100C8000806861E00E94BF0581E00E94A2058D2F6F
:100C900061E00E942006DF91CF9108950E94A20595
:100CA0008C2F8059EDCF0E94A2058C2F8058E8CF61
:100CB0000E94A2058C2F8055E3CF81E061E00E9465
:100CC000BF0508950F931F93CF93DF93182FEB0168
:100CD0006881662361F000E0802F810F0E942D065D
:100CE0000F5FFE01E00FF11D60816623A9F7DF9120
:100CF000CF911F910F910895FF920F931F93CF9360
:100D0000DF93C82F162F862F64E60E94061ED82F69
:100D1000E82FF0E04CE95FEFE49F9001E59F300D94
:100D2000F49F300D1124210F311DC9016AE070E0DC
:100D30000E94261EF62E0CE9D09F002D1124010FD3
:100D4000962F990F892F880F880F890F081BDD2395
:100D5000C1F48C2F60E2FF20C1F00E942D066F2DA0
:100D6000605D8C2F8F5F0E942D06602F605D8C2F41
:100D70008E5F0E942D06DF91CF911F910F91FF9002
:100D800008956D2F605D8C2FE8CF0E942D068C2F6B
:100D90008F5F60E2E8CFEF92FF920F931F93CF93A4
:100DA000DF93C82FD62F862F64E60E94061E182FC9
:100DB000E82FF0E04CE95FEFE49F9001E59F300DF4
:100DC000F49F300D11242D0F311DC9016AE070E030
:100DD0000E94261EF62E862F880F082F000F000F68
:100DE000080F01958CE9189FE02C11241123F1F4D0
:100DF0008C2F60E20E942D066F2D605D8C2F8F5F1F
:100E00000E942D068C2F8E5F6CE20E942D066D2FA6
:100E1000605D6E0D600F8C2F8D5F0E942D06DF913F
:100E2000CF911F910F91FF90EF900895612F605D1A
:100E30008C2F0E942D06E0CFCF92DF92EF92FF928F
:100E40000F931F93CF93DF93C82FFB0128EE33E05E
:100E5000CB01B9010E94121E6B01629FC001639F0A
:100E6000900D729F900D11249F01281B390BC90111
:100E700024E630E0B9010E94121E7B01629FC0018E
:100E8000639F900D729F900D1124E81BF90BCF0109
:100E90006AE070E00E94121ED62FCB019B01220F48
:100EA000331F880F991F880F991F880F991F280FCC
:100EB000391F8F01021B130BC114D10439F16C2DA2
:100EC000605D8C2F0E942D06E114F10431F58C2F0A
:100ED0008F5F60E20E942D066D2F605D8C2F8E5F0C
:100EE0000E942D068C2F8D5F6CE20E942D06602FD4
:100EF000605D8C2F8C5F0E942D06DF91CF911F913A
:100F00000F91FF90EF90DF90CF9008958C2F60E2CB
:100F10000E942D06E114F104D1F26E2D605D8C2F3C
:100F20008F5F0E942D06D8CF1F93CF93DF93C82FDA
:100F3000D62F862F6AE00E94061E982F990F192F30
:100F4000110F110F190F1195882379F48C2F60E27E
:100F50000E942D066D2F605D610F8C2F8F5F0E94A8
:100F60002D06DF91CF911F910895682F605D8C2F22
:100F70000E942D06EFCF382F862F262F205D6AE0A6
:100F80000E94061E880F982F990F990F980F291B02
:100F9000832F622F0E942D060895CF93DF93109226
:100FA00005051092040510920305109202058EEFBC
:100FB000809307051092060580E065E272E00E94CA
:100FC000620685E060E00E949407A8E0B5E0FD01BC
:100FD000709687E01C9212961C921E92119714969E
:100FE0001C921E921397EF012B971882EF012A97FC
:100FF0001882EF012997888319961C921E921897E0
:10100000EF0126971882EF0125971882EF012497A8
:101010001882EF0123971882EF0122971882EF01BF
:101020002197188210825196719697E0A933B907DB
:1010300089F61092010582EB9DE00E94D61DDF919A
:10104000CF91089580910705882309F444C090E06A
:101050009C0122953295307F3227207F3227F9017B
:10106000E80FF91FE85FFA4F4385433009F452C097
:10107000443090F5413009F486C0423008F414C180
:1010800080E263E872E00E9462068091070590E0CA
:101090009C0122953295307F3227207F3227F9013B
:1010A000E80FF91FE85FFA4F4089442309F41AC199
:1010B000413009F050C087E26FE972E00E94620699
:1010C00040C0833009F49EC0843029F480E363E497
:1010D00073E00E9462060895453009F47AC04530F5
:1010E00008F0A7C080E26BEB72E00E94620680917C
:1010F000070590E0FC01E295F295F07FFE27E07F86
:10110000FE27E80FF91FE85FFA4F8AE265810E9427
:10111000BB0717C080E26AEA72E00E946206809113
:10112000070590E0FC01E295F295F07FFE27E07F55
:10113000FE27E80FF91FE85FFA4F85E263810E94FE
:10114000CB068091070590E09C0122953295307F77
:101150003227207F3227F901E80FF91FE85FFA4FA5
:101160008485823009F45FC0833008F0AACF8823D9
:1011700009F44EC0813009F0AECF80E360E173E046
:101180000E946206089580E26DE372E00E946206AA
:101190008091070590E09C0122953295307F32279F
:1011A000207F3227F901E80FF91FE85FFA4F4585E4
:1011B000413009F45BC0413008F48EC0423009F47C
:1011C0009DC0433041F689E269E672E00E94620602
:1011D000B8CF80E26CEC72E00E9462068091070555
:1011E00090E0FC01E295F295F07FFE27E07FFE277C
:1011F000E80FF91FE85FFA4F67816F5F8AE20E948C
:10120000BB079FCF80E362E373E00E94620608950C
:101210008681813009F46CC0168280E36FEF72E042
:101220000E946206089580E361E273E00E94620614
:101230000895463009F1473009F08DCF80E262E72A
:1012400072E00E9462068091070590E09C01229561
:101250003295307F3227207F3227F901E80FF91FBE
:10126000E85FFA4F4685413009F0A5CF89E267E58E
:1012700072E00E94620665CF80E26DED72E00E942E
:1012800062068091070590E0FC01E295F295F07FFF
:10129000FE27E07FFE27E80FF91FE85FFA4F8AE29A
:1012A00067850E947C064DCF80E26CE272E00E946E
:1012B00062068091070590E0FC01E295F295F07FCF
:1012C000FE27E07FFE27E80FF91FE85FFA4F85E26F
:1012D00061810E94CB0635CF89E26EE472E00E9404
:1012E00062062FCF87E264E972E00E94620629CF8E
:1012F00080E36EEE72E00E946206089589E260E685
:1013000072E00E9462061DCF8091070590E0FC010B
:10131000E295F295F07FFE27E07FFE27E80FF91FA8
:10132000E85FFA4F8385813079F0873091F085301E
:1013300030F0853031F413860E94220808958F5FC3
:1013400083870E942208089587E083870E942208ED
:10135000089582E083870E9422080895609107051E
:10136000603208F56F5F60930705862F90E0FC01FF
:10137000E295F295F07FFE27E07FFE27E80FF91F48
:10138000E85FFA4F8081882351F085E00E9494073E
:10139000809107058823B1F00E94220808956623F2
:1013A000A1F36032F8F21092070580E06FEF72E06F
:1013B0000E94620680E065E272E00E94620660912F
:1013C0000705D3CF80E16FEF72E00E94620680E2F2
:1013D0006FEF72E00E94620680E36FEF72E00E949E
:1013E000620608952F923F924F925F926F927F9282
:1013F0008F929F92AF92BF92CF92DF92EF92FF9225
:101400000F931F93CF93DF93CDB7DEB76B970FB6D4
:10141000F894DEBF0FBECDBFFC012081221F222722
:10142000221F2F8B20932807208130E020743070FA
:10143000022E232F000C221F330B000C221F331F00
:1014400020931707408150E04072507055954795A2
:101450005595479555954795559547955595479574
:1014600040930607608170E06071707075956795B4
:101470007595679575956795759567956093F5066C
:10148000A0818A2F90E088709070959587959595AA
:10149000879595958795998F888F8093E4068081AD
:1014A000A82FB0E0A470B070B595A795B595A79595
:1014B000BB8FAA8FA093D306008110E0027010703A
:1014C000159507950093C206308131703093B106AF
:1014D0005181551F5527551F5093A006E180FF24C9
:1014E000B0E4EB22FF240E2CEF2C000CEE1CFF08C6
:1014F000000CEE1CFF1CE0928F06C180DD2480E210
:10150000C822DD24D594C794D594C794D594C794A4
:10151000D594C794D594C794C0927E06A180BB246D
:1015200090E1A922BB24B594A794B594A794B5944F
:10153000A794B594A794A0926D0681809924A8E001
:101540008A22992495948794959487949594879466
:1015500080925C0661807724B4E06B2277247594D6
:1015600067947594679460924B064180552482E09D
:10157000482255245594479440923A0671817170DF
:1015800070932906D280DD1CDD24DD1CD092180664
:101590008281282E332490E429223324022C232C08
:1015A000000C221C3308000C221C331C209207065E
:1015B000A281B0E0A072B070B595A795B595A7953A
:1015C000B595A795B595A795B595A795A093F6055B
:1015D000B2818B2F90E0807190709595879595954D
:1015E000879595958795959587959C838B83809313
:1015F000E505B2818B2F90E0887090709595879566
:1016000095958795959587959E838D838093D40531
:10161000B2818B2F90E08470907095958795959509
:10162000879598878F838093C305B2818B2F90E035
:1016300082709070959587959A8789878093B20577
:10164000B281B170B093A1051381111F1127111F31
:1016500010939005F3808F2D90E080749070082E89
:10166000892F000C881F990B000C881F991F9C87DD
:101670008B8780937F05F3808F2D90E08072907030
:101680009595879595958795959587959595879542
:10169000959587959E878D8780936E05F3808F2D16
:1016A00090E0807190709595879595958795959523
:1016B000879595958795988B8F8780935D05F380A7
:1016C0008F2D90E08870907095958795959587956A
:1016D000959587959A8B898B80934C05F3808F2DF8
:1016E00090E08470907095958795959587959C8BE3
:1016F0008B8B80933B05F3808F2D90E082709070F0
:10170000959587959E8B8D8B80932A05F38091E02C
:10171000F922F09219058581881F8827881F9F89E3
:10172000892B80932807858190E080749070082E23
:10173000892F000C881F990B000C881F991F822B82
:1017400080931707858190E08072907095958795BA
:101750009595879595958795959587959595879571
:10176000842B80930607858190E080719070959519
:101770008795959587959595879595958795862BCA
:101780008093F506858190E0887090709595879597
:101790009595879595958795288D822B8093E4065E
:1017A000858190E084709070959587959595879543
:1017B0002A8D822B8093D306858190E08270907071
:1017C00095958795802B8093C20685818170832BA8
:1017D0008093B1068681881F8827881F852B809378
:1017E000A006868190E080749070082E892F000CEE
:1017F000881F990B000C881F991F8E2980938F06D4
:10180000868190E0807290709595879595958795E3
:101810009595879595958795959587958C2980932E
:101820007E06868190E0807190709595879595955C
:10183000879595958795959587958A2980936D06C7
:10184000868190E08870907095958795959587959D
:1018500095958795882980935C06868190E08470B1
:1018600090709595879595958795862980934B06D9
:10187000868190E0827090709595879584298093F9
:101880003A0686818170872B809329068781881F7D
:101890008827881F8D2980931806878190E080749F
:1018A0009070082E892F000C881F990B000C881F40
:1018B000991F822980930706878190E0807290703B
:1018C0009595879595958795959587959595879500
:1018D000959587958A2B8093F605878190E0807196
:1018E00090709595879595958795959587959595FC
:1018F0008795AB818A2B8093E505878190E088707E
:1019000090709595879595958795959587952D8157
:10191000822B8093D405878190E084709070959598
:10192000879595958795AF818A2B8093C30587818D
:1019300090E082709070959587952985822B809391
:10194000B205878181708B2B8093A1058085881FCC
:101950008827881F812B80939005808590E0807474
:101960009070082E892F000C881F990B000C881F7F
:10197000991FAB858A2B80937F05808590E08072CC
:10198000907095958795959587959595879595955B
:10199000879595958795BD858B2B80936E05808562
:1019A00090E0807190709595879595958795959520
:1019B0008795959587952F85822B80935D058085EA
:1019C00090E08870907095958795959587959595F9
:1019D0008795A9898A2B80934C05808590E0847037
:1019E00090709595879595958795BB898B2B80935E
:1019F0003B05808590E082709070959587952D8944
:101A0000822B80932A05808581708F298093190508
:101A100080910705882379F090E0FC01E295F2952A
:101A2000F07FFE27E07FFE27E80FF91FE85FFA4FFF
:101A300080818823C9F06B960FB6F894DEBF0FBE85
:101A4000CDBFDF91CF911F910F91FF90EF90DF906D
:101A5000CF90BF90AF909F908F907F906F905F904E
:101A60004F903F902F9008950E94AE09E4CFCF93FE
:101A7000C82F823009F464C08330C0F0833009F489
:101A800065C0843009F450C08091070590E09C0146
:101A900022953295307F3227207F3227820F931F85
:101AA000885F9A4FFC01C487CF9108958823E1F4A1
:101AB00080910605882319F0815080930605809156
:101AC000070590E0FC01E295F295F07FFE27E07FAC
:101AD000FE27E80FF91FE85FFA4F138680E16FEFEA
:101AE00072E00E946206D0CF813071F680910605C7
:101AF0008F5F809306058091070590E09C012295F9
:101B00003295307F3227207F3227F901E80FF91F05
:101B1000E85FFA4F46E04387820F931F885F9A4F32
:101B2000FC01C487CF910895809106058F5F809353
:101B3000060580E197E29093030580930205A4CF08
:101B4000809106058F5F809306059ECF80910605E4
:101B50008F5F8093060580E197E29093050580935F
:101B6000040592CF80913D0790913E078233910505
:101B700009F44FC0019690933E0780933D078091F2
:101B80003B0790913C07009749F027E0803D920782
:101B9000F0F4019690933C0780933B0780910405F5
:101BA00090910505823091050CF101979093050500
:101BB0008093040580910205909103058230910580
:101BC0008CF001979093030580930205089527E018
:101BD000803D920719F788EB9BE090933C07809338
:101BE0003B07DCCF8130910561F00895813091058C
:101BF00009F7109205051092040580E00E94370D48
:101C0000D9CF109203051092020580E00E94370D93
:101C1000089582E28093820A81E28093830A8AE9AE
:101C20008093840A1092850A8DED8093860A0E9423
:101C30008E1A10923E0710923D07A1CFCF93DF93EB
:101C40000E941B0590E00B9786399105B0F58A5BE1
:101C50009F4FFC01EE0FFF1F0590F491E02D0994BA
:101C600080910705882349F10E948005813009F49D
:101C7000EAC20E948305813001F500D000D000D077
:101C8000EDB7FEB7319690910705ADB7BEB7119687
:101C90009C939091660A91839BE09283838381E079
:101CA00090E0958384830E94F01CCDB7DEB7269622
:101CB0000FB6F894DEBF0FBECDBF0E948005813005
:101CC00019F0DF91CF9108958091070590E0FC0114
:101CD000E295F295F07FFE27E07FFE27E80FF91FDF
:101CE000E85FFA4F8285813061F71092A20A109264
:101CF000A30A1092A40A81B3836081BB82B38C7F54
:101D000082BB80E16FEF72E00E946206809107055E
:101D100090E0FC01E295F295F07FFE27E07FFE2740
:101D2000E80FF91FE85FFA4F1286CBCF80910705C5
:101D3000882319F200D000D0EDB7FEB73196CDB7A9
:101D4000DEB789838091660A81838AE12AC0809107
:101D50000705882309F4B1CF00D000D0EDB7FEB756
:101D60003196CDB7DEB789838091660A818386E19B
:101D700018C020910705222309F49FCF80913907CD
:101D800090913A07009709F0D6C100D000D0EDB786
:101D9000FEB73196CDB7DEB729838091660A81837D
:101DA00083E1828313820E94F01C809106050F90CC
:101DB0000F900F900F90882309F47FCF815080936C
:101DC00006057BCF40910705842F90E09C0122956A
:101DD0003295307F3227207F3227F901E80FF91F33
:101DE000E85FFA4F5781552311F051505783442330
:101DF00009F463CF00D000D000D0EDB7FEB7319624
:101E0000ADB7BEB711964C934091660A41834CE042
:101E1000428341E04383820F931F885F9A4FEC0116
:101E20008F81848315820E94F01CEDB7FEB7369631
:101E30000FB6F894FEBF0FBEEDBF3FCF80910705F0
:101E4000882309F43ACF0E948005813009F0B6C199
:101E500081E090E090933C0780933B0782E090E024
:101E600090933A078093390728CF809107058823FC
:101E700009F423CF0E948005813009F0B0C181E0D0
:101E800090E090933C0780933B0790933A078093B0
:101E9000390713CF0E948305813009F4B4C18091C2
:101EA000070590E0FC01E295F295F07FFE27E07FC8
:101EB000FE27E80FF91FE85FFA4F8581873008F0A9
:101EC00065C18F5F85830E942208F7CE20910705A8
:101ED000822F90E0FC01E295F295F07FFE27E07FF3
:101EE000FE27E80FF91FE85FFA4F8681882309F083
:101EF000E4CE00D000D0EDB7FEB73196ADB7BEB797
:101F000011962C938091660A81838BE182831382E0
:101F10000E94F01C0F900F900F900F9081E00E9494
:101F2000370DCBCE0E948005813009F0EAC0909138
:101F30000705992309F4C1CE00D000D000D0EDB739
:101F4000FEB73196ADB7BEB711969C939091660AD5
:101F500091839AE092838383158214820E94F01CFD
:101F6000CDB7DEB726960FB6F894DEBF0FBECDBF55
:101F7000A4CE80910705882309F49FCE00D000D01D
:101F8000EDB7FEB73196ADB7BEB711968C93809181
:101F9000660A818388E1828313820E94F01C80910B
:101FA00006058F5F809306050F900F900F900F909E
:101FB00084CE0E948305813009F422C14091070537
:101FC000842F90E09C0122953295307F3227207F2C
:101FD0003227F901E80FF91FE85FFA4F57815730B0
:101FE00008F005CF5F5F578302CF809107058823F4
:101FF00009F463CE00D000D0EDB7FEB73196ADB78F
:10200000BEB711968C9311978091660A818389E1FE
:10201000C2CF80910705882309F44FCE00D000D0AD
:10202000EDB7FEB73196ADB7BEB711968C93119749
:102030008091660A818385E1AECF20910705222336
:1020400009F43BCE822F90E0FC01E295F295F07FFF
:10205000FE27E07FFE27E80FF91FE85FFA4F868131
:10206000882309F095C000D000D000D0ADB7BEB72E
:102070001196CDB7DEB729838091660A11968C93AD
:1020800011978DE112968C93129781E013968C93A1
:102090001397858114968C93149715961C920E9421
:1020A000F01CEDB7FEB736960FB6F894FEBF0FBE24
:1020B000EDBF03CE80910705882309F4FECD0E9471
:1020C0008005813009F4D1C00E948305813009F078
:1020D000F4CD84E00E94370DF0CD80910705882370
:1020E00009F4EBCD00D000D0EDB7FEB73196ADB717
:1020F000BEB711968C9311978091660A818384E113
:102100004ACF0E948305813009F0D7CD9091070511
:10211000992309F4D2CD00D000D000D0EDB7FEB79E
:102120003196ADB7BEB711969C9311979091660A00
:1021300091839AE0B2CD10923A071092390710922B
:102140003C0710923B0700D000D000D0EDB7FEB79F
:102150003196ADB7BEB711962C938091660A8183F4
:1021600087E6828381E08383158214820E94F01CBB
:1021700080910605CDB7DEB726960FB6F894DEBF80
:102180000FBECDBF882309F498CD18CE15829BCE03
:1021900000D000D0EDB7FEB73196ADB7BEB71196FF
:1021A0002C938091660A81838FE1828313820E943F
:1021B000F01C0F900F900F900F907FCD00D000D0AB
:1021C000EDB7FEB7319680910705ADB7BEB7119652
:1021D0008C9311978091660A818382E1DCCE00D0D6
:1021E00000D0EDB7FEB7319680910705ADB7BEB709
:1021F00011968C9311978091660A818381E1CBCEF1
:102200000E9484095ACD00D000D000D0EDB7FEB7AF
:10221000319690910705CDB7DEB799839091660A04
:10222000918391E29283838386E090E09583848317
:102230000E94F01CEDB7FEB736960FB6F894FEBFBD
:102240000FBEEDBF3ACD00D000D000D0EDB7FEB745
:10225000319690910705ADB7BEB711969C93119733
:102260009091660A91839BE075CE83E00E94370DC2
:1022700024CD0E941B0590E00B978639910578F4D8
:1022800084529F4FFC01EE0FFF1F0590F491E02D4B
:1022900009940E948005813011F00E9480050E94FF
:1022A0008005813009F008958091070590E0FC01D8
:1022B000E295F295F07FFE27E07FFE27E80FF91FF9
:1022C000E85FFA4F8285813071F71092A20A10926E
:1022D000A30A1092A40A81B3836081BB82B38C7F6E
:1022E00082BB80E16FEF72E00E9462068091070579
:1022F00090E0FC01E295F295F07FFE27E07FFE275B
:10230000E80FF91FE85FFA4F1286089580910705DC
:10231000882329F200D000D0EDB7FEB73196ADB7D3
:10232000BEB711968C938091660A81838AE182837D
:1023300013820E94F01C0F900F900F900F90AFCF60
:1023400080910705882309F4AACF00D000D0EDB70B
:10235000FEB73196ADB7BEB711968C938091660AE1
:10236000818386E1828313820E94F01C0F900F907C
:102370000F900F9094CF80910705882309F48FCF99
:1023800000D000D0EDB7FEB73196ADB7BEB711960D
:102390008C938091660A818383E1828313820E94F9
:1023A000F01C0F900F900F900F9079CF8091070540
:1023B000882309F474CF00D000D0EDB7FEB7319672
:1023C000ADB7BEB711968C938091660A818381E187
:1023D000828313820E94F01C0F900F900F900F9039
:1023E0005ECF80910705882309F459CF00D000D033
:1023F000EDB7FEB73196ADB7BEB711968C9380910D
:10240000660A818382E1828313820E94F01C0F900E
:102410000F900F900F9043CF8091070590E0FC0143
:10242000E295F295F07FFE27E07FFE27E80FF91F87
:10243000E85FFA4F8785882311F0815087870E94D3
:1024400022080E948005813009F02DCF2DCF809188
:102450000705882309F423CF00D000D0EDB7FEB7DD
:102460003196ADB7BEB711968C938091660A818381
:1024700085E1828313820E94F01C0F900F900F90D1
:102480000F900DCF80910705882309F408CF00D065
:1024900000D0EDB7FEB73196ADB7BEB711968C93AD
:1024A0008091660A818384E1828313820E94F01CFA
:1024B0000F900F900F900F90F2CE80910705882318
:1024C00009F4EDCE00D000D0EDB7FEB73196ADB730
:1024D000BEB711968C938091660A818388E18283CE
:1024E00013820E94F01C0F900F900F900F90D7CE88
:1024F00080910705882309F4D2CE00D000D0EDB733
:10250000FEB73196ADB7BEB711968C938091660A2F
:10251000818389E1828313820E94F01C0F900F90C7
:102520000F900F90BCCE8091070590E0FC01E295E2
:10253000F295F07FFE27E07FFE27E80FF91FE85FA6
:10254000FA4F87858A3508F07ACF8F5F878777CFF4
:1025500020910705822F90E04DB75EB7485050405C
:102560000FB6F8945EBF0FBE4DBFEDB7FEB7319604
:10257000ADB7BEB711962C932091660A21832CE14A
:10258000228322E02383DC01A295B295B07FBA2793
:10259000A07FBA27A80FB91FA85FBA4F1F968C91CA
:1025A0001F978483158215968C91868317820E94CB
:1025B000F01CEDB7FEB738960FB6F894FEBF0FBE0D
:1025C000EDBF80E00E94370D6ACE0E941B0590E0AF
:1025D0000B978639910590F58E589E4FFC01EE0FB2
:1025E000FF1F0590F491E02D09940E948005813031
:1025F00009F48DC20E948305813001F500D000D01E
:1026000000D0EDB7FEB7319690910705ADB7BEB7D4
:1026100011969C939091660A918396E692838383A8
:1026200082E090E0958384830E94F01CEDB7FEB7B2
:1026300036960FB6F894FEBF0FBEEDBF0E94800520
:10264000813009F008958091070590E0FC01E29542
:10265000F295F07FFE27E07FFE27E80FF91FE85F85
:10266000FA4F8285813071F71092A20A1092A30A64
:102670001092A40A81B3836081BB82B38C7F82BB3A
:1026800080E16FEF72E00E9462068091070590E0A2
:10269000FC01E295F295F07FFE27E07FFE27E80F30
:1026A000F91FE85FFA4F1286089580910705882385
:1026B00029F200D000D0EDB7FEB73196ADB7BEB766
:1026C00011968C938091660A81838AE182831382BA
:1026D0000E94F01C0F900F900F900F90AFCF809141
:1026E0000705882309F4AACF00D000D0EDB7FEB7C4
:1026F0003196ADB7BEB711968C938091660A8183EF
:1027000086E1828313820E94F01C0F900F900F903D
:102710000F9094CF80910705882309F48FCF00D0C4
:1027200000D0EDB7FEB73196ADB7BEB711968C931A
:102730008091660A818383E1828313820E94F01C68
:102740000F900F900F900F9079CF0E9480058130ED
:1027500009F4F3C10E948305813009F06FCF00D0E6
:1027600000D000D0EDB7FEB7319690910705ADB718
:10277000BEB711969C9311979091660A918391E24E
:10278000928383838FE090E04DCF0E948305813058
:1027900009F054CF00D000D0EDB7FEB7319680914C
:1027A0000705ADB7BEB711968C938091660A8183F9
:1027B00089ED828313820E94F01C0F900F900F907E
:1027C0000F903CCF40910705842F90E09C0122950B
:1027D0003295307F3227207F3227F901E80FF91F29
:1027E000E85FFA4F5781552311F051505783442326
:1027F00009F424CF00D000D000D0EDB7FEB7319659
:10280000ADB7BEB711964C934091660A41834CE038
:10281000428341E04383820F931F885F9A4FDC011C
:1028200017968C91848315820E94F01CEDB7FEB739
:1028300036960FB6F894FEBF0FBEEDBFFFCE0E94D6
:102840008305813009F4A5C180910705882309F427
:10285000F5CE00D000D0EDB7FEB73196ADB7BEB71C
:1028600011968C938091660A818382E18283138220
:102870000E94F01C0F900F900F900F90DFCE0E94DF
:102880008305813009F49BC180910705882309F4F1
:10289000D5CE00D000D0EDB7FEB73196ADB7BEB7FC
:1028A00011968C938091660A818381E182831382E1
:1028B0000E94F01C0F900F900F900F90BFCE0E94BF
:1028C0008305813009F0BACE00D000D000D0EDB73A
:1028D000FEB7319690910705ADB7BEB711969C93A0
:1028E00011979091660A918391E29283838385E0A8
:1028F00090E098CE0E948005813009F09FCE00D0F4
:1029000000D000D0EDB7FEB7319690910705ADB776
:10291000BEB711969C9311979091660A918391E2AC
:10292000928383838EE090E07DCE0E948305813088
:1029300009F084CE00D000D000D0EDB7FEB73196BC
:1029400090910705ADB7BEB711969C9311979091E2
:10295000660A918391E29283838389E090E062CE5C
:102960000E948305813009F440C140910705842FFE
:1029700090E09C0122953295307F3227207F3227CC
:10298000F901E80FF91FE85FFA4F5781573008F057
:102990002ECF5F5F57832BCF0E948305813009F4D0
:1029A00027C180910705882309F448CE00D000D0C4
:1029B000EDB7FEB73196ADB7BEB711968C93809147
:1029C000660A818389E1828313820E94F01C0F9042
:1029D0000F900F900F9032CE0E948305813009F442
:1029E0001DC180910705882309F428CE00D000D0AE
:1029F000EDB7FEB73196ADB7BEB711968C93809107
:102A0000660A818385E1828313820E94F01C0F9005
:102A10000F900F900F9012CE00D000D000D0EDB7E5
:102A2000FEB7319680910705ADB7BEB711968C936E
:102A30008091660A818386E6828381E083831582A2
:102A400014820E94F01CEDB7FEB736960FB6F894CC
:102A5000FEBF0FBEEDBFF2CD0E948305813009F0AD
:102A6000EDCD00D000D000D0EDB7FEB731969091FB
:102A70000705ADB7BEB711969C9311979091660A62
:102A8000918391E2928383838AE090E0CBCD0E9490
:102A90008305813009F4D8C080910705882309F4A3
:102AA000CDCD00D000D0EDB7FEB73196ADB7BEB7F3
:102AB00011968C938091660A818388E182831382C8
:102AC0000E94F01C0F900F900F900F90B7CD0E94B6
:102AD0008305813009F447C080910705882309F4F4
:102AE000ADCD00D000D0EDB7FEB73196ADB7BEB7D3
:102AF00011968C938091660A818384E1828313828C
:102B00000E94F01C0F900F900F900F9097CD00D067
:102B100000D000D0EDB7FEB7319690910705ADB764
:102B2000BEB711969C9311979091660A918396E691
:102B30009283838381E090E075CD00D000D000D0F7
:102B4000EDB7FEB7319690910705ADB7BEB71196B8
:102B50009C9311979091660A918391E2928383836B
:102B600080E190E05FCD00D000D000D0EDB7FEB79F
:102B7000319690910705ADB7BEB711969C9311970A
:102B80009091660A918391E29283838382E090E040
:102B900049CD00D000D000D0EDB7FEB7319690916E
:102BA0000705ADB7BEB711969C9311979091660A31
:102BB000918391E29283838383E090E033CD00D0D0
:102BC00000D000D0EDB7FEB7319690910705ADB7B4
:102BD000BEB711969C9311979091660A918391E2EA
:102BE0009283838384E090E01DCD0E94840926CDEA
:102BF00000D000D000D0EDB7FEB731969091070518
:102C0000ADB7BEB711969C9311979091660A9183C8
:102C100091E29283838387E090E004CD00D000D0DE
:102C200000D0EDB7FEB7319690910705ADB7BEB7AE
:102C300011969C9311979091660A918391E29283E9
:102C4000838381E090E0EECC00D000D000D0EDB7DF
:102C5000FEB7319690910705ADB7BEB711969C931C
:102C600011979091660A918391E29283838388E021
:102C700090E0D8CC0E941B05883151F1823209F0D6
:102C80000895109205051092040500D000D000D0E0
:102C9000EDB7FEB7319680910705ADB7BEB7119677
:102CA0008C938091660A818389E0828381E08383AB
:102CB000158214820E94F01C8DB79EB706960FB63F
:102CC000F8949EBF0FBE8DBF80E00E94370D08951F
:102CD000109205051092040580E00E94370D0895BA
:102CE0000E941B05883161F1823209F0089510922B
:102CF00003051092020500D000D000D0EDB7FEB75A
:102D0000319680910705ADB7BEB711968C9380912F
:102D1000660A818389E0828381E0838381E090E099
:102D2000958384830E94F01C8DB79EB706960FB6DC
:102D3000F8949EBF0FBE8DBF80E00E94370D0895AE
:102D4000109203051092020580E00E94370D08954D
:102D500080913B0790913C0727E0803D920701F16D
:102D60008091070590E0FC01E295F295F07FFE2747
:102D7000E07FFE27E80FF91FE85FFA4F8485823075
:102D800009F44DC0833038F0833009F442C08430F8
:102D900009F442C008958823B9F50E941E0E0895D3
:102DA00088EB9BE090933C0780933B078091390729
:102DB00090913A0781309105A9F100D000D000D060
:102DC000EDB7FEB7319680910705ADB7BEB7119646
:102DD0008C938091660A818387E6828381E0838376
:102DE00082E090E0958384830E94F01C8091060528
:102DF0008F5F809306058DB79EB706960FB6F89441
:102E00009EBF0FBE8DBF0895813021F60E943911FB
:102E100008950E943A1608950E94701608950E941F
:102E2000E512089500D000D000D0EDB7FEB731967E
:102E300020910705ADB7BEB711962C93119720913D
:102E4000660A218327E6228321E02383CBCF982FB4
:102E50009150903208F066C09091860A9B39D9F162
:102E60002091870A30E090E0FC01E295F295F07F36
:102E7000FE27E07FFE27E80FF91FE85FFA4F26FDE7
:102E800052C0108A4091850A433009F453C04091E2
:102E9000890A2C733070442309F068C0243031054E
:102EA00009F4C3C0253031050CF487C02031310549
:102EB00009F475C02431310599F5FC01E295F295CC
:102EC000F07FFE27E07FFE27E80FF91FE85FFA4F4B
:102ED00083E0858725C09091870A93FF80C090E0AA
:102EE000FC01E295F295F07FFE27E07FFE27DF01EF
:102EF000A80FB91FA85FBA4F21E016962C93E80FD0
:102F0000F91FE85FFA4F8091880A818312829091BD
:102F10008D0A80E020918E0A820F911D9483838315
:102F20000E942208089541E0408B4091850A433079
:102F300009F0ADCF2C7330702430310509F475C021
:102F400025303105D4F12031310549F124313105E5
:102F500039F7FC01E295F295F07FFE27E07FFE272E
:102F6000E80FF91FE85FFA4F4587DACF24303105C3
:102F700009F476C0253031050CF042C02115310529
:102F800079F6FC01E295F295F07FFE27E07FFE27BF
:102F9000E80FF91FE85FFA4F82E08687C1CFFC0196
:102FA000E295F295F07FFE27E07FFE27E80FF91FFC
:102FB000E85FFA4F81E08587B3CF2115310509F02D
:102FC000AFCFFC01E295F295F07FFE27E07FFE2770
:102FD000E80FF91FE85FFA4F82E08587A1CF90E004
:102FE000FC01E295F295F07FFE27E07FFE27DF01EE
:102FF000A80FB91FA85FBA4F16961C9216977FCFDD
:1030000020313105F9F02431310509F089CFFC0177
:10301000E295F295F07FFE27E07FFE27E80FF91F8B
:10302000E85FFA4F83E086877BCFFC01E295F2955B
:10303000F07FFE27E07FFE27E80FF91FE85FFA4FD9
:1030400015866ECFFC01E295F295F07FFE27E07FBA
:10305000FE27E80FF91FE85FFA4F81E0868760CF0F
:10306000FC01E295F295F07FFE27E07FFE27E80F56
:10307000F91FE85FFA4F168653CF8091870A873091
:1030800009F453C0883070F08B3009F454C08C3090
:10309000A8F08F3009F46BC0803109F462C08E3023
:1030A00071F108958330D9F1843098F0853099F129
:1030B0008630F8F082E00E94370D0895893009F4D7
:1030C0004AC08A3080F080E16BEC73E00E946206B7
:1030D00008958130D1F0823021F780E165E673E018
:1030E0000E946206089580E169EA73E00E94620628
:1030F000089580E167E873E00E946206089580E128
:103100006CED73E00E946206089580E164E573E06F
:103110000E946206089580E00E94370D089580E1C4
:1031200066E773E00E946206089580E168E973E053
:103130000E946206089580E16FEF72E00E946206CD
:1031400082E16091880A0E947C0687E16091890A89
:103150000E947C06089580E16AEB73E00E9462069B
:10316000089580E16EEF73E00E946206089580E1A9
:103170006DEE73E00E94620608958150803208F57A
:103180004091860A842F90E09C012F7030702115A9
:10319000310511F180FD2BC081FD34C084FD3DC09F
:1031A00085FD46C09C01207F30702115310509F452
:1031B0004FC082FD57C083FD5FC086FD03C047FD41
:1031C00066C0089580E365E774E00E94620640915E
:1031D000860A47FFF6CF5BC080E26FEF72E00E9485
:1031E00062064091860A842F90E080FFD5CF80E26E
:1031F0006FE074E00E9462064091860A842F90E09E
:1032000081FFCCCF80E260E274E00E9462064091D0
:10321000860A842F90E084FFC3CF80E361E374E0EB
:103220000E9462064091860A842F90E085FFBACF03
:1032300080E362E474E00E9462064091860A842F73
:1032400090E09C01207F30702115310509F0B1CF4D
:1032500080E36FEF72E00E9462064091860A842F3D
:1032600082FFA9CF80E263E574E00E94620640918C
:10327000860A842F83FFA1CF80E264E674E00E9477
:1032800062064091860A842F86FF99CF9BCF80E308
:1032900066E874E00E946206089582B18E6082B989
:1032A00083B1817F83B9089583B18C6083B9089518
:1032B00083B1837F83B908958091800A893031F08A
:1032C0008A3019F08F5F8093800A08958AE0809396
:1032D000800A1092810A0895CF92DF92EF92FF92B6
:1032E0000F931F93F8011092670A1BB890ED9AB9DB
:1032F00096E8909395006093900049B980939F0A57
:1033000030939E0A20939D0A10939C0A00939B0A77
:10331000F0929A0AE092990AD092980AC092970A7B
:103320000995E091970AF091980A0995549A509856
:103330008CE599E10E94D61D1F910F91FF90EF90AF
:10334000DF90CF900895CF93DF93CDB7DEB7488558
:1033500080917E0A882319F0DF91CF910895FE01B4
:103360003996AAE6BAE08D8180936A0A8E81119619
:103370008C9311978F8112968C93129713964C937E
:10338000139750E04D5F5F4F4330510599F084E053
:1033900090E064E001C0F9019F012E5F3F4F865924
:1033A000954F7081FC0170836F5F862F90E0481706
:1033B00059078CF781E080937E0ADF91CF910895C1
:1033C00080916D0A482F4C5F91F0EAE6FAE08D5F3C
:1033D00090E08559954F20E03191230FE817F907C8
:1033E000D9F7E42FF0E0E659F54F2083089520E067
:1033F000F8CF8091680A813009F008954091690AF8
:10340000242F30E080916D0A90E005962817390747
:1034100011F0443160F0E091970AF091980A099513
:10342000549A509810927E0A1092680A0895E0917A
:10343000990AF0919A0A0995539A54988AE090E073
:103440000E940F038091690AE82FF0E0E659F54FDA
:1034500090819CB98F5F8093690A08958EEF809365
:103460006A0A8091680A882319F580917E0A882368
:10347000F9F081E08093680A80916D0A482F4C5FD3
:10348000C1F0EBE6FAE08D5F90E08E0F9F1F3EEFFC
:1034900020E001C03191230FE817F907D9F7E42F95
:1034A000F0E0E659F54F20831092690A0E94F9195D
:1034B000089520E0F4CFCF93DF93CDB7DEB74885F2
:1034C000FE0139968D8180936A0A8E8180936B0A02
:1034D0008F8180936C0A40936D0A50E04D5F5F4F7F
:1034E0004330510599F084E090E064E001C0F901B7
:1034F0009F012E5F3F4F8659954F7081FC0170836D
:103500006F5F862F90E0481759078CF781E0809312
:103510007E0A0E942E1ADF91CF91089521E0209318
:10352000830A8091840A883771F1893728F08A39B3
:10353000B9F1813A19F108958530E9F700D000D04A
:1035400000D0EDB7FEB73196ADB7BEB711962C934C
:103550008091660A818388E78283238385E090E0F7
:10356000958384830E945B1A4DB75EB74A5F5F4FB5
:103570000FB6F8945EBF0FBE4DBF089586E89AE07F
:103580000E94F20908958091860A813209F440C0B0
:103590008B3911F08E3979F681E00E942717089552
:1035A0008091680A882339F6F894809144079091B5
:1035B0004507009781F580914307843068F0843097
:1035C00009F0B3C090910705992309F0C7C08F5F38
:1035D0008093430778940895909107059923B9F350
:1035E00000D000D0EDB7FEB73196ADB7BEB711969B
:1035F0009C938091660A81838BE9828313820E9467
:103600005B1A809143070F900F900F900F90DFCFC0
:103610000E943D1808958DB79EB784970FB6F89411
:103620009EBF0FBE8DBFEDB7FEB7319680914607A6
:10363000ADB7BEB711968C93809147078183809177
:103640004807828380914907838380914A07848356
:10365000158280914B078683178280914C07808763
:10366000118680914D078287138680914E0784874B
:10367000158680914F078687178680915007808B2B
:10368000118A80915107828B138A80915207848B13
:10369000158A80915307868B178A80915407808FF3
:1036A000118E80915507828F138E80915607848FDB
:1036B000158E80915707868F178E8091580780A3AB
:1036C00011A28091590782A313A20E945B1A209134
:1036D000440730914507A901440F551F440F551F5A
:1036E000CA01880F991F880F991F840F951F4DB726
:1036F0005EB74C5D5F4F0FB6F8945EBF0FBE4DBF17
:103700008531910558F0EAE5F7E0DF0154978A5BCF
:10371000984F41914D93E817F907D9F72150304060
:10372000309345072093440755CF00D000D0EDB724
:10373000FEB7319681E2ADB7BEB711968C938091FA
:10374000660A818380EA828313820E945B1A109248
:1037500043070F900F900F900F903CCF00D000D0F8
:1037600000D0EDB7FEB73196ADB7BEB711969C93BA
:103770008091660A81838EE9828323838091A00AE7
:103780009091A10A958384830E945B1A4DB75EB71E
:103790004A5F5F4F0FB6F8945EBF0FBE4DBF80917A
:1037A000A00A9091A10A009749F481E090E09093DB
:1037B000A10A8093A00A8091430709CF1092A10A21
:1037C0001092A00A8091430702CF1F920F920FB66A
:1037D0000F920BB60F9211242F933F934F935F9349
:1037E0006F937F938F939F93AF93BF93EF93FF93C9
:1037F0000E94F919FF91EF91BF91AF919F918F9125
:103800007F916F915F914F913F912F910F900BBEE0
:103810000F900FBE0F901F9018958091850A482F2A
:103820004C5F4431C0F44423C1F0E2E8FAE08D5F1C
:1038300090E08D57954F20E03191230FE817F9075D
:10384000D9F7E42FF0E0EE57F54F81E09081921721
:1038500019F080E0089580E0089520E0F2CF1F92F3
:103860000F920FB60F920BB60F9211242F933F9326
:103870004F935F936F937F938F939F93AF93BF9378
:10388000EF93FF938BB11092800A887179F49CB109
:103890008091810A8823F1F480919F0A981739F466
:1038A0009093820A81E08093810A01C08CB1FF91DC
:1038B000EF91BF91AF919F918F917F916F915F91A8
:1038C0004F913F912F910F900BBE0F900FBE0F9015
:1038D0001F901895E82FF0E0EE57F54F90838F5F1B
:1038E0008093810A853018F39091850A482F50E023
:1038F000292F30E02B5F3F4F4217530711F08531DE
:10390000B1F61092810A492F4C5F443180F644236E
:10391000F1F0E2E8FAE09D5F892F90E08D57954F36
:1039200020E03191230FE817F907D9F7E42FF0E0F1
:10393000EE57F54F8081281709F0B9CFE0919D0A25
:10394000F0919E0A309709F4B2CF0995B0CF20E0EC
:10395000EDCF8091800A893031F08A3019F08F5F85
:103960008093800A08958AE08093800A1092810AE9
:103970000895CF92DF92EF92FF920F931F931092D0
:103980004307109261008FEF8093620084E690E01D
:103990002FEF20936200A8950197D9F700001092AD
:1039A00045071092440780B1809587708F5D8093A2
:1039B000660A60E040E12EE83AE10DE419E174E5C1
:1039C000E72E79E1F72EE8E5CE2EE9E1DE2E0E9422
:1039D0006C191F910F91FF90EF90DF90CF90089599
:1039E000CF93DF93CDB7DEB78885BE01675F7F4F8A
:1039F000F89440914407509145074832510568F5C5
:103A00009A01220F331F220F331FD901AA0FBB1FA8
:103A1000AA0FBB1FA20FB31FFD01EA5BF84F9D81E8
:103A200090839E8191839F8192838383882379F001
:103A3000FB01A65BB84F90E0049624E030E0608183
:103A40006D932F5F3F4F329628173907C1F74F5FAD
:103A50005F4F50934507409344074832510521F08A
:103A60007894DF91CF9108958091540A8331C1F306
:103A70008631B1F38A31A1F387E290E09093450754
:103A8000809344077894DF91CF910895F8941BBAFE
:103A90001ABA18BA17BA15BA14BA12BA11BA13B8B0
:103AA00012B810926200109261001092650010929C
:103AB000640010BE13BE12BE11BE15BC14BC13BCF4
:103AC00017BE10927D001BB81AB810929500109284
:103AD000900019B818B810BC1092A20A1092A30A4C
:103AE0001092A40A789481B5886181BD8FE081BD70
:103AF000A8950E94861D0E941F030E94CC050E946B
:103B0000B91C0E94CD070E9448030895E8EAFAE034
:103B1000119211928AE0EC3DF807D1F71092A70AB2
:103B20008BE085BD8AEF83BD87B7806887BF089526
:103B30001F920F920FB60F920BB60F9211242F9374
:103B40003F934F935F936F937F938F939F93AF9325
:103B5000BF93CF93EF93FF938091A70A882389F0B7
:103B6000C0E0EC2FF0E0EE0FFF1FE855F54F01909D
:103B7000F081E02D09950000CF5F8091A70AC8175A
:103B800080F30000FF91EF91CF91BF91AF919F9192
:103B90008F917F916F915F914F913F912F910F90F6
:103BA0000BBE0F900FBE0F901F9018952091A70A83
:103BB0002B3158F4E22FF0E0EE0FFF1FE855F54FE0
:103BC000918380832F5F2093A70A08951092C204E7
:103BD0001092C1041092C4041092C30481E0809337
:103BE000C5040895F89484B7806884BF000000007D
:103BF00000000000000000000000000000000000C5
:103C00000E94461D0E94A816A895FCCF991B79E03A
:103C100004C0991F961708F0961B881F7A95C9F75C
:103C200080950895AA1BBB1B51E107C0AA1FBB1FAB
:103C3000A617B70710F0A61BB70B881F991F5A9538
:103C4000A9F780959095BC01CD01089597FB092EA9
:103C500007260AD077FD04D0E5DF06D000201AF44D
:103C6000709561957F4F0895F6F7909581959F4FD8
:0E3C700008950790F691E02D0994F894FFCF87
:103C7E00630000A2A1A09F9A9998979695908F8E17
:103C8E008D8C8B00002221201F1A19181716151063
:103C9E000F0E0D0C0B2E2E2E2E2E2E2E2E2E2E2EDB
:103CAE002E2E2E2E2E2E2E2E2E2E2E2E2E2E2E2E26
:103CBE002E2E2E2E2E202122232425262728292A79
:103CCE002B2C2D2E2F303132333435363738393ABE
:103CDE003B3C3D3E3F404142434445464748494AAE
:103CEE004B4C4D4E4F505152535455565758595A9E
:103CFE005B2E505E5F606162636465666768696AC9
:103D0E006B6C6D6E6F707172737475767778797A7D
:103D1E002ED12EE92E2E2E2E2E2E2E2E2E2E2E2E57
:103D2E002E2E2E2E2E2E2E2E2E2E2E2E2E2E2E2EA5
:103D3E002E2E2E2E2E2E2E2E2E2E2E2E2EA22E2E21
:103D4E002E2E2E2E2E2E2E2E2E2E2E2E2EB52E2EFE
:103D5E002E2E2E2E2E41A042A1E045A3A4A5A64BA9
:103D6E00A74D484FA8504354A9AA58E1ABACE2ADB9
:103D7E00AE62AFB0B161B2B3B4E365B6B7B8B9BABB
:103D8E00BBBCBD6FBE7063BF79E478E5C0C1E6C24F
:103D9E00C3C4C5C6C7CBD1204E3A2000D2EEEA3AF4
:103DAE0020202020202041202020202000C7E0F2CB
:103DBE00E2EEF020313A2020202020202000E7E003
:103DCE00EAF0FBF2202000EEF2EAF0FBF2202000F7
:103DDE00F0E0E1EEF2E0202000E0E2E0F0E8FF208B
:103DEE002000C7E0F2E2EEF020323A202020202020
:103DFE00202000CAEBE0EFE0ED3A2020202020202A
:103E0E0020202000E7E0EAF0FBF22020202000EE48
:103E1E00F2EAF0FBF22020202000C4E0E23A20205B
:103E2E00202020202020C0F2EC2000CDEEEC20EF50
:103E3E00F0EEE33A2020202020202000D1EAEEF000
:103E4E00EEF1F2FC3A2020202020202000D8E0E3E2
:103E5E003A2020202020202020202020200020205A
:103E6E00D1EAE0EDE8F0EEE2E0EDE8E5202000201A
:103E7E002020202020202020202020202020200054
:103E8E00D3F1F2E0ED2E20EFF0EEE3F0E0ECECFB00
:103E9E0000202020CDE0F1F2F0EEE9EAE82020202B
:103EAE002000CEF2EAF0FBF2FC20E7E0F2E2EEF0C8
:103EBE00313F00CEF2EAF0FBF2FC20E7E0F2E2EE58
:103ECE00F0323F00F3F1F2E0ED3A20ECE8ED20E3C2
:103EDE00EEF0202000F3F1F2E0ED3A20ECE0EAF112
:103EEE0020E3EEF02000F3F1F2E0ED3A20ECE8ED05
:103EFE0020E2E5F0F22000F3F1F2E0ED3A20ECE002
:103F0E00EAF120E2E5F0F200F3F1F2E0ED3A20EC16
:103F1E00E8ED20EDE0F1202000F3F1F2E0ED3A20A3
:103F2E00ECE0EAF120EDE0F1200020CDF3EBE5E24C
:103F3E00E0FF20F2EEF7EAE0202000CEF8E8E1EA1A
:103F4E00E020EFF0E5E4E5EBEEE22000C4E5E62E3E
:103F5E0020EFEEEBEEE6E5EDE8E5202000CFF0EE0B
:103F6E00EC2E20EFEEEBEEE6E5EDE8E52000D0E0FE
:103F7E00E12E20EFEEEBEEE6E5EDE8E5202000C4C5
:103F8E00E2E8E6E5EDE8E520E2EBE5E2EE202000F2
:103F9E00C4E2E8E6E5EDE8E520E2EFF0E0E2EE204F
:103FAE0000C4E2E8E6E5EDE8E520E2E2E5F0F52022
:103FBE002000C4E2E8E6E5EDE8E520E2EDE8E720E2
:103FCE00202000CBE5E2FBE920EFF0E5E4E5EB2075
:103FDE0020202000CFF0E0E2FBE920EFF0E5E4E561
:103FEE00EB20202000C2E5F0F5EDE8E920EFF0E54A
:103FFE00E4E5EB202000CDE8E6EDE8E920EFF0E582
:08400E00E4E5EB202020000096
:00000001FF
