:100000000C940A020C9439020C9439020C943902B3
:100010000C9439020C9439020C9439020C94390274
:100020000C9439020C946F310C9439020C943902FF
:100030000C9439020C9439020C9439020C94390254
:100040000C9439020C9439020C94152C0C9439023E
:100050000C94AB2B0C94E6020C9439020C943902EC
:100060000C9439020C9439020C9439020C94390224
:100070000C9439020C9439020C9439020C94390214
:100080000C9439020C9439020C943902CB1BFF19E1
:10009000611C3E199317C317F61CF61CF61CF61CC0
:1000A000951A301BB118A119F61C691CF61CF61C18
:1000B000F61CF61C161C4A1A38181E19F61CF61CDB
:1000C000F61CF61CF61CF61CF61CF61CF61CF61CA0
:1000D000F61CF61CF61CF61CF61CF61CF61CF61C90
:1000E000F61CF61CF61CF61CF61CF61CF61CF61C80
:1000F000F61CF61CF61CF61CF61CF61CF61CF61C70
:10010000F61CF61CF61CF61CF61CF61CF61CF61C5F
:10011000F61CF61CF61CF61CF61CF61CF61CF61C4F
:10012000F61CF61CF61CF61CF61CF61CF61CF61C3F
:10013000F61CF61CF61CF61CF61CF61CF61CF61C2F
:10014000F61CF61CF61CF61CF61CF61CF61CF61C1F
:10015000F61CF61CF61CF61CF61CF61CF61CF61C0F
:10016000F61CF61CF61CF61CF61CF61CF61CF61CFF
:10017000F61CF61CF61CF61CF61CF61CF61CF61CEF
:10018000F61CF61CF61CF61CF61CF61CEE1B221ABE
:10019000F61CF61CF61CF61CF61CF61CF61CF61CCF
:1001A000CE1A691BF61CF61CF61CF61CF61CF61C77
:1001B000F61CF61C391C6D1A2D1F3D1EBF1F301E6C
:1001C000641DBF1FBF1FBF1FBF1FBF1FB51EF11E76
:1001D000ED1DBF1FBF1FBF1FBF1FBF1FBF1FBF1F03
:1001E000691F791EB71D231EBF1FBF1FBF1FBF1F63
:1001F000BF1FBF1FBF1FBF1FBF1FBF1FBF1FBF1F0F
:10020000BF1FBF1FBF1FBF1FBF1FBF1FBF1FBF1FFE
:10021000BF1FBF1FBF1FBF1FBF1FBF1FBF1FBF1FEE
:10022000BF1FBF1FBF1FBF1FBF1FBF1FBF1FBF1FDE
:10023000BF1FBF1FBF1FBF1FBF1FBF1FBF1FBF1FCE
:10024000BF1FBF1FBF1FBF1FBF1FBF1FBF1FBF1FBE
:10025000BF1FBF1FBF1FBF1FBF1FBF1FBF1FBF1FAE
:10026000BF1FBF1FBF1FBF1FBF1FBF1FBF1FBF1F9E
:10027000BF1FBF1FBF1FBF1FBF1FBF1FBF1FBF1F8E
:10028000BF1FBF1FBF1FBF1FBF1FBF1FBF1FBF1F7E
:10029000BF1FBF1FBF1FBF1FBF1FBF1FBF1FBF1F6E
:1002A000BF1FBF1FBF1FBF1FBF1FBF1FBF1FBF1F5E
:1002B000BF1FBF1FBF1FBF1F4B1F5B1EBF1FBF1F27
:1002C000BF1FBF1FBF1FBF1FBF1FBF1FD31E0F1FDB
:1002D000BF1FBF1FBF1FBF1FBF1FBF1FBF1FBF1F2E
:1002E000871F971E6A24C622652575228820332120
:1002F000652565256525652598230124DA21A32236
:100300002D20B6206525652565256525D3242F2359
:1003100061214722652565256525652565256525B6
:10032000652565256525652565256525652565257D
:10033000652565256525652565256525652565256D
:10034000652565256525652565256525652565255D
:10035000652565256525652565256525652565254D
:10036000652565256525652565256525652565253D
:10037000652565256525652565256525652565252D
:10038000652565256525652565256525652565251D
:10039000652565256525652565256525652565250D
:1003A00065256525652565256525652565256525FD
:1003B00065256525652565256525652565256525ED
:1003C00065256525652565256525652565256525DD
:1003D00065256525652565256525652565256525CD
:1003E00065256525B52411236525652565256525C4
:1003F0006525652565256525E3234C24652565254B
:100400006525112165256525652565251E257A2328
:10041000EA08F70811241FBECFEFD0E1DEBFCDBF41
:1004200014E0A0E0B1E0ECE4F4E600E00BBF02C0B1
:1004300007900D92A839B107D9F71AE0A8E9B4E0FE
:1004400001C01D92AD3DB107E1F714E0C2E1D4E077
:1004500000E006C022970109FE010BBF0E94103286
:10046000C031D10780E00807A9F70E941D310C9424
:1004700014320C940000CF93DF930F92CDB7DEB708
:1004800019820DC08981882F90E0880F991F8856A6
:100490009B4FFC011182108289818F5F898381E0EB
:1004A0009981983008F080E0882361F783E6809393
:1004B000000181E690E0FC01108282E690E0FC0100
:1004C000108287E290E0FC01108280E490E020E45A
:1004D00030E0F90120812F7EFC01208386E290E04C
:1004E0002DE8FC01208381E293E00E94BB310F9054
:1004F000DF91CF910895CF93DF93CDB7DEB7809191
:1005000000018336D1F180910001873019F41092F7
:10051000000105C0809100018F5F809300018091F0
:100520000001882F90E0880F991F88569B4FFC018F
:100530008081918121E0009709F020E0222319F7C2
:1005400087E290E027E230E0F9012081207EFC0183
:10055000208387E290E027E230E0F90130812091AA
:100560000001232BFC01208386E290E026E230E0AC
:10057000F90120812064FC012083DF91CF9108954F
:10058000CF93DF9300D00F92CDB7DEB79A838983E4
:100590006B838B818830A0F48B81882F90E0880F4B
:1005A000991F88569B4F29813A81FC013183208312
:1005B00080910001833621F4109200010E947B0299
:1005C0000F900F900F90DF91CF9108951F920F928F
:1005D0000FB60F9200905B000F9211242F933F9360
:1005E0004F935F936F937F938F939F93AF93BF933B
:1005F000EF93FF93CF93DF93CDB7DEB780910001E8
:10060000882F90E0880F991F88569B4FFC018081AE
:100610009181FC010995DF91CF91FF91EF91BF91FD
:10062000AF919F918F917F916F915F914F913F918A
:100630002F910F9000925B000F900FBE0F901F90B4
:100640001895CF93DF93CDB7DEB70E947B02DF9181
:10065000CF910895CF93DF9300D000D000D0CDB7D5
:10066000DEB79E838D831C821B8218C01A8219827A
:1006700006C0000089819A8101969A83898321E0CE
:1006800089819A8134E08A3193070CF020E022239B
:1006900081F78B819C8101969C838B838D819E81C8
:1006A0009C012F5F3F4F41E08B819C818217930714
:1006B0000CF040E04423D1F626960FB6F894DEBF46
:1006C0000FBECDBFDF91CF910895CF93DF9300D0C0
:1006D00000D000D0CDB7DEB79E838D831C821B82F5
:1006E00017C01A82198206C0000089819A8101967A
:1006F0009A83898321E089819A81853591050CF05F
:1007000020E0222389F78B819C8101969C838B8337
:100710008D819E819C012F5F3F4F41E08B819C81A9
:10072000821793070CF040E04423D9F626960FB6C3
:10073000F894DEBF0FBECDBFDF91CF910895CF9368
:10074000DF9300D000D000D0CDB7DEB79E838D837D
:100750001C821B8217C01A82198206C00000898180
:100760009A8101969A83898321E089819A818630D2
:1007700091050CF020E0222389F78B819C81019662
:100780009C838B838D819E819C012F5F3F4F41E035
:100790008B819C81821793070CF040E04423D9F6AB
:1007A00026960FB6F894DEBF0FBECDBFDF91CF9176
:1007B0000895CF93DF93CDB7DEB71092AA041092BD
:1007C000A9041092A8048AEE93E00E94BB31DF9145
:1007D000CF910895CF93DF93CDB7DEB78091A90471
:1007E0009091AA04009719F41092A80409C080916E
:1007F000A9049091AA0401979093AA048093A90454
:10080000DF91CF910895CF93DF9300D0CDB7DEB7BE
:100810009A83898381E08093A80489819A81909347
:10082000AA048093A90401C0A8959091A80481E02E
:10083000992309F480E08823B9F70F900F90DF9196
:10084000CF910895CF93DF9300D0CDB7DEB79A83D1
:10085000898389819A81FC01158A148A89819A8108
:10086000FC01178A168A89819A8121E0FC01208F78
:100870000F900F90DF91CF910895CF93DF9300D029
:10088000CDB7DEB79A8389830F900F90DF91CF9118
:100890000895CF93DF9300D00F92CDB7DEB79A8340
:1008A00089836B8389819A81FC01808D823079F400
:1008B00089819A81FC012689378989819A81FC0185
:1008C000848995892817390711F480E02CC0898123
:1008D0009A81FC018689978929813A81820F931F29
:1008E0002B81FC01208389819A81FC01868997896B
:1008F0009C012F5F3F4F89819A81FC01378B268BAA
:1009000089819A81FC01868997898431910551F406
:1009100089819A81FC01178A168A89819A8122E04D
:10092000FC01208F81E00F900F900F90DF91CF910D
:100930000895CF93DF93CDB7DEB72C970FB6F89419
:10094000DEBF0FBECDBF9A8789877C876B8781E02A
:1009500090E09A83898389859A85FC01808D813016
:1009600009F04BC089859A85FC01268937898985DC
:100970009A85FC01848995892817390719F480E044
:1009800090E0D4C089859A85FC01268937898985BC
:100990009A85FC0184899589A901481B590BCA01D4
:1009A0009E838D8329813A818D819E818217930751
:1009B00020F48D819E819A83898389859A85FC01A3
:1009C0008489958929853A85820F931FFC012081AE
:1009D0008B859C85FC01208389859A85FC0124896F
:1009E000358989819A81280F391F89859A85FC016B
:1009F000358B248B89819A8199C089859A85FC01E0
:100A00008489958924E130E0A901481B590BCA016A
:100A100098878F8329813A818F81988582179307E0
:100A200090F189859A85FC018489958929853A8583
:100A3000820F931FFC0120818B859C85FC01208304
:100A400089859A85FC012489358989819A81280FB5
:100A5000391F89859A85FC01358B248B89859A8578
:100A6000FC01848995898431910551F489859A85A1
:100A7000FC01158A148A89859A8521E0FC01208F62
:100A800089819A8153C089859A85FC0184899589D9
:100A900029853A85820F931FFC0120818B859C85D7
:100AA000FC0120831C821B8229813A818F819885D9
:100AB000281B390B89859A85FC01868997898217BD
:100AC000930740F489859A85FC01868997899C83E0
:100AD0008B830AC029813A818F819885A901481B9F
:100AE000590BCA019C838B832B853C858F8198850C
:100AF000820F931F49855A852B813C81240F351F16
:100B0000F9012081FC01208389859A852B813C8114
:100B1000FC01358B248B89859A8521E0FC01208F8F
:100B20002F8138858B819C81820F931F2C960FB665
:100B3000F894DEBF0FBECDBFDF91CF910895CF9364
:100B4000DF93CDB7DEB70E942D08DF91CF910895D6
:100B5000CF93DF9300D000D0CDB7DEB71092AB04B7
:100B60001092E3041092E2041A8219823CC01C82A3
:100B70001B822BC029813A81C901880F991F820FDE
:100B8000931F880F991F2B813C81820F931F880F21
:100B9000991F84559B4FFC011182108229813A8153
:100BA000C901880F991F820F931F880F991F2B81EE
:100BB0003C81820F931F80539B4F22E0FC012083D6
:100BC0008B819C8101969C838B8321E08B819C810E
:100BD0008630910508F020E0222361F689819A8110
:100BE00001969A83898321E089819A8183309105D6
:100BF00008F020E0222309F0BACF0E940A068FE90C
:100C000095E00E94BB310F900F900F900F90DF91F5
:100C1000CF910895CF93DF93CDB7DEB787E390E010
:100C200027E330E0F9012081207CFC01208388E368
:100C300090E028E330E0F90120812F63FC0120835C
:100C400082E290E022E230E0F90120812F71FC0184
:100C5000208383E290E023E230E0F9012081206EDE
:100C6000FC012083DF91CF910895CF93DF9300D0D3
:100C7000CDB7DEB79A8389830E940A0687E390E0A6
:100C800027E330E0F9012081622F49815A8121E078
:100C900030E002C0220F331F4A95E2F7262BFC01F9
:100CA000208388E390E028E330E0F9012081622F7F
:100CB00049815A8121E030E0042E02C0220F331F07
:100CC0000A94E2F72095206C2623FC0120830F90E4
:100CD0000F90DF91CF910895CF93DF93CDB7DEB71B
:100CE00081E290E0FC018081829586958770DF919A
:100CF000CF910895CF93DF9300D0CDB7DEB789832E
:100D00006A838981882F90E02A81222F30E0022E89
:100D100002C0959587950A94E2F781709070982F9C
:100D200081E08927882309F446C08A81282F30E092
:100D30004091E2045091E304C901880F991F820F8A
:100D4000931F880F991F840F951F880F991F845533
:100D50009B4FFC01808191818431910508F06FC027
:100D60008A81282F30E04091E2045091E304C901C8
:100D7000880F991F820F931F880F991F840F951F4B
:100D8000880F991F84559B4FFC0180819181BC0184
:100D90006F5F7F4FC901880F991F820F931F880FC4
:100DA000991F840F951F880F991F84559B4FFC0135
:100DB0007183608344C08A81282F30E04091E2042F
:100DC0005091E304C901880F991F820F931F880F68
:100DD000991F840F951F880F991F84559B4FFC0105
:100DE000808191811816190654F58A81282F30E0E8
:100DF0004091E2045091E304C901880F991F820FCA
:100E0000931F880F991F840F951F880F991F845572
:100E10009B4FFC0180819181BC0161507040C901F0
:100E2000880F991F820F931F880F991F840F951F9A
:100E3000880F991F84559B4FFC01718360830F902D
:100E40000F90DF91CF910895CF93DF9300D00F9251
:100E5000CDB7DEB789836A834B838981882369F4A0
:100E60008A81882351F48B81813021F481E0809341
:100E7000FE0447C01092FE0444C08981882369F4AF
:100E80008A81813051F48B81813021F481E080931B
:100E9000FD0437C01092FD0434C08B818130C9F449
:100EA0008981282F30E08A81482F50E0C901880FBE
:100EB000991F820F931F880F991F840F951F8F5FB3
:100EC0009E4FFC01208184EE94E0622F0E94490431
:100ED00018C08981282F30E08A81482F50E0C9014D
:100EE000880F991F820F931F880F991F840F951FDA
:100EF0008D5E9E4FFC01208184EE94E0622F0E9463
:100F000049048981282F30E08A81482F50E0C901A7
:100F1000880F991F820F931F880F991F840F951FA9
:100F200080539B4F2B81FC0120830F900F900F90DB
:100F3000DF91CF910895CF93DF9300D000D0CDB74C
:100F4000DEB71A82198278C01C821B8266C0298192
:100F50003A81C901880F991F820F931F880F991F2B
:100F60002B813C81820F931F880F991F84559B4FC3
:100F7000FC018081918185309105D0F429813A81ED
:100F8000C901880F991F820F931F880F991F2B810A
:100F90003C81820F931F80539B4FFC0180818130E5
:100FA00039F489819B81692F42E00E94240730C077
:100FB00029813A81C901880F991F820F931F880FD9
:100FC000991F2B813C81820F931F880F991F845595
:100FD0009B4FFC018081918180319105C8F029816E
:100FE0003A81C901880F991F820F931F880F991F9B
:100FF0002B813C81820F931F80539B4FFC0180818A
:10100000823031F489819B81692F41E00E9424075D
:101010008B819C8101969C838B8321E08B819C81B9
:101020008630910508F020E0222309F090CF8981D5
:101030009A8101969A83898321E089819A818330FC
:10104000910508F020E0222309F07ECF0F900F9049
:101050000F900F90DF91CF910895CF93DF930F9270
:10106000CDB7DEB78091AB04882F90E08130910539
:1010700061F08230910599F0009709F043C081E05A
:101080008093AB040E940A063DC082E08093AB04CB
:101090008091E2049091E3040E94350633C082E01F
:1010A0008093AB040E946C068983898160E00E9472
:1010B0007A06898161E00E947A06898162E00E9455
:1010C0007A060E949B078091E2049091E3040196C6
:1010D0009093E3048093E2048091E2049091E3040E
:1010E00021E08630910509F020E0222321F01092C2
:1010F000E3041092E2048091E2049091E3040E94E0
:10110000350600000F90DF91CF910895CF93DF93C4
:101110000F92CDB7DEB784EE94E09E012F5F3F4F74
:10112000B9010E94990421E0009709F420E02223EC
:1011300011F0898101C080E00F90DF91CF91089577
:10114000CF93DF93CDB7DEB78091FD04882311F0F4
:1011500081E001C080E0DF91CF910895CF93DF93CC
:10116000CDB7DEB78091FE04882311F081E001C085
:1011700080E0DF91CF910895CF93DF9300D000D02E
:10118000CDB7DEB79A8389837C836B8389819A810B
:101190008130910551F48B819C812FEF8F3F920715
:1011A00021F484EE94E00E94220489819A810097C0
:1011B00051F48B819C812FEF8F3F920721F484EEB5
:1011C00094E00E943D040F900F900F900F90DF91DC
:1011D000CF910895CF93DF93CDB7DEB781E090E054
:1011E0006FEF7FEF0E94BC08DF91CF910895CF93FE
:1011F000DF93CDB7DEB780E090E06FEF7FEF0E9426
:10120000BC08DF91CF910895CF93DF9300D0CDB785
:10121000DEB78A8380E889835BC0A89582E390E08B
:1012200022E330E0F90120812F7DFC01208382E35D
:1012300090E022E330E0F90120812064FC0120836A
:101240008A81813051F482E390E022E330E0F901B9
:1012500020812068FC01208309C082E390E022E322
:1012600030E0F90120812068FC0120830E94130AEC
:1012700089838A81813051F482E390E022E330E077
:10128000F90120812F77FC01208309C082E390E0DF
:1012900022E330E0F90120812F77FC01208382E3F3
:1012A00090E022E330E0F90120812F7BFC012083D4
:1012B00084E390E0FC01808184E390E0FC011082F3
:1012C00085E390E0FC01808185E390E0FC011082E1
:1012D0008981881F8827881F882F90E0907021E0DF
:1012E000009709F420E0222309F097CF0F900F9088
:1012F000DF91CF910895CF93DF93CDB7DEB71092F2
:1013000001051092000581E390E021E330E0F9014E
:1013100020812C60FC01208382E390E022E330E016
:10132000F90120812C60FC01208384E690E024E612
:1013300030E0F90120812F61FC01208385E690E0F7
:1013400025E630E0F90120812F61FC01208381E353
:1013500090E021E330E0F9012081206EFC01208340
:1013600084E390E0FC01808184E390E0FC01108242
:1013700085E390E0FC01808185E390E0FC01108230
:101380008FE090E00E94030480E361E00E942E0A57
:101390008FE090E00E94030480E361E00E942E0A47
:1013A0008FE090E00E94030480E361E00E942E0A37
:1013B00081E00E94040988E361E00E942E0A81E036
:1013C0000E9404098CE061E00E942E0A81E00E94E4
:1013D000040986E061E00E942E0A81E00E9404096F
:1013E00081E061E00E942E0A80E79DE00E94BB310F
:1013F000DF91CF910895CF93DF930F92CDB7DEB7F2
:10140000898384E390E0FC01808184E390E02FEF06
:10141000FC01208385E390E02981FC0120830F906B
:10142000DF91CF910895CF93DF93CDB7DEB784E3FB
:1014300090E0FC01808184E390E0FC01108285E370
:1014400090E0FC01808185E390E0FC01108283E361
:1014500090E0FC018081DF91CF910895CF93DF93DD
:1014600000D0CDB7DEB789836A8382E390E022E3C0
:1014700030E0F90120812F7DFC01208382E390E0A0
:1014800022E330E0F90120812F7BFC0120838A8157
:10149000813051F482E390E022E330E0F9012081D1
:1014A0002068FC01208309C082E390E022E330E061
:1014B000F90120812068FC01208389810E94FB09B9
:1014C0008A81813051F482E390E022E330E0F90137
:1014D00020812F77FC01208309C082E390E022E382
:1014E00030E0F90120812F77FC01208384E390E034
:1014F000FC01808184E390E0FC01108285E390E0B0
:10150000FC01808185E390E0FC0110820F900F9038
:10151000DF91CF910895CF93DF9300D0CDB7DEB7A1
:1015200089836A8382E390E022E330E0F90120813D
:101530002062FC01208382E390E022E330E0F901A5
:1015400020812F7BFC0120838A81813051F482E34A
:1015500090E022E330E0F90120812068FC01208343
:1015600009C082E390E022E330E0F90120812068A5
:10157000FC01208389810E94FB098A81813051F41A
:1015800082E390E022E330E0F90120812F77FC0133
:10159000208309C082E390E022E330E0F90120815A
:1015A0002F77FC01208384E390E0FC01808184E3B9
:1015B00090E0FC01108285E390E0FC01808185E3EE
:1015C00090E0FC0110820F900F90DF91CF91089571
:1015D000CF93DF9300D0CDB7DEB789836A838A814A
:1015E000882F90E08B5D9E4FFC0180818A838981EA
:1015F000803188F481E00E940409898180588068E4
:1016000061E00E942E0A81E00E9404098A8161E063
:101610000E948B0A38C08981803288F481E00E9460
:10162000040989818055806861E00E942E0A81E06A
:101630000E9404098A8161E00E948B0A24C089818A
:10164000803388F481E00E94040989818059806890
:1016500061E00E942E0A81E00E9404098A8161E013
:101660000E948B0A10C081E00E9404098981805683
:10167000806861E00E942E0A81E00E9404098A814C
:1016800061E00E948B0A0F900F90DF91CF91089537
:10169000CF93DF93CDB7DEB781E061E00E942E0AE1
:1016A000DF91CF910895CF93DF9300D000D00F92B8
:1016B000CDB7DEB78B837D836C8319828981882FB8
:1016C00090E02C813D81820F931FFC0180818A83F1
:1016D00013C09B818981890F6A810E94E80A8981F0
:1016E0008F5F89838981882F90E02C813D81820FD3
:1016F000931FFC0180818A8381E09A81992309F4F8
:1017000080E0882331F70F900F900F900F900F908B
:10171000DF91CF910895CF93DF9300D000D00F9247
:10172000CDB7DEB78C836D838D8194E6692F0E94DF
:10173000DD3189838D81282F30E08981682F70E029
:101740004CE95FEF649FC001659F900D749F900D01
:101750001124820F931F2AE030E0B9010E94FD316D
:101760009B01C9018A838A81880F982F990F990F4D
:10177000890F819529819CE9299F902D1124980F2B
:101780008D81890F8B8389818823A1F48A818823A5
:1017900089F48C8160E20E94E80A8C818F5F60E2AC
:1017A0000E94E80A8C818E5F9B81905D692F0E9468
:1017B000E80A2BC08981882399F48C8160E20E9419
:1017C000E80A8C818F5F9A81905D692F0E94E80AF8
:1017D0008C818E5F9B81905D692F0E94E80A15C005
:1017E0008981982F905D8C81692F0E94E80A8C81F5
:1017F0008F5F9A81905D692F0E94E80A8C818E5FCD
:101800009B81905D692F0E94E80A0F900F900F90C6
:101810000F900F90DF91CF910895CF93DF9300D079
:1018200000D00F92CDB7DEB78C836D838D8194E6A7
:10183000692F0E94DD3189838D81282F30E08981D5
:10184000682F70E04CE95FEF649FC001659F900DC9
:10185000749F900D1124820F931F2AE030E0B9018C
:101860000E94FD319B01C9018A838A81880F982FCC
:10187000990F990F890F819529819CE9299F902DB6
:101880001124980F8D81890F8B838981882341F0E2
:101890008981982F905D8C81692F0E94E80A04C08D
:1018A0008C8160E20E94E80A8C818F5F9A81905D52
:1018B000692F0E94E80A8C818E5F6CE20E94E80A20
:1018C0008C818D5F9B81905D692F0E94E80A0F904B
:1018D0000F900F900F900F90DF91CF910895CF93BD
:1018E000DF93CDB7DEB72B970FB6F894DEBF0FBEF0
:1018F000CDBF89877B876A878A859B8528EE33E001
:10190000B9010E94E9319B013A83298349815A81B7
:1019100028EE33E0429FC001439F900D529F900DEF
:1019200011242A853B85A901481B590BCA0124E6CD
:1019300030E0B9010E94E9319B013C832B834B814C
:101940005C8124E630E0429FC001439F900D529F8E
:10195000900D11242A853B85A901481B590BCA010A
:101960002AE030E0B9010E94E9319B013E832D83DA
:101970004B815C8124E630E0429FC001439F900D83
:10198000529F900D11242A853B85281B390B8D8190
:101990009E81880F991FAC01440F551F440F551F9E
:1019A000840F951FA901481B590BCA0198878F8383
:1019B00089819A81009741F08981982F905D89856E
:1019C000692F0E94E80A04C0898560E20E94E80A43
:1019D0008B819C81009741F089858F5F9B81905D11
:1019E000692F0E94E80A05C089858F5F60E20E9426
:1019F000E80A89858E5F9D81905D692F0E94E80AC3
:101A000089858D5F6CE20E94E80A89858C5F9F81E1
:101A1000905D692F0E94E80A2B960FB6F894DEBFFE
:101A20000FBECDBFDF91CF910895CF93DF9300D04C
:101A300000D0CDB7DEB78B836C838C819AE0692FA1
:101A40000E94DD3189838981880F982F990F990F22
:101A5000890F81959C81890F8A838981882341F030
:101A60008981982F905D8B81692F0E94E80A04C0BC
:101A70008B8160E20E94E80A8B818F5F9A81905D82
:101A8000692F0E94E80A0F900F900F900F90DF913E
:101A9000CF910895CF93DF9300D000D0CDB7DEB7BC
:101AA0008B836C838C819AE0692F0E94DD3189835E
:101AB0008981880F982F990F990F890F81959C81A3
:101AC000890F8A838A81982F905D8B81692F0E946C
:101AD000E80A0F900F900F900F90DF91CF9108952B
:101AE000CF93DF93CDB7DEB78091000590910105CC
:101AF0008A30910591F481E390E021E330E0F9012F
:101B000020812061FC01208382E390E022E330E029
:101B1000F90120812F7EFC012083809100059091A6
:101B2000010586319105B1F481E390E021E330E0D5
:101B3000F90120812061FC01208382E390E022E30F
:101B400030E0F90120812061FC0120831092010521
:101B500010920005809100059091010501969093E7
:101B6000010580930005DF91CF910895CF93DF9316
:101B70000F92CDB7DEB710923A0710923907109244
:101B80003C0710923B07109237071092380725E266
:101B900032E080E0B9010E94530B85E060E00E94D2
:101BA000150D1982E7C08981282F30E0C90182957F
:101BB0009295907F9827807F9827820F931F8A5F46
:101BC0009A4FFC0110828981282F30E0C90182954B
:101BD0009295907F9827807F9827820F931F895F27
:101BE0009A4FFC01118210828981282F30E0C901AF
:101BF00082959295907F9827807F9827820F931FD8
:101C0000875F9A4FFC01118210828981282F30E072
:101C1000C90182959295907F9827807F9827820F9F
:101C2000931F855F9A4FFC0110828981282F30E035
:101C3000C90182959295907F9827807F9827820F7F
:101C4000931F845F9A4FFC0110828981282F30E016
:101C5000C90182959295907F9827807F9827820F5F
:101C6000931F835F9A4F27E0FC0120838981282FEF
:101C700030E0C90182959295907F9827807F9827C0
:101C8000820F931F825F9A4FFC011182108289811B
:101C9000282F30E0C90182959295907F9827807F08
:101CA0009827820F931F805F9A4FFC0110828981D1
:101CB000282F30E0C90182959295907F9827807FE8
:101CC0009827820F931F8F5E9A4FFC0110828981A3
:101CD000282F30E0C90182959295907F9827807FC8
:101CE0009827820F931F8E5E9A4FFC011082898184
:101CF000282F30E0C90182959295907F9827807FA8
:101D00009827820F931F8D5E9A4FFC011082898164
:101D1000282F30E0C90182959295907F9827807F87
:101D20009827820F931F8C5E9A4FFC011082898145
:101D3000282F30E0C90182959295907F9827807F67
:101D40009827820F931F8B5E9A4FFC011082898126
:101D5000282F30E0C90182959295907F9827807F47
:101D60009827820F931F8A5E9A4FFC011082898107
:101D70008F5F898381E09981913208F080E0882328
:101D800009F011CF10923D0780ED98E20E94BB311F
:101D90000F90DF91CF910895CF93DF9300D0CDB70F
:101DA000DEB79A83898389819A81FC018081881FAB
:101DB0008827881F8093260789819A81FC0180816A
:101DC000882F90E080749070082E892F000C881F57
:101DD000990B000C881F991F8093150789819A81A0
:101DE000FC018081882F90E0807290709595879596
:101DF00095958795959587959595879595958795CB
:101E00008093040789819A81FC018081882F90E06A
:101E100080719070959587959595879595958795FF
:101E2000959587958093F30689819A81FC0180813D
:101E3000882F90E0887090709595879595958795F7
:101E4000959587958093E20689819A81FC0180812E
:101E5000882F90E0847090709595879595958795DB
:101E60008093D10689819A81FC018081882F90E03E
:101E700082709070959587958093C00689819A812C
:101E8000FC01808181708093AF0689819A810196DF
:101E9000FC018081881F8827881F80939E06898186
:101EA0009A810196FC018081882F90E08074907067
:101EB000082E892F000C881F990B000C881F991F72
:101EC00080938D0689819A810196FC018081882FFB
:101ED00090E08072907095958795959587959595EA
:101EE0008795959587959595879580937C068981AB
:101EF0009A810196FC018081882F90E0807190701A
:101F000095958795959587959595879595958795B9
:101F100080936B0689819A810196FC018081882FCC
:101F200090E0887090709595879595958795959593
:101F3000879580935A0689819A810196FC01808158
:101F4000882F90E0847090709595879595958795EA
:101F50008093490689819A810196FC018081882FAE
:101F600090E082709070959587958093380689816E
:101F70009A810196FC018081817080932706898176
:101F80009A810296FC018081881F8827881F809390
:101F9000160689819A810296FC018081882F90E043
:101FA00080749070082E892F000C881F990B000CEC
:101FB000881F991F8093050689819A810296FC01EA
:101FC0008081882F90E08072907095958795959587
:101FD0008795959587959595879595958795809300
:101FE000F40589819A810296FC018081882F90E016
:101FF000807190709595879595958795959587951E
:10200000959587958093E30589819A810296FC01D5
:102010008081882F90E08870907095958795959530
:102020008795959587958093D20589819A810296A7
:10203000FC018081882F90E0847090709595879541
:10204000959587958093C10589819A810296FC01B7
:102050008081882F90E0827090709595879580930D
:10206000B00589819A810296FC01808181708093FC
:102070009F0589819A810396FC018081881F8827AA
:10208000881F80938E0589819A810396FC01808147
:10209000882F90E080749070082E892F000C881F84
:1020A000990B000C881F991F80937D0589819A8167
:1020B0000396FC018081882F90E080729070959546
:1020C00087959595879595958795959587959595F8
:1020D000879580936C0589819A810396FC018081A4
:1020E000882F90E08071907095958795959587954C
:1020F000959587959595879580935B0589819A81BC
:102100000396FC018081882F90E0887090709595EF
:102110008795959587959595879580934A058981AB
:102120009A810396FC018081882F90E084709070E2
:1021300095958795959587958093390589819A819D
:102140000396FC018081882F90E0827090709595B5
:1021500087958093280589819A810396FC01808167
:1021600081708093170580912607282F89819A8195
:102170000596FC018081881F8827881F822B809309
:10218000260780911507282F89819A810596FC01E1
:102190008081882F90E080749070082E892F000C29
:1021A000881F990B000C881F991F822B809315079D
:1021B00080910407282F89819A810596FC018081EE
:1021C000882F90E08072907095958795959587956A
:1021D000959587959595879595958795822B80936D
:1021E00004078091F306282F89819A810596FC01C6
:1021F0008081882F90E08071907095958795959556
:1022000087959595879595958795822B8093F3066D
:102210008091E206282F89819A810596FC018081B0
:10222000882F90E088709070959587959595879503
:1022300095958795822B8093E2068091D106282F71
:1022400089819A810596FC018081882F90E08470B5
:1022500090709595879595958795822B8093D1065B
:102260008091C006282F89819A810596FC01808182
:10227000882F90E08270907095958795822B80933F
:10228000C0068091AF06282F89819A810596FC01AE
:1022900080818170822B8093AF0680919E06282FCB
:1022A00089819A810696FC018081881F8827881F72
:1022B000822B80939E0680918D06282F89819A819A
:1022C0000696FC018081882F90E080749070082E23
:1022D000892F000C881F990B000C881F991F822BD7
:1022E00080938D0680917C06282F89819A8106969D
:1022F000FC018081882F90E0807290709595879581
:1023000095958795959587959595879595958795B5
:10231000822B80937C0680916B06282F89819A817D
:102320000696FC018081882F90E0807190709595D1
:102330008795959587959595879595958795822B02
:1023400080936B0680915A06282F89819A81069680
:10235000FC018081882F90E088709070959587951A
:102360009595879595958795822B80935A068091B0
:102370004906282F89819A810696FC018081882F41
:1023800090E0847090709595879595958795822BB0
:102390008093490680913806282F89819A81069674
:1023A000FC018081882F90E08270907095958795D0
:1023B000822B8093380680912706282F89819A8165
:1023C0000696FC0180818170822B80932706809184
:1023D0001606282F89819A810796FC018081881F23
:1023E0008827881F822B8093160680910506282F48
:1023F00089819A810796FC018081882F90E0807402
:102400009070082E892F000C881F990B000C881FD4
:10241000991F822B809305068091F405282F8981CE
:102420009A810796FC018081882F90E080729070DD
:102430009595879595958795959587959595879584
:1024400095958795822B8093F4058091E305282F3D
:1024500089819A810796FC018081882F90E08071A4
:102460009070959587959595879595958795959570
:102470008795822B8093E3058091D205282F89814F
:102480009A810796FC018081882F90E08870907077
:10249000959587959595879595958795822B8093AA
:1024A000D2058091C105282F89819A810796FC0168
:1024B0008081882F90E08470907095958795959590
:1024C0008795822B8093C1058091B005282F898143
:1024D0009A810796FC018081882F90E0827090702D
:1024E00095958795822B8093B00580919F05282F25
:1024F00089819A810796FC0180818170822B80936B
:102500009F0580918E05282F89819A810896FC016C
:102510008081881F8827881F822B80938E05809159
:102520007D05282F89819A810896FC018081882F5A
:1025300090E080749070082E892F000C881F990BF2
:10254000000C881F991F822B80937D0580916C055C
:10255000282F89819A810896FC018081882F90E03C
:1025600080729070959587959595879595958795A7
:102570009595879595958795822B80936C0580918D
:102580005B05282F89819A810896FC018081882F1C
:1025900090E0807190709595879595958795959524
:1025A000879595958795822B80935B0580914A0549
:1025B000282F89819A810896FC018081882F90E0DC
:1025C0008870907095958795959587959595879541
:1025D000822B80934A0580913905282F89819A8121
:1025E0000896FC018081882F90E08470907095950A
:1025F000879595958795822B80933905809128053D
:10260000282F89819A810896FC018081882F90E08B
:102610008270907095958795822B80932805809184
:102620001705282F89819A810896FC018081817085
:10263000822B80931705809137078823A9F080911A
:102640003707282F30E0C90182959295907F98270F
:10265000807F9827820F931F8A5F9A4FFC018081A9
:10266000882311F40E9439130F900F90DF91CF91BE
:102670000895CF93DF93CDB7DEB7809137078032CF
:1026800030F4809137078F5F809337070EC0109228
:1026900037072CE232E080E0B9010E94530B25E2BB
:1026A00032E080E0B9010E94530B80913707282F58
:1026B00030E0C90182959295907F9827807F982776
:1026C000820F931F8A5F9A4FFC018081882331F427
:1026D00080913707882311F081E001C080E08823D2
:1026E00061F69091370785E0692F0E94150D809162
:1026F0003707882399F42CE232E080E1B9010E9487
:10270000530B2CE232E080E2B9010E94530B2CE221
:1027100032E080E3B9010E94530B02C00E94E4142E
:10272000DF91CF910895CF93DF93CDB7DEB780913E
:1027300002059091030527E0803D920709F05FC0F4
:1027400088EB9BE09093030580930205809104053C
:10275000909105058130910549F530913707209119
:10276000770700D000D000D08DB79EB70196FC014E
:102770003083FC01218327E6FC01228321E0FC0158
:10278000238321E030E0FC01358324830E94312F34
:102790008DB79EB706960FB6F8949EBF0FBE8DBF3D
:1027A000809138078F5F809338075EC0309137077C
:1027B0002091770700D000D000D08DB79EB701964A
:1027C000FC013083FC01218327E6FC01228321E008
:1027D000FC01238322E030E0FC01358324830E9446
:1027E000312F8DB79EB706960FB6F8949EBF0FBED9
:1027F0008DBF809138078F5F8093380735C08091F7
:102800003707282F30E0C90182959295907F98274D
:10281000807F9827820F931F8E5E9A4FFC018081E4
:10282000882F90E082309105B1F08330910534F427
:10283000009759F08130910559F016C08330910509
:1028400069F08430910569F00FC00E9474170CC0C4
:102850000E94451D09C00E940E2006C00E94B4259A
:1028600003C00E94F7250000DF91CF910895CF9318
:10287000DF93CDB7DEB780913707282F30E0C9014D
:1028800082959295907F9827807F9827820F931F3B
:102890008F5E9A4FFC018081813099F480913707D7
:1028A000282F30E0C90182959295907F9827807FEC
:1028B0009827820F931F8F5E9A4F27E0FC01208399
:1028C0007EC080913707282F30E0C901829592950C
:1028D000907F9827807F9827820F931F8F5E9A4F53
:1028E000FC018081873099F480913707282F30E0F0
:1028F000C90182959295907F9827807F9827820FB3
:10290000931F8F5E9A4F22E0FC01208358C0809174
:102910003707282F30E0C90182959295907F98273C
:10292000807F9827820F931F8F5E9A4FFC018081D2
:10293000853008F580913707282F30E0C90182954E
:102940009295907F9827807F9827820F931F8F5EA4
:102950009A4FFC018081482F4F5FC9018295929563
:10296000907F9827807F9827820F931F8F5E9A4FC2
:10297000FC01408324C080913707282F30E0C90133
:1029800082959295907F9827807F9827820F931F3A
:102990008F5E9A4FFC018081853089F480913707E2
:1029A000282F30E0C90182959295907F9827807FEB
:1029B0009827820F931F8F5E9A4FFC0110820E940E
:1029C000E414DF91CF910895CF93DF93CDB7DEB7B5
:1029D00080913707882309F4F8C180913707282FA1
:1029E00030E0C90182959295907F9827807F982743
:1029F000820F931F8F5E9A4FFC018081882F90E099
:102A00008330910509F4F6C08430910554F4813087
:102A10009105B1F1823091050CF0BEC0009791F0A4
:102A20005DC18530910509F41FC1853091050CF415
:102A3000FFC08630910509F435C18730910509F44E
:102A400065C04CC12DE332E080E2B9010E94530B16
:102A500080913707282F30E0C90182959295907FA9
:102A60009827807F9827820F931F895F9A4FFC01D8
:102A700080819181982F85E2692F0E940D0C2EC1D3
:102A80002EE432E080E2B9010E94530B80913707B7
:102A9000282F30E0C90182959295907F9827807FFA
:102AA0009827820F931F8D5E9A4FFC018081882F9B
:102AB00090E081309105A1F0823091051CF40097DF
:102AC00041F023C08230910591F083309105B1F03F
:102AD0001CC02FE532E089E2B9010E94530B15C0FA
:102AE00028E632E089E2B9010E94530B0EC021E7CB
:102AF00032E089E2B9010E94530B07C02AE732E0B5
:102B000089E2B9010E94530B0000E8C023E832E0DB
:102B100080E2B9010E94530B80913707282F30E0E3
:102B2000C90182959295907F9827807F9827820F80
:102B3000931F8C5E9A4FFC018081882F90E081303A
:102B40009105A1F0823091051CF4009741F023C05B
:102B50008230910591F083309105B1F01CC02FE5D2
:102B600032E089E2B9010E94530B15C028E632E039
:102B700089E2B9010E94530B0EC021E732E089E2DD
:102B8000B9010E94530B07C02AE732E089E2B9017C
:102B90000E94530B0000A2C024E932E080E2B90198
:102BA0000E94530B80913707282F30E0C90182958E
:102BB0009295907F9827807F9827820F931F8A5E37
:102BC0009A4FFC018081882F90E0009721F081309E
:102BD000910541F00EC025EA32E087E2B9010E947A
:102BE000530B07C020EB32E087E2B9010E94530B80
:102BF000000074C02BEB32E080E2B9010E94530B5D
:102C000080913707282F30E0C90182959295907FF7
:102C10009827807F9827820F931F875F9A4FFC0128
:102C200080819181982F85E2692F0E940D0C56C0FA
:102C30002CEC32E080E2B9010E94530B80913707FF
:102C4000282F30E0C90182959295907F9827807F48
:102C50009827820F931F855F9A4FFC0190818AE22B
:102C6000692F0E944A0D3AC02DED32E080E2B90191
:102C70000E94530B80913707282F30E0C9018295BD
:102C80009295907F9827807F9827820F931F835F6C
:102C90009A4FFC018081982F9F5F8AE2692F0E94E2
:102CA0004A0D1CC02EEE32E080E2B9010E94530BA7
:102CB00080913707282F30E0C90182959295907F47
:102CC0009827807F9827820F931F8B5E9A4FFC0175
:102CD00090818AE2692F0E948B0B00008091370758
:102CE000282F30E0C90182959295907F9827807FA8
:102CF0009827820F931F8E5E9A4FFC018081882F48
:102D000090E08230910509F44BC08330910534F492
:102D1000009769F081309105E1F157C0833091054A
:102D200009F445C08430910509F448C04EC0809133
:102D30003707282F30E0C90182959295907F982718
:102D4000807F9827820F931F845F9A4FFC018081B8
:102D5000813039F42FEF32E080E3B9010E94530B48
:102D600034C080913707282F30E0C90182959295B1
:102D7000907F9827807F9827820F931F845F9A4FB8
:102D8000FC0110822CE232E080E3B9010E94530B77
:102D90001CC020E133E080E3B9010E94530B15C051
:102DA00021E233E080E3B9010E94530B0EC022E31D
:102DB00033E080E3B9010E94530B07C023E433E002
:102DC00080E3B9010E94530B0000DF91CF91089579
:102DD000CF93DF930F92CDB7DEB789838981882F98
:102DE00090E08230910509F44BC08330910534F4B2
:102DF000009769F08130910559F160C083309105E9
:102E000009F444C08430910509F44CC057C0809146
:102E10003807882329F0809138078150809338073C
:102E200080913707282F30E0C90182959295907FD5
:102E30009827807F9827820F931F8F5E9A4FFC01FF
:102E400010822CE232E080E1B9010E94530B36C0BF
:102E5000809138078F5F8093380780913707282F3C
:102E600030E0C90182959295907F9827807F9827BE
:102E7000820F931F8F5E9A4F26E0FC0120831EC0B5
:102E8000809138078F5F8093380718C0809138078A
:102E90008F5F8093380780E197E290933A078093A1
:102EA00039070CC0809138078F5F8093380780E125
:102EB00097E290933C0780933B070000809137078F
:102EC000282F30E0C90182959295907F9827807FC6
:102ED0009827820F931F8E5E9A4F2981FC012083D1
:102EE0000F90DF91CF910895CF93DF93CDB7DEB7E9
:102EF0000E948608882F90E0AA2797FDA095BA2FF8
:102F00004BE050E025E930E0841B950B281739078A
:102F100008F46CC58A5B9F4FFC01EE0FFF1F059004
:102F2000F491E02D099480913707282F30E0C901F2
:102F300082959295907F9827807F9827820F931F84
:102F4000845F9A4FFC018081882309F028C5309165
:102F500037072091770700D000D08DB79EB7019634
:102F6000FC013083FC0121832BE1FC012283FC0165
:102F700013820E94312F0F900F900F900F9081E0DD
:102F80000E94E8160CC50E94AE08982F81E091308F
:102F900009F080E0882321F13091370720917707ED
:102FA00000D000D000D08DB79EB70196FC013083D1
:102FB000FC01218321E2FC01228321E0FC01238327
:102FC00026E030E0FC01358324830E94312F8DB749
:102FD0009EB706960FB6F8949EBF0FBE8DBF06C56E
:102FE00080913707282F30E0C90182959295907F14
:102FF0009827807F9827820F931F855F9A4FFC0147
:103000008081873008F580913707282F30E0C9018B
:1030100082959295907F9827807F9827820F931FA3
:10302000855F9A4FFC018081482F4F5FC9018295CF
:103030009295907F9827807F9827820F931F855FB6
:103040009A4FFC01408311C080913707282F30E050
:10305000C90182959295907F9827807F9827820F4B
:10306000931F855F9A4FFC0110820E94E414BEC436
:103070000E94AE08982F81E0913009F080E088230B
:1030800019F00E9437148DC480913707282F30E043
:10309000C90182959295907F9827807F9827820F0B
:1030A000931F835F9A4FFC018081873000F58091E8
:1030B0003707282F30E0C90182959295907F982795
:1030C000807F9827820F931F835F9A4FFC01808136
:1030D000482F4F5FC90182959295907F9827807FF6
:1030E0009827820F931F835F9A4FFC014083809142
:1030F0003707882309F455C4509137074091770763
:1031000080913707282F30E0C90182959295907FF2
:103110009827807F9827820F931F835F9A4FFC0127
:103120008081282F30E000D000D000D08DB79EB72E
:103130000196FC015083FC0141834CE0FC01428379
:1031400041E0FC014383FC01358324830E94312F3D
:103150008DB79EB706960FB6F8949EBF0FBE8DBF73
:1031600020C480913707282F30E0C90182959295BD
:10317000907F9827807F9827820F931F835F9A4FB5
:10318000FC018081882301F180913707282F30E0EE
:10319000C90182959295907F9827807F9827820F0A
:1031A000931F835F9A4FFC018081482F4150C901D2
:1031B00082959295907F9827807F9827820F931F02
:1031C000835F9A4FFC01408380913707882309F47D
:1031D000EAC3509137074091770780913707282F2E
:1031E00030E0C90182959295907F9827807F98273B
:1031F000820F931F835F9A4FFC018081282F30E05C
:1032000000D000D000D08DB79EB70196FC0150834E
:10321000FC0141834CE0FC01428341E0FC0143831B
:10322000FC01358324830E94312F8DB79EB706960B
:103230000FB6F8949EBF0FBE8DBFB5C38091370700
:10324000882309F4B2C30E94A008982F81E091302E
:1032500009F080E0882321F083E00E94E816A5C3EE
:103260000E94AE08982F81E0913009F080E0882319
:1032700009F49BC384E00E94E81697C30E94A0084B
:10328000982F81E0913009F080E0882339F1809116
:103290003707882309F48BC33091370720917707CC
:1032A00000D000D000D08DB79EB70196FC013083CE
:1032B000FC0121832AE0FC01228321E0FC0123831D
:1032C000FC01158214820E94312F8DB79EB706969D
:1032D0000FB6F8949EBF0FBE8DBF69C30E94AE08A3
:1032E000982F81E0913009F080E0882309F45FC3D2
:1032F00080913707882309F45AC33091370720910A
:10330000770700D000D000D08DB79EB70196FC01A2
:103310003083FC0121832AE0FC01228321E0FC01AF
:10332000238321E030E0FC01358324830E94312F88
:103330008DB79EB706960FB6F8949EBF0FBE8DBF91
:1033400036C380913707882309F433C30E94A0084D
:10335000982F81E0913009F080E0882311F13091BD
:1033600037072091770700D000D000D08DB79EB7E7
:103370000196FC013083FC0121832BE0FC012283B8
:1033800021E0FC012383FC01158214820E94312F6D
:103390008DB79EB706960FB6F8949EBF0FBE8DBF31
:1033A00008C30E94AE08982F81E0913009F080E0B8
:1033B000882309F4FEC2309137072091770700D0A7
:1033C00000D000D08DB79EB70196FC013083FC0180
:1033D00021832BE0FC01228321E0FC01238321E0F7
:1033E00030E0FC01358324830E94312F8DB79EB7D6
:1033F00006960FB6F8949EBF0FBE8DBFDAC28091BD
:103400003707882309F4D7C230913707209177070F
:1034100000D000D08DB79EB70196FC013083FC012F
:10342000218328E1FC012283FC0113820E94312FB9
:103430000F900F900F900F90809138078F5F8093BF
:103440003807B9C280913707882309F4B6C2309192
:1034500037072091770700D000D08DB79EB701962F
:10346000FC013083FC0121832AE1FC012283FC0161
:1034700013820E94312F0F900F900F900F90809128
:103480003807882309F499C28091380781508093C6
:10349000380793C280913707882309F490C230918E
:1034A00037072091770700D000D08DB79EB70196DF
:1034B000FC013083FC01218329E1FC012283FC0112
:1034C00013820E94312F0F900F900F900F908091D8
:1034D00038078F5F8093380772C28091370788233F
:1034E00009F46FC2309137072091770700D000D0E0
:1034F0008DB79EB70196FC013083FC0121832AE140
:10350000FC012283FC0113820E94312F0F900F9047
:103510000F900F9080913807882309F452C2809150
:1035200038078150809338074CC280913707882331
:1035300009F449C20E94A008982F81E0913009F057
:1035400080E0882369F081E090E090930305809308
:10355000020581E090E0909305058093040533C255
:10356000309137072091770700D000D08DB79EB7F4
:103570000196FC013083FC01218321E1FC012283BF
:10358000FC0113820E94312F0F900F900F900F902B
:10359000809138078F5F8093380715C28091370775
:1035A000882309F412C280910405909105050097C3
:1035B00019F5309137072091770700D000D08DB7EB
:1035C0009EB70196FC013083FC01218323E1FC01BD
:1035D0002283FC0113820E94312F0F900F900F90D5
:1035E0000F9080913807882309F4EFC18091380744
:1035F000815080933807E9C11092050510920405A7
:103600001092030510920205309137072091770739
:1036100000D000D000D08DB79EB70196FC0130835A
:10362000FC01218327E6FC01228321E0FC012383A6
:10363000FC01158214820E94312F8DB79EB7069629
:103640000FB6F8949EBF0FBE8DBF809138078823B8
:1036500009F4BBC180913807815080933807B5C108
:1036600080913707882309F4B2C10E94A008982FDF
:1036700081E0913009F080E0882369F081E090E0FA
:10368000909303058093020582E090E090930505F6
:10369000809304059CC1309137072091770700D0B3
:1036A00000D08DB79EB70196FC013083FC012183C9
:1036B00022E1FC012283FC0113820E94312F0F9032
:1036C0000F900F900F90809138078F5F809338078D
:1036D0007EC180913707882309F47BC1809104055E
:1036E00090910505009719F53091370720917707DC
:1036F00000D000D08DB79EB70196FC013083FC014D
:10370000218323E1FC012283FC0113820E94312FDB
:103710000F900F900F900F9080913807882309F435
:1037200058C18091380781508093380752C1109258
:1037300005051092040510920305109202053091C0
:1037400037072091770700D000D000D08DB79EB703
:103750000196FC013083FC01218327E6FC012283D2
:1037600021E0FC012383FC01158214820E94312F89
:103770008DB79EB706960FB6F8949EBF0FBE8DBF4D
:1037800080913807882309F424C18091380781503B
:10379000809338071EC180913707882309F41BC125
:1037A000309137072091770700D000D08DB79EB7B2
:1037B0000196FC013083FC01218324E1FC0122837A
:1037C000FC0113820E94312F0F900F900F900F90E9
:1037D000809138078F5F80933807FDC0809137074D
:1037E000882309F4FAC0309137072091770700D079
:1037F00000D08DB79EB70196FC013083FC01218378
:1038000026E1FC012283FC0113820E94312F0F90DC
:103810000F900F900F9080913807882309F4DDC036
:1038200080913807815080933807D7C0809137073F
:10383000882309F4D4C0309137072091770700D04E
:1038400000D08DB79EB70196FC013083FC01218327
:1038500025E1FC012283FC0113820E94312F0F908D
:103860000F900F900F90809138078F5F80933807EB
:10387000B6C080913707882309F4B3C03091370769
:103880002091770700D000D08DB79EB70196FC013C
:103890003083FC01218326E1FC012283FC01138299
:1038A0000E94312F0F900F900F900F90809138074A
:1038B000882309F496C08091380781508093380797
:1038C00090C080913807882309F08DC00E94391379
:1038D0008AC080913707882309F487C08091370711
:1038E000282F30E0C90182959295907F9827807F9C
:1038F0009827820F931F845F9A4FFC018081882351
:10390000A9F5509137074091770780913707282F05
:1039100030E0C90182959295907F9827807F982703
:10392000820F931F855F9A4FFC018081282F30E022
:1039300000D000D000D08DB79EB70196FC01508317
:10394000FC0141834DE1FC01428341E0FC014383E2
:10395000FC01358324830E94312F8DB79EB70696D4
:103960000FB6F8949EBF0FBE8DBF3FC03091370792
:103970002091770700D000D08DB79EB70196FC014B
:103980003083FC0121832FE1FC012283FC0113829F
:103990000E94312F0F900F900F900F9026C00000C3
:1039A00025C0000023C0000021C000001FC000008F
:1039B0001DC000001BC0000019C0000017C000009F
:1039C00015C0000013C0000011C000000FC00000AF
:1039D0000DC000000BC0000009C0000007C00000BF
:1039E00005C0000003C0000001C000000E94A00844
:1039F000982F81E0913009F080E0882309F442C0DB
:103A000080913707282F30E0C90182959295907FE9
:103A10009827807F9827820F931F805F9A4FFC0121
:103A20008081813079F51092A30A1092A40A109235
:103A3000A50A81E390E021E330E0F90120812360D1
:103A4000FC01208382E390E022E330E0F901208151
:103A50002C7FFC0120832CE232E080E1B9010E943E
:103A6000530B80913707282F30E0C901829592953A
:103A7000907F9827807F9827820F931F805F9A4FAF
:103A8000FC011082DF91CF910895CF93DF93CDB7E2
:103A9000DEB70E948608882F90E0AA2797FDA095A0
:103AA000BA2F4BE050E025E930E0841B950B281736
:103AB000390708F464C284529F4FFC01EE0FFF1FC8
:103AC0000590F491E02D0994709137076091770784
:103AD00080913707282F30E0C90182959295907F19
:103AE0009827807F9827820F931F8B5E9A4FFC0147
:103AF0008081482F50E080913707282F30E0C9019E
:103B000082959295907F9827807F9827820F931FA8
:103B1000855F9A4FFC018081282F30E08DB79EB7DA
:103B200008970FB6F8949EBF0FBE8DBF8DB79EB796
:103B30000196FC017083FC0161836CE1FC016283EE
:103B400062E0FC016383FC0155834483FC013783FD
:103B500026830E94312F8DB79EB708960FB6F89432
:103B60009EBF0FBE8DBF80E00E94E81608C2809104
:103B70003707282F30E0C90182959295907F9827CA
:103B8000807F9827820F931F8B5E9A4FFC01808164
:103B90008A3500F580913707282F30E0C9018295DA
:103BA0009295907F9827807F9827820F931F8B5E36
:103BB0009A4FFC018081482F4F5FC90182959295F1
:103BC000907F9827807F9827820F931F8B5E9A4F54
:103BD000FC0140830E94E414D2C180913707282F52
:103BE00030E0C90182959295907F9827807F982731
:103BF000820F931F8B5E9A4FFC018081882301F115
:103C000080913707282F30E0C90182959295907FE7
:103C10009827807F9827820F931F8B5E9A4FFC0115
:103C20008081482F4150C90182959295907F9827B5
:103C3000807F9827820F931F8B5E9A4FFC014083F1
:103C40000E94E4149CC10E94A008982F81E091304A
:103C500009F080E0882309F077C10E94A00874C1B0
:103C60000E94A008982F81E0913009F080E088231D
:103C700009F06CC10E94A00869C1809137078823B0
:103C800009F466C1309137072091770700D000D042
:103C90008DB79EB70196FC013083FC01218328E19A
:103CA000FC012283FC0113820E94312F0F900F90A0
:103CB0000F900F904DC180913707882309F44AC1B6
:103CC000309137072091770700D000D08DB79EB78D
:103CD0000196FC013083FC0121832AE1FC0122834F
:103CE000FC0113820E94312F0F900F900F900F90C4
:103CF00031C180913707882309F42EC130913707ED
:103D00002091770700D000D08DB79EB70196FC01B7
:103D10003083FC01218329E1FC012283FC01138211
:103D20000E94312F0F900F900F900F9015C180912E
:103D30003707882309F412C130913707209177079C
:103D400000D000D08DB79EB70196FC013083FC01F6
:103D500021832AE1FC012283FC0113820E94312F7E
:103D60000F900F900F900F90F9C080913707882324
:103D700009F4F6C0309137072091770700D000D0C2
:103D80008DB79EB70196FC013083FC01218321E1B0
:103D9000FC012283FC0113820E94312F0F900F90AF
:103DA0000F900F90DDC080913707882309F4DAC0A7
:103DB000309137072091770700D000D08DB79EB79C
:103DC0000196FC013083FC01218323E1FC01228365
:103DD000FC0113820E94312F0F900F900F900F90D3
:103DE000C1C080913707882309F4BEC030913707DE
:103DF0002091770700D000D08DB79EB70196FC01C7
:103E00003083FC01218322E1FC012283FC01138227
:103E10000E94312F0F900F900F900F90A5C08091AE
:103E20003707882309F4A2C030913707209177071C
:103E300000D000D08DB79EB70196FC013083FC0105
:103E4000218323E1FC012283FC0113820E94312F94
:103E50000F900F900F900F9089C0809137078823A3
:103E600009F486C0309137072091770700D000D041
:103E70008DB79EB70196FC013083FC01218324E1BC
:103E8000FC012283FC0113820E94312F0F900F90BE
:103E90000F900F906DC080913707882309F46AC096
:103EA000309137072091770700D000D08DB79EB7AB
:103EB0000196FC013083FC01218326E1FC01228371
:103EC000FC0113820E94312F0F900F900F900F90E2
:103ED00051C080913707882309F44EC030913707CD
:103EE0002091770700D000D08DB79EB70196FC01D6
:103EF0003083FC01218325E1FC012283FC01138234
:103F00000E94312F0F900F900F900F9035C080912D
:103F10003707882399F1309137072091770700D030
:103F200000D08DB79EB70196FC013083FC01218340
:103F300026E1FC012283FC0113820E94312F0F90A5
:103F40000F900F900F901AC0000019C0000017C00A
:103F5000000015C0000013C0000011C000000FC019
:103F600000000DC000000BC0000009C0000007C029
:103F7000000005C0000003C0000001C000000E9456
:103F8000A008982F81E0913009F080E0882309F49F
:103F900042C080913707282F30E0C9018295929561
:103FA000907F9827807F9827820F931F805F9A4F7A
:103FB000FC018081813079F51092A30A1092A40A45
:103FC0001092A50A81E390E021E330E0F90120811D
:103FD0002360FC01208382E390E022E330E0F901DA
:103FE00020812C7FFC0120832CE232E080E1B901AA
:103FF0000E94530B80913707282F30E0C90182952A
:104000009295907F9827807F9827820F931F805FDB
:104010009A4FFC011082DF91CF910895CF93DF93E7
:10402000CDB7DEB70E948608882F90E0AA2797FDBB
:10403000A095BA2F4BE050E025E930E0841B950BAA
:104040002817390708F441C58E589E4FFC01EE0F22
:10405000FF1F0590F491E02D09940E94A008982F6D
:1040600081E0913009F080E0882321F13091370719
:104070002091770700D000D000D08DB79EB7019671
:10408000FC013083FC01218321E2FC01228321E039
:10409000FC01238320E130E0FC01358324830E946E
:1040A000312F8DB79EB706960FB6F8949EBF0FBE00
:1040B0008DBFE2C40E94AE08982F81E0913009F0D4
:1040C00080E0882309F4D8C430913707209177071E
:1040D00000D000D000D08DB79EB70196FC01308390
:1040E000FC01218321E2FC01228321E0FC012383E6
:1040F0002FE030E0FC01358324830E94312F8DB7FF
:104100009EB706960FB6F8949EBF0FBE8DBFB4C47F
:104110000E94A008982F81E0913009F080E0882368
:1041200009F4ACC4309137072091770700D000D054
:1041300000D08DB79EB70196FC013083FC0121832E
:1041400021E2FC01228321E0FC0123832EE030E008
:10415000FC01358324830E94312F8DB79EB70696CC
:104160000FB6F8949EBF0FBE8DBF88C40E94A008F2
:10417000982F81E0913009F080E0882321F130917F
:1041800037072091770700D000D000D08DB79EB7B9
:104190000196FC013083FC01218326E6FC01228389
:1041A00021E0FC01238321E030E0FC0135832483FE
:1041B0000E94312F8DB79EB706960FB6F8949EBF1A
:1041C0000FBE8DBF5DC40E94AE08982F81E0913074
:1041D00009F080E0882309F453C430913707209117
:1041E000770700D000D000D08DB79EB70196FC01B4
:1041F0003083FC01218326E6FC01228321E0FC01BF
:10420000238322E030E0FC01358324830E94312F98
:104210008DB79EB706960FB6F8949EBF0FBE8DBFA2
:104220002FC4309137072091770700D000D000D0FD
:104230008DB79EB70196FC013083FC01218326E6F1
:10424000FC01228321E0FC012383FC0115821482FE
:104250000E94312F8DB79EB706960FB6F8949EBF79
:104260000FBE8DBF32C40E94AE08982F81E09130FE
:1042700009F080E0882309F405C4309137072091C4
:10428000770700D000D000D08DB79EB70196FC0113
:104290003083FC01218321E2FC01228321E0FC0127
:1042A000238325E030E0FC01358324830E94312FF5
:1042B0008DB79EB706960FB6F8949EBF0FBE8DBF02
:1042C000E1C30E94AE08982F81E0913009F080E0B0
:1042D000882319F00E943714D7C380913707282FFD
:1042E00030E0C90182959295907F9827807F98272A
:1042F000820F931F835F9A4FFC018081873000F506
:1043000080913707282F30E0C90182959295907FE0
:104310009827807F9827820F931F835F9A4FFC0115
:104320008081482F4F5FC90182959295907F982791
:10433000807F9827820F931F835F9A4FFC014083F1
:1043400080913707882309F49FC350913707409124
:10435000770780913707282F30E0C9018295929521
:10436000907F9827807F9827820F931F835F9A4FB3
:10437000FC018081282F30E000D000D000D08DB724
:104380009EB70196FC015083FC0141834CE0FC0187
:10439000428341E0FC014383FC01358324830E9476
:1043A000312F8DB79EB706960FB6F8949EBF0FBEFD
:1043B0008DBF6AC380913707282F30E0C9018295ED
:1043C0009295907F9827807F9827820F931F835F15
:1043D0009A4FFC018081882301F180913707282FB3
:1043E00030E0C90182959295907F9827807F982729
:1043F000820F931F835F9A4FFC018081482F4150A9
:10440000C90182959295907F9827807F9827820F87
:10441000931F835F9A4FFC01408380913707882365
:1044200009F434C3509137074091770780913707DB
:10443000282F30E0C90182959295907F9827807F40
:104440009827820F931F835F9A4FFC018081282F4A
:1044500030E000D000D000D08DB79EB70196FC01AF
:104460005083FC0141834CE0FC01428341E0FC01AC
:104470004383FC01358324830E94312F8DB79EB77F
:1044800006960FB6F8949EBF0FBE8DBFFFC20E9466
:10449000AE08982F81E0913009F080E0882309F47C
:1044A000F7C2309137072091770700D000D000D0B5
:1044B0008DB79EB70196FC013083FC01218321E278
:1044C000FC01228321E0FC01238329E030E0FC0190
:1044D000358324830E94312F8DB79EB706960FB681
:1044E000F8949EBF0FBE8DBFD3C20E94AE08982F16
:1044F00081E0913009F080E0882309F4CBC230914B
:1045000037072091770700D000D000D08DB79EB735
:104510000196FC013083FC01218321E2FC0122830E
:1045200021E0FC0123832AE030E0FC013583248371
:104530000E94312F8DB79EB706960FB6F8949EBF96
:104540000FBE8DBFA7C20E94AE08982F81E09130A8
:1045500009F080E0882309F49FC230913707209149
:10456000770700D000D08DB79EB70196FC0130834D
:10457000FC01218329EDFC012283FC0113820E94AE
:10458000312F0F900F900F900F9086C20E94AE08AF
:10459000982F81E0913009F080E0882321F130915B
:1045A00037072091770700D000D000D08DB79EB795
:1045B0000196FC013083FC01218321E2FC0122836E
:1045C00021E0FC01238328E030E0FC0135832483D3
:1045D0000E94312F8DB79EB706960FB6F8949EBFF6
:1045E0000FBE8DBF5BC280913707882309F456C286
:1045F000309137072091770700D000D08DB79EB754
:104600000196FC013083FC01218328E1FC01228317
:10461000FC0113820E94312F0F900F900F900F908A
:104620003DC280913707882309F43AC23091370799
:104630002091770700D000D08DB79EB70196FC017E
:104640003083FC0121832AE1FC012283FC011382D7
:104650000E94312F0F900F900F900F9021C20E9457
:10466000AE08982F81E0913009F080E0882321F195
:10467000309137072091770700D000D000D08DB758
:104680009EB70196FC013083FC01218321E2FC01ED
:10469000228321E0FC01238327E030E0FC01358305
:1046A00024830E94312F8DB79EB706960FB6F894DB
:1046B0009EBF0FBE8DBFF6C180913707882309F4D6
:1046C000F1C1309137072091770700D000D08DB726
:1046D0009EB70196FC013083FC01218329E1FC0196
:1046E0002283FC0113820E94312F0F900F900F90B4
:1046F0000F90D8C180913707882309F4D5C1309134
:1047000037072091770700D000D08DB79EB701966C
:10471000FC013083FC0121832AE1FC012283FC019E
:1047200013820E94312F0F900F900F900F90BCC1F9
:104730000E94AE08982F81E0913009F080E0882334
:1047400021F1309137072091770700D000D000D0B9
:104750008DB79EB70196FC013083FC01218321E2D5
:10476000FC01228321E0FC01238324E030E0FC01F2
:10477000358324830E94312F8DB79EB706960FB6DE
:10478000F8949EBF0FBE8DBF91C1809137078823DB
:1047900009F48CC1309137072091770700D000D001
:1047A0008DB79EB70196FC013083FC01218321E186
:1047B000FC012283FC0113820E94312F0F900F9085
:1047C0000F900F9073C180913707882309F470C14F
:1047D000309137072091770700D000D08DB79EB772
:1047E0000196FC013083FC01218323E1FC0122833B
:1047F000FC0113820E94312F0F900F900F900F90A9
:1048000057C10E94AE08982F81E0913009F080E0F6
:10481000882321F1309137072091770700D000D00D
:1048200000D08DB79EB70196FC013083FC01218337
:1048300021E2FC01228321E0FC01238323E030E01C
:10484000FC01358324830E94312F8DB79EB70696D5
:104850000FB6F8949EBF0FBE8DBF2CC18091370755
:10486000882309F427C1309137072091770700D0BA
:1048700000D08DB79EB70196FC013083FC012183E7
:1048800022E1FC012283FC0113820E94312F0F9050
:104890000F900F900F900EC180913707882309F475
:1048A0000BC1309137072091770700D000D08DB72A
:1048B0009EB70196FC013083FC01218323E1FC01BA
:1048C0002283FC0113820E94312F0F900F900F90D2
:1048D0000F90F2C00E94AE08982F81E0913009F04D
:1048E00080E0882321F1309137072091770700D0AD
:1048F00000D000D08DB79EB70196FC013083FC013B
:10490000218321E2FC01228321E0FC01238322E0B8
:1049100030E0FC01358324830E94312F8DB79EB790
:1049200006960FB6F8949EBF0FBE8DBFC7C080918C
:104930003707882309F4C2C03091370720917707E1
:1049400000D000D08DB79EB70196FC013083FC01EA
:10495000218324E1FC012283FC0113820E94312F78
:104960000F900F900F900F90A9C080913707882368
:1049700009F4A6C0309137072091770700D000D006
:104980008DB79EB70196FC013083FC01218326E19F
:10499000FC012283FC0113820E94312F0F900F90A3
:1049A0000F900F908DC00E94AE08982F81E091303B
:1049B00009F080E0882321F13091370720917707B3
:1049C00000D000D000D08DB79EB70196FC01308397
:1049D000FC01218321E2FC01228321E0FC012383ED
:1049E00021E030E0FC01358324830E94312F8DB714
:1049F0009EB706960FB6F8949EBF0FBE8DBF62C0DD
:104A000080913707882309F45DC0309137072091E2
:104A1000770700D000D08DB79EB70196FC01308398
:104A2000FC01218325E1FC012283FC0113820E9409
:104A3000312F0F900F900F900F9044C08091370747
:104A4000882309F441C0309137072091770700D0BF
:104A500000D08DB79EB70196FC013083FC01218305
:104A600026E1FC012283FC0113820E94312F0F906A
:104A70000F900F900F9028C0000027C0000025C0A5
:104A8000000023C0000021C000001FC000001DC0A6
:104A900000001BC0000019C0000017C0000015C0B6
:104AA000000013C0000011C000000FC000000DC0C6
:104AB00000000BC0000009C0000007C0000005C0D6
:104AC000000003C0000001C000000E94A008982F51
:104AD00081E0913009F080E0882309F442C08091A0
:104AE0003707282F30E0C90182959295907F98274B
:104AF000807F9827820F931F805F9A4FFC018081EF
:104B0000813079F51092A30A1092A40A1092A50A96
:104B100081E390E021E330E0F90120812360FC0192
:104B2000208382E390E022E330E0F90120812C7FB2
:104B3000FC0120832CE232E080E1B9010E94530B9A
:104B400080913707282F30E0C90182959295907F98
:104B50009827807F9827820F931F805F9A4FFC01D0
:104B60001082DF91CF910895CF93DF93CDB7DEB759
:104B70000E948608882F90E08831910521F08232CA
:104B8000910549F031C010923A071092390780E040
:104B90000E94E81629C010923A0710923907309106
:104BA00037072091770700D000D000D08DB79EB78F
:104BB0000196FC013083FC01218329E0FC01228362
:104BC00021E0FC012383FC01158214820E94312F15
:104BD0008DB79EB706960FB6F8949EBF0FBE8DBFD9
:104BE00080E00E94E8160000DF91CF910895CF93F6
:104BF000DF93CDB7DEB70E948608882F90E088311A
:104C0000910521F08232910549F033C010923C07A2
:104C100010923B0780E00E94E8162BC010923C07E0
:104C200010923B07309137072091770700D000D0D2
:104C300000D08DB79EB70196FC013083FC01218323
:104C400029E0FC01228321E0FC01238321E030E004
:104C5000FC01358324830E94312F8DB79EB70696C1
:104C60000FB6F8949EBF0FBE8DBF80E00E94E8167D
:104C70000000DF91CF910895CF93DF9300D000D053
:104C80000F92CDB7DEB78D8380915007882F90E0CB
:104C9000382F222780915107882F90E0820F931F91
:104CA0009A83898380915407882F90E0382F222798
:104CB00080915507882F90E0820F931F9C838B83F0
:104CC0008D81882309F4B6C18D81813208F0B2C18B
:104CD00080914B078B3909F05EC080914C07882F7B
:104CE00090E088709070009791F08D81282F30E0CF
:104CF000C90182959295907F9827807F9827820F8F
:104D0000931F845F9A4F21E0FC01208310C08D81A6
:104D1000282F30E0C90182959295907F9827807F57
:104D20009827820F931F845F9A4FFC0110828D8118
:104D3000282F30E080914D07482F50E0C90182951F
:104D40009295907F9827807F9827820F931F895F85
:104D50009A4FFC01518340838D81282F30E0809150
:104D60005207882F90E0582F442780915307882FAF
:104D700090E0840F951FAC01C90182959295907FB8
:104D80009827807F9827820F931F875F9A4FFC0197
:104D9000518340834DC180914C07882F90E08074EF
:104DA0009070009789F48D81282F30E0C901829599
:104DB0009295907F9827807F9827820F931F8A5E15
:104DC0009A4FFC01108211C08D81282F30E0C9015B
:104DD00082959295907F9827807F9827820F931FC6
:104DE0008A5E9A4F21E0FC01208380914A0783303C
:104DF00009F05EC080914C07882F90E08C73907012
:104E000084309105F9F0853091051CF4009759F133
:104E10000FC18031910521F084319105B9F108C1AC
:104E20008D81282F30E0C90182959295907F982737
:104E3000807F9827820F931F8D5E9A4F21E0FC019F
:104E40002083F6C08D81282F30E0C901829592958C
:104E5000907F9827807F9827820F931F8D5E9A4FAF
:104E6000FC011082E5C08D81282F30E0C9018295B8
:104E70009295907F9827807F9827820F931F8D5E51
:104E80009A4F22E0FC0120830000D2C08D81282FA0
:104E900030E0C90182959295907F9827807F98276E
:104EA000820F931F8D5E9A4F23E0FC012083C0C0C8
:104EB00080914E07882309F05EC080914C07882FAF
:104EC00090E08C73907084309105F9F085309105F5
:104ED0001CF4009759F1ACC08031910521F0843168
:104EE0009105B9F1A5C08D81282F30E0C9018295C7
:104EF0009295907F9827807F9827820F931F8D5ED1
:104F00009A4F21E0FC01208393C08D81282F30E04F
:104F1000C90182959295907F9827807F9827820F6C
:104F2000931F8D5E9A4FFC01108282C08D81282FC5
:104F300030E0C90182959295907F9827807F9827CD
:104F4000820F931F8D5E9A4F22E0FC0120830000A8
:104F50006FC08D81282F30E0C90182959295907F96
:104F60009827807F9827820F931F8D5E9A4F23E0AA
:104F7000FC0120835DC080914C07882F90E08C73EA
:104F8000907084309105F9F0853091051CF40097FC
:104F900059F14EC08031910521F084319105B1F174
:104FA00047C08D81282F30E0C90182959295907F6E
:104FB0009827807F9827820F931F8C5E9A4F21E05D
:104FC000FC01208335C08D81282F30E0C9018295F6
:104FD0009295907F9827807F9827820F931F8C5EF1
:104FE0009A4FFC01108224C08D81282F30E0C90126
:104FF00082959295907F9827807F9827820F931FA4
:105000008C5E9A4F22E0FC01208312C08D81282FF4
:1050100030E0C90182959295907F9827807F9827EC
:10502000820F931F8C5E9A4F23E0FC0120830000C7
:105030000E94E4140F900F900F900F900F90DF914B
:10504000CF910895CF93DF93CDB7DEB780914C0712
:10505000882F90E08730910509F45BC08830910576
:10506000BCF48330910509F43EC0843091053CF4D2
:105070008130910551F18230910571F18EC08530FA
:10508000910509F43EC0863091050CF03EC032C057
:105090008B30910509F459C08C3091054CF489305E
:1050A000910509F444C08A3091050CF047C038C01E
:1050B0008F30910509F463C08031910509F466C011
:1050C0008E30910509F454C068C024E533E080E1D6
:1050D000B9010E94530B61C025E633E080E1B901BC
:1050E0000E94530B5AC026E733E080E1B9010E94C9
:1050F000530B53C027E833E080E1B9010E94530B02
:105100004CC080E00E94E81648C082E00E94E81689
:1051100044C028E933E080E1B9010E94530B3DC04F
:1051200029EA33E080E1B9010E94530B36C02AEB33
:1051300033E080E1B9010E94530B2FC02BEC33E028
:1051400080E1B9010E94530B28C02CE232E080E1DB
:10515000B9010E94530B90914D0782E1692F0E9483
:105160008B0B90914E0787E1692F0E948B0B15C026
:105170002CED33E080E1B9010E94530B0EC02DEEFF
:1051800033E080E1B9010E94530B07C02EEF33E0FA
:1051900080E1B9010E94530B0000DF91CF91089587
:1051A000CF93DF93CDB7DEB78091020590910305D1
:1051B000009701F1809102059091030527E0803D61
:1051C000920750F480910205909103050196909307
:1051D0000305809302050EC080910205909103059E
:1051E00027E0803D920731F488EB9BE09093030524
:1051F000809302058091390790913A07823091059A
:1052000054F08091390790913A07019790933A07AB
:10521000809339070EC08091390790913A07813009
:10522000910539F410923A071092390780E00E94F4
:10523000E81680913B0790913C078230910554F02D
:1052400080913B0790913C07019790933C07809396
:105250003B070EC080913B0790913C078130910540
:1052600039F410923C0710923B0780E00E94E81648
:10527000DF91CF910895CF93DF930F92CDB7DEB733
:1052800089838981882309F48CC08981813208F05F
:1052900088C080914B07882F90E08F7090700097A6
:1052A00031F42CE232E080E2B9010E94530B80918C
:1052B0004B07882F90E081709070882331F02FE0A9
:1052C00034E080E2B9010E94530B80914B07882F94
:1052D00090E082709070009731F020E234E080E23C
:1052E000B9010E94530B80914B07882F90E0807189
:1052F0009070009731F021E334E080E3B9010E941F
:10530000530B80914B07882F90E08072907000972C
:1053100031F022E434E080E3B9010E94530B809124
:105320004B07882F90E0807F9070009731F42CE23B
:1053300032E080E3B9010E94530B80914B07882F24
:1053400090E084709070009731F023E534E080E2C3
:10535000B9010E94530B80914B07882F90E0887011
:105360009070009731F024E634E080E2B9010E94A9
:10537000530B80914B07882F90E0807490700097BA
:1053800031F025E734E080E3B9010E94530B8091AE
:105390004B07882334F426E834E080E3B9010E9407
:1053A000530B0F90DF91CF910895CF92DF92EF9240
:1053B000FF920F931F93CF93DF93CDB7DEB72B9759
:1053C0000FB6F894DEBF0FBECDBF89836A834B83CF
:1053D0003D832C831F830E83F986E886DB86CA868D
:1053E000109276078BE290E0FC0110828AE290E056
:1053F00020EDFC01208385E990E026E8FC01208374
:1054000080E990E02A81FC01208389E290E02B81F1
:10541000FC012083898180933E078C819D8190933C
:10542000400780933F078E819F819093420780932E
:1054300041078885998590934407809343078A851F
:105440009B859093460780934507809141079091F3
:105450004207FC0109958091450790914607FC01A0
:1054600009958AE290E02AE230E0F901208120618A
:10547000FC0120838AE290E02AE230E0F9012081F9
:105480002E7FFC01208389EC9CE20E94BB312B968D
:105490000FB6F894DEBF0FBECDBFDF91CF911F9145
:1054A0000F91FF90EF90DF90CF900895CF93DF930F
:1054B00000D000D00F92CDB7DEB79E01225F3F4FE4
:1054C000CE010496FC01318320838A8580935F0797
:1054D0008B85809360078C85809361078D85809391
:1054E000620784E0898384E0898317C08C819D8171
:1054F0009C012E5F3F4F3D832C83FC018081918175
:105500009B838A838981882F90E02A81815A984FD2
:10551000FC01208389818F5F89838981282F30E076
:105520008D85882F90E0049641E0281739070CF00C
:1055300040E04423D9F681E0809373070E942D2B2D
:105540000F900F900F900F900F90DF91CF910895D3
:10555000CF93DF9300D000D00F92CDB7DEB780910C
:105560007307882309F041C09E01225F3F4FCE019F
:105570000496FC01318320838A8580935F078B85A5
:10558000809360078C85809361078D858093620787
:1055900084E0898384E0898317C08C819D819C018C
:1055A0002E5F3F4F3D832C83FC01808191819B8343
:1055B0008A838981882F90E02A81815A984FFC0143
:1055C000208389818F5F89838981282F30E08D85B1
:1055D000882F90E0049641E0281739070CF040E04E
:1055E0004423D9F681E0809373070F900F900F90BA
:1055F0000F900F90DF91CF910895CF93DF9300D05C
:105600000F92CDB7DEB7809162078C5F8B831A82D1
:1056100019820DC08981882F90E0815A984FFC0132
:1056200080819A81890F8A8389818F5F898381E054
:1056300029819B81291708F080E0882359F78B8105
:10564000882F90E0815A984F2A81FC0120830F9087
:105650000F900F90DF91CF910895CF93DF93CDB747
:10566000DEB780917507882369F4809173078823DA
:1056700049F081E0809375070E94FD2A109274071B
:105680000E94452BDF91CF910895CF93DF93CDB743
:10569000DEB780917507813009F05AC08091740798
:1056A000282F30E080916207882F90E00596281718
:1056B000390791F180917407843170F58091430727
:1056C00090914407FC0109958AE290E02AE230E0DB
:1056D000F90120812860FC0120838AE290E02AE21F
:1056E00030E0F90120812F7EFC0120838AE090E0E8
:1056F0000E949F038CE290E020917407222F30E0FB
:10570000215A384FF9012081FC01208380917407D0
:105710008F5F809374071CC0809145079091460766
:10572000FC0109958AE290E02AE230E0F90120814B
:105730002061FC0120838AE290E02AE230E0F90156
:1057400020812E7FFC012083109273071092750731
:10575000DF91CF9108951F920F920FB60F92009094
:105760005B000F9211242F933F934F935F936F939E
:105770007F938F939F93AF93BF93EF93FF93CF93B9
:10578000DF93CDB7DEB70E94452BDF91CF91FF911C
:10579000EF91BF91AF919F918F917F916F915F91A9
:1057A0004F913F912F910F9000925B000F900FBE91
:1057B0000F901F901895CF93DF9300D00F92CDB725
:1057C000DEB780914A078C5F8B838B81843110F028
:1057D00080E025C01A8219820DC08981882F90E04F
:1057E000895B984FFC0180819A81890F8A83898126
:1057F0008F5F898381E029819B81291708F080E0F0
:10580000882359F78B81882F90E0895B984FFC01A2
:1058100090818A81981711F481E001C080E00F9097
:105820000F900F90DF91CF9108951F920F920FB6B6
:105830000F9200905B000F9211242F933F934F9390
:105840005F936F937F938F939F93AF93BF93EF93E8
:10585000FF93CF93DF930F92CDB7DEB78BE290E04B
:10586000FC018081898310925D078981882F90E0F7
:1058700088719070009709F056C08CE290E0FC01AE
:105880008081898380915C07882399F480913E0709
:105890009981981709F04CC080915C07882F90E09F
:1058A000895B984F2981FC01208381E080935C070C
:1058B0003FC080915C07882F90E0895B984F2981D9
:1058C000FC01208380915C078F5F80935C0780914F
:1058D0005C07853068F180915C07282F30E080916B
:1058E0004A07882F90E005962817390721F0809104
:1058F0005C078531E9F410925C070E94DB2B982F3E
:1059000081E0913009F080E0882391F080913F0799
:1059100090914007009761F080913F079091400778
:10592000FC01099505C08CE290E0FC01808189832F
:105930000F90DF91CF91FF91EF91BF91AF919F9128
:105940008F917F916F915F914F913F912F910F9028
:1059500000925B000F900FBE0F901F901895CF9391
:10596000DF93CDB7DEB780915D07893031F48AE0EF
:1059700080935D0710925C0709C080915D078A30B3
:1059800029F080915D078F5F80935D07DF91CF9154
:105990000895CF93DF93CDB7DEB70E94AF2CDF9190
:1059A000CF910895CF92DF92EF92FF920F931F93C2
:1059B000CF93DF9300D0CDB7DEB710929A0A81E67D
:1059C00090E0FC01108282E690E02FEFFC01208342
:1059D0001A8219820BC082E690E02FEFFC0120832F
:1059E000A89589819A8101969A83898321E089818A
:1059F0009A81843691050CF020E0222361F70000A3
:105A00001092990A1092980A80E290E0FC0180813D
:105A1000809583708F5D809377078091770728E268
:105A20003DE202E410E3ABE5B0E3EBE6F0E360E077
:105A300040E17D016F010E94D5290F900F90DF9109
:105A4000CF911F910F91FF90EF90DF90CF9008952D
:105A50002F923F924F925F926F927F928F929F927E
:105A6000AF92BF92CF92DF92EF92FF920F931F936C
:105A7000CF93DF93CDB7DEB760970FB6F894DEBF54
:105A80000FBECDBF80914907882F90E088379105E0
:105A9000A1F18937910524F48530910549F0C8C1F9
:105AA0008A39910509F443C0813A9105D9F1C0C101
:105AB000309148072091770700D000D000D08DB7F3
:105AC0009EB70196FC013083FC01218328E7FC018D
:105AD000228321E0FC01238325E030E0FC013583B3
