:100000000C9408020C9427020C9427020C942702EB
:100010000C9427020C9427020C9427020C942702BC
:100020000C9427020C94C3300C9427020C942702E2
:100030000C9427020C9427020C9427020C9427029C
:100040000C9427020C9427020C94692B0C94270221
:100050000C94FF2A0C94D4020C9427020C942702CF
:100060000C9427020C9427020C9427020C9427026C
:100070000C9427020C9427020C9427020C9427025C
:100080000C9427020C9427020C942702491B7D191B
:10009000DF1BBC1811174117741C741C741C741CD2
:1000A000131AAE1A2F181F19741CE71B741C741C2A
:1000B000741C741C941BC819B6179C18741C741CEF
:1000C000741C741C741C741C741C741C741C741CB0
:1000D000741C741C741C741C741C741C741C741CA0
:1000E000741C741C741C741C741C741C741C741C90
:1000F000741C741C741C741C741C741C741C741C80
:10010000741C741C741C741C741C741C741C741C6F
:10011000741C741C741C741C741C741C741C741C5F
:10012000741C741C741C741C741C741C741C741C4F
:10013000741C741C741C741C741C741C741C741C3F
:10014000741C741C741C741C741C741C741C741C2F
:10015000741C741C741C741C741C741C741C741C1F
:10016000741C741C741C741C741C741C741C741C0F
:10017000741C741C741C741C741C741C741C741CFF
:10018000741C741C741C741C741C741C6C1BA019CF
:10019000741C741C741C741C741C741C741C741CDF
:1001A0004C1AE71A741C741C741C741C741C741C88
:1001B000741C741CB71BEB19AB1EBB1D3D1FAE1D81
:1001C000E21C3D1F3D1F3D1F3D1F3D1F331E6F1E87
:1001D0006B1D3D1F3D1F3D1F3D1F3D1F3D1F3D1F13
:1001E000E71EF71D351DA11D3D1F3D1F3D1F3D1F76
:1001F0003D1F3D1F3D1F3D1F3D1F3D1F3D1F3D1F1F
:100200003D1F3D1F3D1F3D1F3D1F3D1F3D1F3D1F0E
:100210003D1F3D1F3D1F3D1F3D1F3D1F3D1F3D1FFE
:100220003D1F3D1F3D1F3D1F3D1F3D1F3D1F3D1FEE
:100230003D1F3D1F3D1F3D1F3D1F3D1F3D1F3D1FDE
:100240003D1F3D1F3D1F3D1F3D1F3D1F3D1F3D1FCE
:100250003D1F3D1F3D1F3D1F3D1F3D1F3D1F3D1FBE
:100260003D1F3D1F3D1F3D1F3D1F3D1F3D1F3D1FAE
:100270003D1F3D1F3D1F3D1F3D1F3D1F3D1F3D1F9E
:100280003D1F3D1F3D1F3D1F3D1F3D1F3D1F3D1F8E
:100290003D1F3D1F3D1F3D1F3D1F3D1F3D1F3D1F7E
:1002A0003D1F3D1F3D1F3D1F3D1F3D1F3D1F3D1F6E
:1002B0003D1F3D1F3D1F3D1FC91ED91D3D1F3D1F39
:1002C0003D1F3D1F3D1F3D1F3D1F3D1F511E8D1EEC
:1002D0003D1F3D1F3D1F3D1F3D1F3D1F3D1F3D1F3E
:1002E000051F151EE8234422E324F3210620B12034
:1002F000E324E324E324E32416237F23582121224B
:10030000AB1F3420E324E324E324E3245124AD226F
:10031000DF20C521E324E324E324E324E324E324CE
:10032000E324E324E324E324E324E324E324E32495
:10033000E324E324E324E324E324E324E324E32485
:10034000E324E324E324E324E324E324E324E32475
:10035000E324E324E324E324E324E324E324E32465
:10036000E324E324E324E324E324E324E324E32455
:10037000E324E324E324E324E324E324E324E32445
:10038000E324E324E324E324E324E324E324E32435
:10039000E324E324E324E324E324E324E324E32425
:1003A000E324E324E324E324E324E324E324E32415
:1003B000E324E324E324E324E324E324E324E32405
:1003C000E324E324E324E324E324E324E324E324F5
:1003D000E324E324E324E324E324E324E324E324E5
:1003E000E324E32433248F22E324E324E324E324DB
:1003F000E324E324E324E3246123CA23E324E32462
:10040000E3248F20E324E324E324E3249C24F82240
:1004100011241FBECFEFD0E1DEBFCDBF14E0A0E0BE
:10042000B1E0ECECF2E600E00BBF02C007900D92E9
:10043000A437B107D9F71AE0A4E7B4E001C01D92D0
:10044000A537B107E1F70E9471300C9464310C9428
:100450000000CF93DF930F92CDB7DEB719820DC0A6
:100460008981882F90E0880F991F8C589B4FFC0141
:100470001182108289818F5F898381E09981983010
:1004800008F080E0882361F783E68093000181E62D
:1004900090E0FC01108282E690E0FC01108287E28D
:1004A00090E0FC01108280E490E020E430E0F9016B
:1004B00020812F7EFC01208386E290E02DE8FC0164
:1004C00020838FE093E00E940F310F90DF91CF9156
:1004D0000895CF93DF93CDB7DEB7809100018336C7
:1004E000D1F180910001873019F41092000105C00C
:1004F000809100018F5F8093000180910001882F1F
:1005000090E0880F991F8C589B4FFC01808191814E
:1005100021E0009709F020E0222319F787E290E01C
:1005200027E230E0F9012081207EFC01208387E270
:1005300090E027E230E0F901308120910001232B87
:10054000FC01208386E290E026E230E0F901208180
:100550002064FC012083DF91CF910895CF93DF9336
:1005600000D00F92CDB7DEB79A8389836B838B81DE
:100570008830A0F48B81882F90E0880F991F8C58C9
:100580009B4F29813A81FC013183208380910001B6
:10059000833621F4109200010E9469020F900F909F
:1005A0000F90DF91CF9108951F920F920FB60F9287
:1005B00000905B000F9211242F933F934F935F9312
:1005C0006F937F938F939F93AF93BF93EF93FF931B
:1005D000CF93DF93CDB7DEB780910001882F90E0F5
:1005E000880F991F8C589B4FFC0180819181FC01E1
:1005F0000995DF91CF91FF91EF91BF91AF919F91BD
:100600008F917F916F915F914F913F912F910F90BB
:1006100000925B000F900FBE0F901F901895CF9324
:10062000DF93CDB7DEB70E946902DF91CF910895C5
:10063000CF93DF9300D000D000D0CDB7DEB79E833C
:100640008D831C821B8218C01A82198206C000008A
:1006500089819A8101969A83898321E089819A818F
:1006600034E08A3193070CF020E0222381F78B815C
:100670009C8101969C838B838D819E819C012F5F41
:100680003F4F41E08B819C81821793070CF040E043
:100690004423D1F626960FB6F894DEBF0FBECDBF29
:1006A000DF91CF910895CF93DF9300D000D000D099
:1006B000CDB7DEB79E838D831C821B8217C01A8242
:1006C000198206C0000089819A8101969A838983E4
:1006D00021E089819A81853591050CF020E0222363
:1006E00089F78B819C8101969C838B838D819E8170
:1006F0009C012F5F3F4F41E08B819C8182179307C4
:100700000CF040E04423D9F626960FB6F894DEBFED
:100710000FBECDBFDF91CF910895CF93DF9300D06F
:1007200000D000D0CDB7DEB79E838D831C821B82A4
:1007300017C01A82198206C0000089819A81019629
:100740009A83898321E089819A81863091050CF012
:1007500020E0222389F78B819C8101969C838B83E7
:100760008D819E819C012F5F3F4F41E08B819C8159
:10077000821793070CF040E04423D9F626960FB673
:10078000F894DEBF0FBECDBFDF91CF910895CF9318
:10079000DF93CDB7DEB710928604109285041092D5
:1007A000840488ED93E00E940F31DF91CF9108958A
:1007B000CF93DF93CDB7DEB7809185049091860407
:1007C000009719F41092840409C0809185049091D7
:1007D000860401979093860480938504DF91CF91DE
:1007E0000895CF93DF9300D0CDB7DEB79A83898386
:1007F00081E08093840489819A8190938604809318
:10080000850401C0A8959091840481E0992309F49E
:1008100080E08823B9F70F900F90DF91CF91089572
:10082000CF93DF93CDB7DEB787E390E027E330E0E7
:10083000F9012081207CFC01208388E390E028E3FB
:1008400030E0F90120812F63FC01208382E290E0F7
:1008500022E230E0F90120812F71FC01208383E244
:1008600090E023E230E0F9012081206EFC0120833A
:100870001092970489EA95E00E940F311092940437
:100880000DC080919404882F90E086579B4FFC0107
:100890001082809194048F5F8093940490919404CB
:1008A00081E09A3008F080E0882359F71092940490
:1008B00081E090E00E9473048093870482E090E0DE
:1008C0000E9473048093880483E090E00E94730484
:1008D00080938904109296041092950480E090E031
:1008E000DF91CF910895CF93DF9300D000D0CDB7A3
:1008F000DEB79C838B838B819C818230910509F4C8
:1009000045C08330910509F47EC08130910509F01E
:10091000B7C082E290E022E230E0F9012081206855
:10092000FC01208382E290E022E230E0F9012081A4
:100930002F79FC01208383E290E023E230E0F9018B
:1009400020812F77FC01208383E290E023E230E0D6
:10095000F90120812066FC012083000000000000D6
:100960000000000000000000000000000000000087
:100970000000000000000000000000000000000077
:10098000000000000000000000007AC082E290E059
:1009900022E230E0F90120812064FC01208382E220
:1009A00090E022E230E0F90120812F75FC012083E4
:1009B00083E290E023E230E0F90120812F7BFC010B
:1009C000208383E290E023E230E0F9012081206A75
:1009D000FC01208300000000000000000000000077
:1009E0000000000000000000000000000000000007
:1009F00000000000000000000000000000000000F7
:100A0000000000003DC082E290E022E230E0F90107
:100A100020812062FC01208382E290E022E230E02B
:100A2000F90120812F73FC01208383E290E023E20F
:100A300030E0F90120812F7DFC01208383E290E0EA
:100A400023E230E0F9012081206CFC0120830000CA
:100A50000000000000000000000000000000000096
:100A60000000000000000000000000000000000086
:100A70000000000000000000000000000000000076
:100A8000198286E390E0FC0180818F738A838A81DA
:100A9000882F90E081709070880F991F82959295B1
:100AA000907F9827807F9827982F8981892B898329
:100AB0008A81882F90E082709070880F991F880F2C
:100AC000991F880F991F982F8981892B89838A8183
:100AD000882F90E084709070880F991F982F8981DB
:100AE000892B89838A81882F90E0887090709595F2
:100AF0008795982F8981892B89838A81882F90E017
:100B00008071907095958795959587959595879522
:100B1000982F8981892B89838A81882F90E0807220
:100B200090709595879595958795959587959595C9
:100B3000879595958795982F8981892B89838981B8
:100B4000882F90E00F900F900F900F90DF91CF9132
:100B50000895CF93DF93CDB7DEB780919504909140
:100B600096048233910539F41092960410929504FC
:100B70000E94E30509C08091950490919604019626
:100B80009093960480939504DF91CF910895CF932D
:100B9000DF930F92CDB7DEB78983809194048A30BA
:100BA00071F080919404882F90E086579B4F2981A3
:100BB000FC012083809194048F5F809394040F90B4
:100BC000DF91CF910895CF93DF9300D000D0CDB7C0
:100BD000DEB781E090E00E947304898390918704DE
:100BE000898189278A8399818A8189238B8390913E
:100BF00087048A8189238C838B81882F90E0817080
:100C00009070882319F08BE80E94C7058B81882F8C
:100C100090E08270907021E0009709F420E0222398
:100C200019F08CE80E94C7058B81882F90E08470B2
:100C3000907021E0009709F420E0222319F08DE85C
:100C40000E94C7058B81882F90E08870907021E00A
:100C5000009709F420E0222319F08EE80E94C705CE
:100C60008B81882F90E08071907021E0009709F4CB
:100C700020E0222319F08FE80E94C7058B81882F7E
:100C800090E08072907021E0009709F420E0222328
:100C900019F080E90E94C7058C81882F90E081704F
:100CA0009070882319F08BE00E94C7058C81882FF3
:100CB00090E08270907021E0009709F420E02223F8
:100CC00019F08CE00E94C7058C81882F90E0847019
:100CD000907021E0009709F420E0222319F08DE0C4
:100CE0000E94C7058C81882F90E08870907021E069
:100CF000009709F420E0222319F08EE00E94C70536
:100D00008C81882F90E08071907021E0009709F429
:100D100020E0222319F08FE00E94C7058C81882FE4
:100D200090E08072907021E0009709F420E0222387
:100D300019F080E10E94C70589818093870482E0D1
:100D400090E00E94730489839091880489818927A7
:100D50008A8399818A8189238B83909188048A81EF
:100D600089238C838B81882F90E0817090708823F9
:100D700019F085E90E94C7058B81882F90E0827069
:100D8000907021E0009709F420E0222319F086E911
:100D90000E94C7058B81882F90E08470907021E0BD
:100DA000009709F420E0222319F087E90E94C70583
:100DB0008B81882F90E08870907021E0009709F473
:100DC00020E0222319F088E90E94C7058B81882F33
:100DD00090E08071907021E0009709F420E02223D8
:100DE00019F089E90E94C7058B81882F90E08072F5
:100DF000907021E0009709F420E0222319F08AE99D
:100E00000E94C7058C81882F90E0817090708823A4
:100E100019F085E10E94C7058C81882F90E08270CF
:100E2000907021E0009709F420E0222319F086E178
:100E30000E94C7058C81882F90E08470907021E01B
:100E4000009709F420E0222319F087E10E94C705EA
:100E50008C81882F90E08870907021E0009709F4D1
:100E600020E0222319F088E10E94C7058C81882F99
:100E700090E08071907021E0009709F420E0222337
:100E800019F089E10E94C7058C81882F90E080725B
:100E9000907021E0009709F420E0222319F08AE104
:100EA0000E94C70589818093880483E090E00E94B6
:100EB0007304898390918904898189278A83998120
:100EC0008A8189238B83909189048A8189238C83E9
:100ED0008B81882F90E081709070882319F08FE9C2
:100EE0000E94C7058B81882F90E08270907021E06E
:100EF000009709F420E0222319F080EA0E94C70538
:100F00008B81882F90E08470907021E0009709F425
:100F100020E0222319F081EA0E94C7058B81882FE7
:100F200090E08870907021E0009709F420E022237F
:100F300019F082EA0E94C7058B81882F90E08071AA
:100F4000907021E0009709F420E0222329F080919D
:100F500097048170809397048B81882F90E0807232
:100F6000907021E0009709F420E0222329F080917D
:100F700097048270809397048C81882F90E0817011
:100F80009070882319F08FE10E94C7058C81882F0B
:100F900090E08270907021E0009709F420E0222315
:100FA00019F080E20E94C7058C81882F90E0847040
:100FB000907021E0009709F420E0222319F081E2EB
:100FC0000E94C7058C81882F90E08870907021E086
:100FD000009709F420E0222319F082E20E94C7055D
:100FE0008C81882F90E08071907021E0009709F447
:100FF00020E0222329F08091970482608093970457
:101000008C81882F90E08072907021E0009709F425
:1010100020E0222329F08091970481608093970437
:1010200089818093890482E290E022E230E0F90134
:1010300020812F71FC01208383E290E023E230E0E5
:10104000F9012081206EFC0120830F900F900F90FA
:101050000F90DF91CF910895CF93DF93CDB7DEB797
:1010600080919404882371F080919404815080933E
:10107000940480919404882F90E086579B4FFC0144
:10108000808101C080E0DF91CF910895CF93DF93FD
:10109000CDB7DEB780919404882351F080919404F9
:1010A000882F90E0019786579B4FFC01808101C0FB
:1010B00080E0DF91CF910895CF93DF93CDB7DEB776
:1010C00010929404DF91CF910895CF93DF93CDB721
:1010D000DEB780919704DF91CF910895CF93DF938E
:1010E000CDB7DEB780919704882F90E08270907022
:1010F000009711F480E001C081E0DF91CF91089565
:10110000CF93DF93CDB7DEB780919704882F90E01F
:1011100081709070009711F480E001C081E0DF9150
:10112000CF910895CF93DF9300D0CDB7DEB78A83F8
:1011300080E889835BC0A89582E390E022E330E0F9
:10114000F90120812F7DFC01208382E390E022E3DE
:1011500030E0F90120812064FC0120838A81813004
:1011600051F482E390E022E330E0F901208120682D
:10117000FC01208309C082E390E022E330E0F90122
:1011800020812068FC0120830E94A10989838A8133
:10119000813051F482E390E022E330E0F9012081D4
:1011A0002F77FC01208309C082E390E022E330E046
:1011B000F90120812F77FC01208382E390E022E374
:1011C00030E0F90120812F7BFC01208384E390E053
:1011D000FC01808184E390E0FC01108285E390E0D3
:1011E000FC01808185E390E0FC0110828981881FE9
:1011F0008827881F882F90E0907021E0009709F4DD
:1012000020E0222309F097CF0F900F90DF91CF912C
:101210000895CF93DF93CDB7DEB710929904109263
:10122000980481E390E021E330E0F90120812C6013
:10123000FC01208382E390E022E330E0F901208189
:101240002C60FC01208384E690E024E630E0F90184
:1012500020812F61FC01208385E690E025E630E0C7
:10126000F90120812F61FC01208381E390E021E3DB
:1012700030E0F9012081206EFC01208384E390E0BE
:10128000FC01808184E390E0FC01108285E390E022
:10129000FC01808185E390E0FC0110828FE090E00A
:1012A0000E94F10380E361E00E94BC098FE090E0BE
:1012B0000E94F10380E361E00E94BC098FE090E0AE
:1012C0000E94F10380E361E00E94BC0981E00E947A
:1012D000920888E361E00E94BC0981E00E949208C4
:1012E0008CE061E00E94BC0981E00E94920886E0E7
:1012F00061E00E94BC0981E00E94920881E061E007
:101300000E94BC098EEF9CE00E940F31DF91CF91CB
:101310000895CF93DF930F92CDB7DEB7898384E32F
:1013200090E0FC01808184E390E02FEFFC012083BA
:1013300085E390E02981FC0120830F90DF91CF911C
:101340000895CF93DF93CDB7DEB784E390E0FC013F
:10135000808184E390E0FC01108285E390E0FC0151
:10136000808185E390E0FC01108283E390E0FC0142
:101370008081DF91CF910895CF93DF9300D0CDB7D7
:10138000DEB789836A8382E390E022E330E0F901EB
:1013900020812F7DFC01208382E390E022E330E076
:1013A000F90120812F7BFC0120838A81813051F457
:1013B00082E390E022E330E0F90120812068FC0123
:1013C000208309C082E390E022E330E0F90120812C
:1013D0002068FC01208389810E9489098A818130EB
:1013E00051F482E390E022E330E0F90120812F778D
:1013F000FC01208309C082E390E022E330E0F901A0
:1014000020812F77FC01208384E390E0FC01808120
:1014100084E390E0FC01108285E390E0FC01808190
:1014200085E390E0FC0110820F900F90DF91CF9147
:101430000895CF93DF9300D0CDB7DEB789836A8359
:1014400082E390E022E330E0F90120812062FC0198
:10145000208382E390E022E330E0F90120812F7BBA
:10146000FC0120838A81813051F482E390E022E301
:1014700030E0F90120812068FC01208309C082E36B
:1014800090E022E330E0F90120812068FC01208314
:1014900089810E9489098A81813051F482E390E038
:1014A00022E330E0F90120812F77FC01208309C07D
:1014B00082E390E022E330E0F90120812F77FC0104
:1014C000208384E390E0FC01808184E390E0FC01D0
:1014D000108285E390E0FC01808185E390E0FC01CF
:1014E00010820F900F90DF91CF910895CF93DF93EB
:1014F00000D0CDB7DEB789836A838A81882F90E0D8
:101500008F5F9E4FFC0180818A838981803188F4BE
:1015100081E00E94920889818058806861E00E9481
:10152000BC0981E00E9492088A8161E00E94190A48
:1015300038C08981803288F481E00E9492088981D4
:101540008055806861E00E94BC0981E00E94920899
:101550008A8161E00E94190A24C08981803388F45D
:1015600081E00E94920889818059806861E00E9430
:10157000BC0981E00E9492088A8161E00E94190AF8
:1015800010C081E00E94920889818056806861E0E5
:101590000E94BC0981E00E9492088A8161E00E9459
:1015A000190A0F900F90DF91CF910895CF93DF9399
:1015B000CDB7DEB781E061E00E94BC09DF91CF9139
:1015C0000895CF93DF9300D000D00F92CDB7DEB750
:1015D0008B837D836C8319828981882F90E02C8195
:1015E0003D81820F931FFC0180818A8313C09B8100
:1015F0008981890F6A810E94760A89818F5F898338
:101600008981882F90E02C813D81820F931FFC01FE
:1016100080818A8381E09A81992309F480E088237C
:1016200031F70F900F900F900F900F90DF91CF91A7
:101630000895CF93DF9300D000D00F92CDB7DEB7DF
:101640008C836D838D8194E6692F0E94313189836B
:101650008D81282F30E08981682F70E04CE95FEFA1
:10166000649FC001659F900D749F900D1124820F9F
:10167000931F2AE030E0B9010E9451319B01C9015A
:101680008A838A81880F982F990F990F890F8195E6
:1016900029819CE9299F902D1124980F8D81890F14
:1016A0008B8389818823A1F48A81882389F48C81A2
:1016B00060E20E94760A8C818F5F60E20E94760A67
:1016C0008C818E5F9B81905D692F0E94760A2BC072
:1016D0008981882399F48C8160E20E94760A8C814A
:1016E0008F5F9A81905D692F0E94760A8C818E5F50
:1016F0009B81905D692F0E94760A15C08981982F81
:10170000905D8C81692F0E94760A8C818F5F9A810F
:10171000905D692F0E94760A8C818E5F9B81905D1F
:10172000692F0E94760A0F900F900F900F900F90E4
:10173000DF91CF910895CF93DF9300D000D00F9227
:10174000CDB7DEB78C836D838D8194E6692F0E94BF
:10175000313189838D81282F30E08981682F70E0B5
:101760004CE95FEF649FC001659F900D749F900DE1
:101770001124820F931F2AE030E0B9010E945131F9
:101780009B01C9018A838A81880F982F990F990F2D
:10179000890F819529819CE9299F902D1124980F0B
:1017A0008D81890F8B838981882341F08981982FCE
:1017B000905D8C81692F0E94760A04C08C8160E262
:1017C0000E94760A8C818F5F9A81905D692F0E94BA
:1017D000760A8C818E5F6CE20E94760A8C818D5F26
:1017E0009B81905D692F0E94760A0F900F900F9059
:1017F0000F900F90DF91CF910895CF93DF93CDB7E6
:10180000DEB72B970FB6F894DEBF0FBECDBF89872A
:101810007B876A878A859B8528EE33E0B9010E9421
:101820003D319B013A83298349815A8128EE33E077
:10183000429FC001439F900D529F900D11242A8515
:101840003B85A901481B590BCA0124E630E0B901C8
:101850000E943D319B013C832B834B815C8124E6BC
:1018600030E0429FC001439F900D529F900D112484
:101870002A853B85A901481B590BCA012AE030E0A3
:10188000B9010E943D319B013E832D834B815C81D8
:1018900024E630E0429FC001439F900D529F900D7F
:1018A00011242A853B85281B390B8D819E81880F49
:1018B000991FAC01440F551F440F551F840F951FEE
:1018C000A901481B590BCA0198878F8389819A8186
:1018D000009741F08981982F905D8985692F0E943A
:1018E000760A04C0898560E20E94760A8B819C8119
:1018F000009741F089858F5F9B81905D692F0E94E1
:10190000760A05C089858F5F60E20E94760A898524
:101910008E5F9D81905D692F0E94760A89858D5F1B
:101920006CE20E94760A89858C5F9F81905D692FA9
:101930000E94760A2B960FB6F894DEBF0FBECDBF7D
:10194000DF91CF910895CF93DF9300D000D0CDB732
:10195000DEB78B836C838C819AE0692F0E943131D2
:1019600089838981880F982F990F990F890F819505
:101970009C81890F8A838981882341F08981982FEE
:10198000905D8B81692F0E94760A04C08B8160E292
:101990000E94760A8B818F5F9A81905D692F0E94E9
:1019A000760A0F900F900F900F90DF91CF910895CE
:1019B000CF93DF9300D000D0CDB7DEB78B836C839D
:1019C0008C819AE0692F0E94313189838981880F47
:1019D000982F990F990F890F81959C81890F8A8380
:1019E0008A81982F905D8B81692F0E94760A0F90D3
:1019F0000F900F900F90DF91CF910895CF93DF93C9
:101A0000CDB7DEB780919804909199048A30910502
:101A100091F481E390E021E330E0F901208120613D
:101A2000FC01208382E390E022E330E0F901208191
:101A30002F7EFC0120838091980490919904863137
:101A40009105B1F481E390E021E330E0F9012081D8
:101A50002061FC01208382E390E022E330E0F90181
:101A600020812061FC012083109299041092980437
:101A70008091980490919904019690939904809391
:101A80009804DF91CF910895CF93DF930F92CDB754
:101A9000DEB71092D2061092D1061092D4061092A0
:101AA000D3061092CF061092D00621E032E080E0FB
:101AB000B9010E94E10A85E060E00E94A30C19824E
:101AC000D7C08981282F30E0C90182959295907FF7
:101AD0009827807F9827820F931F82569B4FFC0187
:101AE00010828981282F30E0C90182959295907FDC
:101AF0009827807F9827820F931F81569B4FFC0168
:101B0000118210828981282F30E0C9018295929537
:101B1000907F9827807F9827820F931F8F559B4F28
:101B2000FC01118210828981282F30E0C901829541
:101B30009295907F9827807F9827820F931F8D55CD
:101B40009B4FFC0110828981282F30E0C9018295CA
:101B50009295907F9827807F9827820F931F8C55AE
:101B60009B4FFC0110828981282F30E0C9018295AA
:101B70009295907F9827807F9827820F931F8B558F
:101B80009B4F27E0FC0120838981282F30E0C90189
:101B900082959295907F9827807F9827820F931F38
:101BA0008A559B4FFC01118210828981282F30E0D9
:101BB000C90182959295907F9827807F9827820F00
:101BC000931F88559B4FFC0110828981282F30E09C
:101BD000C90182959295907F9827807F9827820FE0
:101BE000931F87559B4FFC0110828981282F30E07D
:101BF000C90182959295907F9827807F9827820FC0
:101C0000931F86559B4FFC0110828981282F30E05D
:101C1000C90182959295907F9827807F9827820F9F
:101C2000931F85559B4FFC0110828981282F30E03E
:101C3000C90182959295907F9827807F9827820F7F
:101C4000931F84559B4FFC0110828981282F30E01F
:101C5000C90182959295907F9827807F9827820F5F
:101C6000931F83559B4FFC01108289818F5F89836D
:101C700081E09981913208F080E0882309F021CF3A
:101C80001092D50684E298E20E940F310F90DF9106
:101C9000CF910895CF93DF9300D0CDB7DEB79A836D
:101CA000898389819A81FC018081881F8827881F08
:101CB0008093BE0689819A81FC018081882F90E003
:101CC00080749070082E892F000C881F990B000CCF
:101CD000881F991F8093AD0689819A81FC018081BC
:101CE000882F90E08072907095958795959587954F
:101CF00095958795959587959595879580939C065D
:101D000089819A81FC018081882F90E08071907098
:101D100095958795959587959595879595958795AB
:101D200080938B0689819A81FC018081882F90E0C5
:101D300088709070959587959595879595958795D9
:101D400080937A0689819A81FC018081882F90E0B6
:101D50008470907095958795959587958093690681
:101D600089819A81FC018081882F90E08270907037
:101D7000959587958093580689819A81FC01808189
:101D800081708093470689819A810196FC01808148
:101D9000881F8827881F8093360689819A8101963B
:101DA000FC018081882F90E080749070082E892F2C
:101DB000000C881F990B000C881F991F8093250623
:101DC00089819A810196FC018081882F90E0807240
:101DD0009070959587959595879595958795959507
:101DE0008795959587958093140689819A810196A8
:101DF000FC018081882F90E0807190709595879587
:101E000095958795959587959595879580930306E4
:101E100089819A810196FC018081882F90E08870E9
:101E200090709595879595958795959587958093CD
:101E3000F20589819A810196FC018081882F90E0CA
:101E40008470907095958795959587958093E10519
:101E500089819A810196FC018081882F90E08270AF
:101E60009070959587958093D00589819A81019688
:101E7000FC01808181708093BF0589819A810296DF
:101E8000FC018081881F8827881F8093AE05898187
:101E90009A810296FC018081882F90E08074907076
:101EA000082E892F000C881F990B000C881F991F82
:101EB00080939D0589819A810296FC018081882FFB
:101EC00090E08072907095958795959587959595FA
:101ED0008795959587959595879580938C058981AC
:101EE0009A810296FC018081882F90E08071907029
:101EF00095958795959587959595879595958795CA
:101F000080937B0589819A810296FC018081882FCC
:101F100090E08870907095958795959587959595A3
:101F2000879580936A0589819A810296FC01808158
:101F3000882F90E0847090709595879595958795FA
:101F40008093590589819A810296FC018081882FAE
:101F500090E082709070959587958093480589816F
:101F60009A810296FC018081817080933705898176
:101F70009A810396FC018081881F8827881F80939F
:101F8000260589819A810396FC018081882F90E043
:101F900080749070082E892F000C881F990B000CFC
:101FA000881F991F8093150589819A810396FC01EA
:101FB0008081882F90E08072907095958795959597
:101FC0008795959587959595879595958795809310
:101FD000040589819A810396FC018081882F90E015
:101FE000807190709595879595958795959587952E
:101FF000959587958093F30489819A810396FC01D6
:102000008081882F90E08870907095958795959540
:102010008795959587958093E20489819A810396A7
:10202000FC018081882F90E0847090709595879551
:10203000959587958093D10489819A810396FC01B7
:102040008081882F90E0827090709595879580931D
:10205000C00489819A810396FC01808181708093FC
:10206000AF048091BE06282F89819A810596FC01D4
:102070008081881F8827881F822B8093BE068091CD
:10208000AD06282F89819A810596FC018081882FD1
:1020900090E080749070082E892F000C881F990B97
:1020A000000C881F991F822B8093AD0680919C069F
:1020B000282F89819A810596FC018081882F90E0E4
:1020C000807290709595879595958795959587954C
:1020D0009595879595958795822B80939C06809101
:1020E0008B06282F89819A810596FC018081882F93
:1020F00090E08071907095958795959587959595C9
:10210000879595958795822B80938B0680917A068B
:10211000282F89819A810596FC018081882F90E083
:1021200088709070959587959595879595958795E5
:10213000822B80937A0680916906282F89819A8163
:102140000596FC018081882F90E0847090709595B1
:10215000879595958795822B80936906809158067F
:10216000282F89819A810596FC018081882F90E033
:102170008270907095958795822B809358068091F8
:102180004706282F89819A810596FC0180818170FC
:10219000822B8093470680913606282F89819A8169
:1021A0000696FC018081881F8827881F822B8093D8
:1021B000360680912506282F89819A810696FC0192
:1021C0008081882F90E080749070082E892F000CF9
:1021D000881F990B000C881F991F822B809325065E
:1021E00080911406282F89819A810696FC018081AE
:1021F000882F90E08072907095958795959587953A
:10220000959587959595879595958795822B80933C
:10221000140680910306282F89819A810696FC0175
:102220008081882F90E08071907095958795959525
:1022300087959595879595958795822B809303062D
:102240008091F205282F89819A810696FC01808170
:10225000882F90E0887090709595879595958795D3
:1022600095958795822B8093F2058091E105282F23
:1022700089819A810696FC018081882F90E0847084
:1022800090709595879595958795822B8093E1051C
:102290008091D005282F89819A810696FC01808142
:1022A000882F90E08270907095958795822B80930F
:1022B000D0058091BF05282F89819A810696FC015F
:1022C00080818170822B8093BF058091AE05282F7D
:1022D00089819A810796FC018081881F8827881F41
:1022E000822B8093AE0580919D05282F89819A814C
:1022F0000796FC018081882F90E080749070082EF2
:10230000892F000C881F990B000C881F991F822BA6
:1023100080939D0580918C05282F89819A8107964D
:10232000FC018081882F90E0807290709595879550
:102330009595879595958795959587959595879585
:10234000822B80938C0580917B05282F89819A812F
:102350000796FC018081882F90E0807190709595A0
:102360008795959587959595879595958795822BD2
:1023700080937B0580916A05282F89819A81079631
:10238000FC018081882F90E08870907095958795EA
:102390009595879595958795822B80936A05809171
:1023A0005905282F89819A810796FC018081882F01
:1023B00090E0847090709595879595958795822B80
:1023C0008093590580914805282F89819A81079625
:1023D000FC018081882F90E08270907095958795A0
:1023E000822B8093480580913705282F89819A8117
:1023F0000796FC0180818170822B80933705809144
:102400002605282F89819A810896FC018081881FE2
:102410008827881F822B8093260580911505282FF9
:1024200089819A810896FC018081882F90E08074D0
:102430009070082E892F000C881F990B000C881FA4
:10244000991F822B8093150580910405282F89817F
:102450009A810896FC018081882F90E080729070AC
:102460009595879595958795959587959595879554
:1024700095958795822B809304058091F304282FEE
:1024800089819A810896FC018081882F90E0807173
:102490009070959587959595879595958795959540
:1024A0008795822B8093F3048091E204282F898101
:1024B0009A810896FC018081882F90E08870907046
:1024C000959587959595879595958795822B80937A
:1024D000E2048091D104282F89819A810896FC0119
:1024E0008081882F90E08470907095958795959560
:1024F0008795822B8093D1048091C004282F8981F5
:102500009A810896FC018081882F90E082709070FB
:1025100095958795822B8093C0048091AF04282FD6
:1025200089819A810896FC0180818170822B809339
:10253000AF048091CF068823A9F08091CF06282F81
:1025400030E0C90182959295907F9827807F9827E7
:10255000820F931F82569B4FFC018081882311F4C8
:102560000E94B7120F900F90DF91CF910895CF93F3
:10257000DF93CDB7DEB78091CF06803230F4809103
:10258000CF068F5F8093CF060EC01092CF0628E053
:1025900032E080E0B9010E94E10A21E032E080E00F
:1025A000B9010E94E10A8091CF06282F30E0C901CD
:1025B00082959295907F9827807F9827820F931F0E
:1025C00082569B4FFC018081882331F48091CF0695
:1025D000882311F081E001C080E0882361F69091AA
:1025E000CF0685E0692F0E94A30C8091CF06882337
:1025F00099F428E032E080E1B9010E94E10A28E084
:1026000032E080E2B9010E94E10A28E032E080E392
:10261000B9010E94E10A02C00E946214DF91CF91C9
:102620000895CF93DF93CDB7DEB780919A04909150
:102630009B0427E0803D920709F05FC088EB9BE098
:1026400090939B0480939A0480919C0490919D04A4
:102650008130910549F53091CF0620910F0700D0C8
:1026600000D000D08DB79EB70196FC013083FC01ED
:10267000218327E6FC01228321E0FC01238321E062
:1026800030E0FC01358324830E94852E8DB79EB7F0
:1026900006960FB6F8949EBF0FBE8DBF8091D006F0
:1026A0008F5F8093D0065EC03091CF0620910F07D8
:1026B00000D000D000D08DB79EB70196FC013083CA
:1026C000FC01218327E6FC01228321E0FC01238316
:1026D00022E030E0FC01358324830E94852E8DB7F3
:1026E0009EB706960FB6F8949EBF0FBE8DBF809121
:1026F000D0068F5F8093D00635C08091CF06282FFB
:1027000030E0C90182959295907F9827807F982725
:10271000820F931F86559B4FFC018081882F90E08C
:1027200082309105B1F08330910534F4009759F06F
:102730008130910559F016C08330910569F08430DD
:10274000910569F00FC00E94F2160CC00E94C31CD4
:1027500009C00E948C1F06C00E94322503C00E943F
:1027600075250000DF91CF910895CF93DF93CDB70A
:10277000DEB78091CF06282F30E0C901829592956F
:10278000907F9827807F9827820F931F87559B4FB4
:10279000FC018081813099F48091CF06282F30E0B0
:1027A000C90182959295907F9827807F9827820F04
:1027B000931F87559B4F27E0FC0120837EC08091AB
:1027C000CF06282F30E0C90182959295907F9827F7
:1027D000807F9827820F931F87559B4FFC01808134
:1027E000873099F48091CF06282F30E0C901829577
:1027F0009295907F9827807F9827820F931F875507
:102800009B4F22E0FC01208358C08091CF06282FE7
:1028100030E0C90182959295907F9827807F982714
:10282000820F931F87559B4FFC018081853008F5EF
:102830008091CF06282F30E0C90182959295907F34
:102840009827807F9827820F931F87559B4FFC0105
:102850008081482F4F5FC90182959295907F98277C
:10286000807F9827820F931F87559B4FFC014083E1
:1028700024C08091CF06282F30E0C901829592951F
:10288000907F9827807F9827820F931F87559B4FB3
:10289000FC018081853089F48091CF06282F30E0BB
:1028A000C90182959295907F9827807F9827820F03
:1028B000931F87559B4FFC0110820E946214DF9189
:1028C000CF910895CF93DF93CDB7DEB78091CF0638
:1028D000882309F4F8C18091CF06282F30E0C90180
:1028E00082959295907F9827807F9827820F931FDB
:1028F00087559B4FFC018081882F90E083309105A4
:1029000009F4F6C08430910554F481309105B1F199
:10291000823091050CF0BEC0009791F05DC185300A
:10292000910509F41FC1853091050CF4FFC0863074
:10293000910509F435C18730910509F465C04CC192
:1029400029E132E080E2B9010E94E10A8091CF06DC
:10295000282F30E0C90182959295907F9827807F3B
:102960009827820F931F81569B4FFC018081918194
:10297000982F85E2692F0E949B0B2EC12AE232E03C
:1029800080E2B9010E94E10A8091CF06282F30E051
:10299000C90182959295907F9827807F9827820F12
:1029A000931F85559B4FFC018081882F90E08130DB
:1029B0009105A1F0823091051CF4009741F023C0ED
:1029C0008230910591F083309105B1F01CC02BE36A
:1029D00032E089E2B9010E94E10A15C024E432E044
:1029E00089E2B9010E94E10A0EC02DE432E089E2D9
:1029F000B9010E94E10A07C026E532E089E2B90187
:102A00000E94E10A0000E8C02FE532E080E2B9014F
:102A10000E94E10A8091CF06282F30E0C9018295FB
:102A20009295907F9827807F9827820F931F8455D7
:102A30009B4FFC018081882F90E081309105A1F0AF
:102A4000823091051CF4009741F023C0823091053B
:102A500091F083309105B1F01CC02BE332E089E2A4
:102A6000B9010E94E10A15C024E432E089E2B9010B
:102A70000E94E10A0EC02DE432E089E2B9010E9411
:102A8000E10A07C026E532E089E2B9010E94E10AC5
:102A90000000A2C020E732E080E2B9010E94E10A12
:102AA0008091CF06282F30E0C90182959295907FC2
:102AB0009827807F9827820F931F82559B4FFC0198
:102AC0008081882F90E0009721F08130910541F0BE
:102AD0000EC021E832E087E2B9010E94E10A07C096
:102AE0002CE832E087E2B9010E94E10A000074C0DC
:102AF00027E932E080E2B9010E94E10A8091CF0625
:102B0000282F30E0C90182959295907F9827807F89
:102B10009827820F931F8F559B4FFC0180819181D5
:102B2000982F85E2692F0E949B0B56C028EA32E05D
:102B300080E2B9010E94E10A8091CF06282F30E09F
:102B4000C90182959295907F9827807F9827820F60
:102B5000931F8D559B4FFC0190818AE2692F0E9443
:102B6000D80C3AC029EB32E080E2B9010E94E10AB8
:102B70008091CF06282F30E0C90182959295907FF1
:102B80009827807F9827820F931F8B559B4FFC01BE
:102B90008081982F9F5F8AE2692F0E94D80C1CC009
:102BA0002AEC32E080E2B9010E94E10A8091CF066E
:102BB000282F30E0C90182959295907F9827807FD9
:102BC0009827820F931F83559B4FFC0190818AE2C7
:102BD000692F0E94190B00008091CF06282F30E04A
:102BE000C90182959295907F9827807F9827820FC0
:102BF000931F86559B4FFC018081882F90E0823087
:102C0000910509F44BC08330910534F4009769F0C5
:102C100081309105E1F157C08330910509F445C039
:102C20008430910509F448C04EC08091CF06282F0A
:102C300030E0C90182959295907F9827807F9827F0
:102C4000820F931F8C559B4FFC018081813039F49A
:102C50002BED32E080E3B9010E94E10A34C080919B
:102C6000CF06282F30E0C90182959295907F982752
:102C7000807F9827820F931F8C559B4FFC011082F9
:102C800028E032E080E3B9010E94E10A1CC02CEE8A
:102C900032E080E3B9010E94E10A15C02DEF32E075
:102CA00080E3B9010E94E10A0EC02EE033E080E328
:102CB000B9010E94E10A07C02FE133E080E3B901C6
:102CC0000E94E10A0000DF91CF910895CF93DF9336
:102CD0000F92CDB7DEB789838981882F90E082304B
:102CE000910509F44BC08330910534F4009769F0E5
:102CF0008130910559F160C08330910509F444C0D9
:102D00008430910509F44CC057C08091D0068823C7
:102D100029F08091D00681508093D0068091CF0613
:102D2000282F30E0C90182959295907F9827807F67
:102D30009827820F931F87559B4FFC01108228E034
:102D400032E080E1B9010E94E10A36C08091D006EC
:102D50008F5F8093D0068091CF06282F30E0C90185
:102D600082959295907F9827807F9827820F931F56
:102D700087559B4F26E0FC0120831EC08091D00622
:102D80008F5F8093D00618C08091D0068F5F8093AC
:102D9000D00680E197E29093D2068093D1060CC0D2
:102DA0008091D0068F5F8093D00680E197E2909368
:102DB000D4068093D30600008091CF06282F30E000
:102DC000C90182959295907F9827807F9827820FDE
:102DD000931F86559B4F2981FC0120830F90DF9123
:102DE000CF910895CF93DF93CDB7DEB70E942C0823
:102DF000882F90E0AA2797FDA095BA2F4BE050E0CE
:102E000025E930E0841B950B2817390708F46CC5B9
:102E10008A5B9F4FFC01EE0FFF1F0590F491E02DA0
:102E200009948091CF06282F30E0C90182959295B0
:102E3000907F9827807F9827820F931F8C559B4FF8
:102E4000FC018081882309F028C53091CF062091AC
:102E50000F0700D000D08DB79EB70196FC013083DC
:102E6000FC0121832BE1FC012283FC0113820E94DF
:102E7000852E0F900F900F900F9081E00E946616A4
:102E80000CC50E948008982F81E0913009F080E005
:102E9000882321F13091CF0620910F0700D000D078
:102EA00000D08DB79EB70196FC013083FC012183D1
:102EB00021E2FC01228321E0FC01238326E030E0B3
:102EC000FC01358324830E94852E8DB79EB706961C
:102ED0000FB6F8949EBF0FBE8DBF06C58091CF067A
:102EE000282F30E0C90182959295907F9827807FA6
:102EF0009827820F931F8D559B4FFC01808187304F
:102F000008F58091CF06282F30E0C901829592956F
:102F1000907F9827807F9827820F931F8D559B4F16
:102F2000FC018081482F4F5FC90182959295907F67
:102F30009827807F9827820F931F8D559B4FFC0108
:102F4000408311C08091CF06282F30E0C9018295BF
:102F50009295907F9827807F9827820F931F8D5599
:102F60009B4FFC0110820E946214BEC40E94800824
:102F7000982F81E0913009F080E0882319F00E94B9
:102F8000B5138DC48091CF06282F30E0C9018295FA
:102F90009295907F9827807F9827820F931F8B555B
:102FA0009B4FFC018081873000F58091CF06282F50
:102FB00030E0C90182959295907F9827807F98276D
:102FC000820F931F8B559B4FFC018081482F4F5FD1
:102FD000C90182959295907F9827807F9827820FCC
:102FE000931F8B559B4FFC0140838091CF06882314
:102FF00009F455C45091CF0640910F078091CF0638
:10300000282F30E0C90182959295907F9827807F84
:103010009827820F931F8B559B4FFC018081282F8F
:1030200030E000D000D000D08DB79EB70196FC01F3
:103030005083FC0141834CE0FC01428341E0FC01F0
:103040004383FC01358324830E94852E8DB79EB770
:1030500006960FB6F8949EBF0FBE8DBF20C4809118
:10306000CF06282F30E0C90182959295907F98274E
:10307000807F9827820F931F8B559B4FFC01808187
:10308000882301F18091CF06282F30E0C901829575
:103090009295907F9827807F9827820F931F8B555A
:1030A0009B4FFC018081482F4150C9018295929528
:1030B000907F9827807F9827820F931F8B559B4F77
:1030C000FC0140838091CF06882309F4EAC3509124
:1030D000CF0640910F078091CF06282F30E0C9011D
:1030E00082959295907F9827807F9827820F931FD3
:1030F0008B559B4FFC018081282F30E000D000D001
:1031000000D08DB79EB70196FC015083FC0141832E
:103110004CE0FC01428341E0FC014383FC01358328
:1031200024830E94852E8DB79EB706960FB6F8941D
:103130009EBF0FBE8DBFB5C38091CF06882309F413
:10314000B2C30E946E08982F81E0913009F080E0B0
:10315000882321F083E00E946616A5C30E948008A0
:10316000982F81E0913009F080E0882309F49BC317
:1031700084E00E94661697C30E946E08982F81E033
:10318000913009F080E0882339F18091CF068823BF
:1031900009F48BC33091CF0620910F0700D000D0E7
:1031A00000D08DB79EB70196FC013083FC012183CE
:1031B0002AE0FC01228321E0FC012383FC0115822B
:1031C00014820E94852E8DB79EB706960FB6F8948E
:1031D0009EBF0FBE8DBF69C30E948008982F81E0FB
:1031E000913009F080E0882309F45FC38091CF0615
:1031F000882309F45AC33091CF0620910F0700D0DD
:1032000000D000D08DB79EB70196FC013083FC0141
:1032100021832AE0FC01228321E0FC01238321E0B9
:1032200030E0FC01358324830E94852E8DB79EB744
:1032300006960FB6F8949EBF0FBE8DBF36C3809121
:10324000CF06882309F433C30E946E08982F81E0CB
:10325000913009F080E0882311F13091CF06209160
:103260000F0700D000D000D08DB79EB70196FC01AB
:103270003083FC0121832BE0FC01228321E0FC014F
:103280002383FC01158214820E94852E8DB79EB780
:1032900006960FB6F8949EBF0FBE8DBF08C30E945E
:1032A0008008982F81E0913009F080E0882309F4AC
:1032B000FEC23091CF0620910F0700D000D000D081
:1032C0008DB79EB70196FC013083FC0121832BE072
:1032D000FC01228321E0FC01238321E030E0FC019A
:1032E000358324830E94852E8DB79EB706960FB630
:1032F000F8949EBF0FBE8DBFDAC28091CF0688239F
:1033000009F4D7C23091CF0620910F0700D000D02A
:103310008DB79EB70196FC013083FC01218328E123
:10332000FC012283FC0113820E94852E0F900F90D6
:103330000F900F908091D0068F5F8093D006B9C216
:103340008091CF06882309F4B6C23091CF06209130
:103350000F0700D000D08DB79EB70196FC013083D7
:10336000FC0121832AE1FC012283FC0113820E94DB
:10337000852E0F900F900F900F908091D00688238C
:1033800009F499C28091D00681508093D00693C2EF
:103390008091CF06882309F490C23091CF06209106
:1033A0000F0700D000D08DB79EB70196FC01308387
:1033B000FC01218329E1FC012283FC0113820E948C
:1033C000852E0F900F900F900F908091D0068F5FF9
:1033D0008093D00672C28091CF06882309F46FC211
:1033E0003091CF0620910F0700D000D08DB79EB747
:1033F0000196FC013083FC0121832AE1FC01228338
:10340000FC0113820E94852E0F900F900F900F9059
:103410008091D006882309F452C28091D006815051
:103420008093D0064CC28091CF06882309F449C20C
:103430000E946E08982F81E0913009F080E0882387
:1034400069F081E090E090939B0480939A0481E07E
:1034500090E090939D0480939C0433C23091CF06FA
:1034600020910F0700D000D08DB79EB70196FC01C8
:103470003083FC01218321E1FC012283FC011382C2
:103480000E94852E0F900F900F900F908091D00684
:103490008F5F8093D00615C28091CF06882309F4F0
:1034A00012C280919C0490919D04009719F530916F
:1034B000CF0620910F0700D000D08DB79EB70196A0
:1034C000FC013083FC01218323E1FC012283FC0108
:1034D00013820E94852E0F900F900F900F90809175
:1034E000D006882309F4EFC18091D00681508093E3
:1034F000D006E9C110929D0410929C0410929B0486
:1035000010929A043091CF0620910F0700D000D07E
:1035100000D08DB79EB70196FC013083FC0121835A
:1035200027E6FC01228321E0FC012383FC011582B4
:1035300014820E94852E8DB79EB706960FB6F8941A
:103540009EBF0FBE8DBF8091D006882309F4BBC1FA
:103550008091D00681508093D006B5C18091CF066E
:10356000882309F4B2C10E946E08982F81E091303F
:1035700009F080E0882369F081E090E090939B045B
:1035800080939A0482E090E090939D0480939C0441
:103590009CC13091CF0620910F0700D000D08DB78D
:1035A0009EB70196FC013083FC01218322E1FC01DE
:1035B0002283FC0113820E94852E0F900F900F90A2
:1035C0000F908091D0068F5F8093D0067EC180914E
:1035D000CF06882309F47BC180919C0490919D04BF
:1035E000009719F53091CF0620910F0700D000D039
:1035F0008DB79EB70196FC013083FC01218323E146
:10360000FC012283FC0113820E94852E0F900F90F3
:103610000F900F908091D006882309F458C18091B3
:10362000D00681508093D00652C110929D04109212
:103630009C0410929B0410929A043091CF06209122
:103640000F0700D000D000D08DB79EB70196FC01C7
:103650003083FC01218327E6FC01228321E0FC0169
:103660002383FC01158214820E94852E8DB79EB79C
:1036700006960FB6F8949EBF0FBE8DBF8091D00600
:10368000882309F424C18091D00681508093D0060C
:103690001EC18091CF06882309F41BC13091CF064B
:1036A00020910F0700D000D08DB79EB70196FC0186
:1036B0003083FC01218324E1FC012283FC0113827D
:1036C0000E94852E0F900F900F900F908091D00642
:1036D0008F5F8093D006FDC08091CF06882309F4C8
:1036E000FAC03091CF0620910F0700D000D08DB7DF
:1036F0009EB70196FC013083FC01218326E1FC0189
:103700002283FC0113820E94852E0F900F900F9050
:103710000F908091D006882309F4DDC08091D006F7
:1037200081508093D006D7C08091CF06882309F4BA
:10373000D4C03091CF0620910F0700D000D08DB7B4
:103740009EB70196FC013083FC01218325E1FC0139
:103750002283FC0113820E94852E0F900F900F9000
:103760000F908091D0068F5F8093D006B6C0809175
:10377000CF06882309F4B3C03091CF0620910F07FC
:1037800000D000D08DB79EB70196FC013083FC01BC
:10379000218326E1FC012283FC0113820E94852EF5
:1037A0000F900F900F900F908091D006882309F40E
:1037B00096C08091D00681508093D00690C08091B1
:1037C000D006882309F08DC00E94B7128AC080916C
:1037D000CF06882309F487C08091CF06282F30E0D8
:1037E000C90182959295907F9827807F9827820FB4
:1037F000931F8C559B4FFC0180818823A9F5509124
:10380000CF0640910F078091CF06282F30E0C901E5
:1038100082959295907F9827807F9827820F931F9B
:103820008D559B4FFC018081282F30E000D000D0C7
:1038300000D08DB79EB70196FC015083FC014183F7
:103840004DE1FC01428341E0FC014383FC013583EF
:1038500024830E94852E8DB79EB706960FB6F894E6
:103860009EBF0FBE8DBF3FC03091CF0620910F0786
:1038700000D000D08DB79EB70196FC013083FC01CB
:1038800021832FE1FC012283FC0113820E94852EFB
:103890000F900F900F900F9026C0000025C00000E1
:1038A00023C0000021C000001FC000001DC0000098
:1038B0001BC0000019C0000017C0000015C00000A8
:1038C00013C0000011C000000FC000000DC00000B8
:1038D0000BC0000009C0000007C0000005C00000C8
:1038E00003C0000001C000000E946E08982F81E014
:1038F000913009F080E0882309F442C08091CF061E
:10390000282F30E0C90182959295907F9827807F7B
:103910009827820F931F88559B4FFC01808181302F
:1039200079F510923B0A10923C0A10923D0A81E30D
:1039300090E021E330E0F90120812360FC01208345
:1039400082E390E022E330E0F90120812C7FFC014A
:10395000208328E032E080E1B9010E94E10A8091F1
:10396000CF06282F30E0C90182959295907F982745
:10397000807F9827820F931F88559B4FFC011082F0
:10398000DF91CF910895CF93DF93CDB7DEB70E943B
:103990002C08882F90E0AA2797FDA095BA2F4BE01E
:1039A00050E025E930E0841B950B2817390708F40F
:1039B00064C284529F4FFC01EE0FFF1F0590F491EB
:1039C000E02D09947091CF0660910F078091CF068A
:1039D000282F30E0C90182959295907F9827807FAB
:1039E0009827820F931F83559B4FFC018081482F9E
:1039F00050E08091CF06282F30E0C9018295929542
:103A0000907F9827807F9827820F931F8D559B4F1B
:103A1000FC018081282F30E08DB79EB708970FB644
:103A2000F8949EBF0FBE8DBF8DB79EB70196FC0167
:103A30007083FC0161836CE1FC01628362E0FC0144
:103A40006383FC0155834483FC01378326830E94F2
:103A5000852E8DB79EB708960FB6F8949EBF0FBE01
:103A60008DBF80E00E94661608C28091CF06282F85
:103A700030E0C90182959295907F9827807F9827A2
:103A8000820F931F83559B4FFC0180818A3500F57F
:103A90008091CF06282F30E0C90182959295907FC2
:103AA0009827807F9827820F931F83559B4FFC0197
:103AB0008081482F4F5FC90182959295907F98270A
:103AC000807F9827820F931F83559B4FFC01408373
:103AD0000E946214D2C18091CF06282F30E0C90124
:103AE00082959295907F9827807F9827820F931FC9
:103AF00083559B4FFC018081882301F18091CF0683
:103B0000282F30E0C90182959295907F9827807F79
:103B10009827820F931F83559B4FFC018081482F6C
:103B20004150C90182959295907F9827807F982770
:103B3000820F931F83559B4FFC0140830E946214A8
:103B40009CC10E946E08982F81E0913009F080E0BE
:103B5000882309F077C10E946E0874C10E946E0824
:103B6000982F81E0913009F080E0882309F06CC142
:103B70000E946E0869C18091CF06882309F466C14E
:103B80003091CF0620910F0700D000D08DB79EB79F
:103B90000196FC013083FC01218328E1FC01228392
:103BA000FC0113820E94852E0F900F900F900F90B2
:103BB0004DC18091CF06882309F44AC13091CF06C8
:103BC00020910F0700D000D08DB79EB70196FC0161
:103BD0003083FC0121832AE1FC012283FC01138252
:103BE0000E94852E0F900F900F900F9031C1809101
:103BF000CF06882309F42EC13091CF0620910F07FC
:103C000000D000D08DB79EB70196FC013083FC0137
:103C1000218329E1FC012283FC0113820E94852E6D
:103C20000F900F900F900F9015C18091CF068823B1
:103C300009F412C13091CF0620910F0700D000D0B7
:103C40008DB79EB70196FC013083FC0121832AE1E8
:103C5000FC012283FC0113820E94852E0F900F909D
:103C60000F900F90F9C08091CF06882309F4F6C019
:103C70003091CF0620910F0700D000D08DB79EB7AE
:103C80000196FC013083FC01218321E1FC012283A8
:103C9000FC0113820E94852E0F900F900F900F90C1
:103CA000DDC08091CF06882309F4DAC03091CF06B9
:103CB00020910F0700D000D08DB79EB70196FC0170
:103CC0003083FC01218323E1FC012283FC01138268
:103CD0000E94852E0F900F900F900F90C1C0809181
:103CE000CF06882309F4BEC03091CF0620910F077C
:103CF00000D000D08DB79EB70196FC013083FC0147
:103D0000218322E1FC012283FC0113820E94852E83
:103D10000F900F900F900F90A5C08091CF06882331
:103D200009F4A2C03091CF0620910F0700D000D037
:103D30008DB79EB70196FC013083FC01218323E1FE
:103D4000FC012283FC0113820E94852E0F900F90AC
:103D50000F900F9089C08091CF06882309F486C008
:103D60003091CF0620910F0700D000D08DB79EB7BD
:103D70000196FC013083FC01218324E1FC012283B4
:103D8000FC0113820E94852E0F900F900F900F90D0
:103D90006DC08091CF06882309F46AC03091CF06A8
:103DA00020910F0700D000D08DB79EB70196FC017F
:103DB0003083FC01218326E1FC012283FC01138274
:103DC0000E94852E0F900F900F900F9051C0809100
:103DD000CF06882309F44EC03091CF0620910F07FB
:103DE00000D000D08DB79EB70196FC013083FC0156
:103DF000218325E1FC012283FC0113820E94852E90
:103E00000F900F900F900F9035C08091CF068823B0
:103E100099F13091CF0620910F0700D000D08DB7D7
:103E20009EB70196FC013083FC01218326E1FC0151
:103E30002283FC0113820E94852E0F900F900F9019
:103E40000F901AC0000019C0000017C0000015C074
:103E5000000013C0000011C000000FC000000DC022
:103E600000000BC0000009C0000007C0000005C032
:103E7000000003C0000001C000000E946E08982FDF
:103E800081E0913009F080E0882309F442C08091FC
:103E9000CF06282F30E0C90182959295907F982710
:103EA000807F9827820F931F88559B4FFC0180814C
:103EB000813079F510923B0A10923C0A10923D0A2B
:103EC00081E390E021E330E0F90120812360FC01EF
:103ED000208382E390E022E330E0F90120812C7F0F
:103EE000FC01208328E032E080E1B9010E94E10A70
:103EF0008091CF06282F30E0C90182959295907F5E
:103F00009827807F9827820F931F88559B4FFC012D
:103F10001082DF91CF910895CF93DF93CDB7DEB7B5
:103F20000E942C08882F90E0AA2797FDA095BA2F11
:103F30004BE050E025E930E0841B950B281739074A
:103F400008F441C58E589E4FFC01EE0FFF1F0590EF
:103F5000F491E02D09940E946E08982F81E0913031
:103F600009F080E0882321F13091CF0620910F07DE
:103F700000D000D000D08DB79EB70196FC013083F1
:103F8000FC01218321E2FC01228321E0FC01238347
:103F900020E130E0FC01358324830E94852E8DB71B
:103FA0009EB706960FB6F8949EBF0FBE8DBFE2C4B3
:103FB0000E948008982F81E0913009F080E08823EA
:103FC00009F4D8C43091CF0620910F0700D000D05B
:103FD00000D08DB79EB70196FC013083FC01218390
:103FE00021E2FC01228321E0FC0123832FE030E069
:103FF000FC01358324830E94852E8DB79EB70696DB
:104000000FB6F8949EBF0FBE8DBFB4C40E946E0859
:10401000982F81E0913009F080E0882309F4ACC446
:104020003091CF0620910F0700D000D000D08DB77F
:104030009EB70196FC013083FC01218321E2FC0143
:10404000228321E0FC0123832EE030E0FC01358354
:1040500024830E94852E8DB79EB706960FB6F894DE
:104060009EBF0FBE8DBF88C40E946E08982F81E04E
:10407000913009F080E0882321F13091CF06209122
:104080000F0700D000D000D08DB79EB70196FC017D
:104090003083FC01218326E6FC01228321E0FC0120
:1040A000238321E030E0FC01358324830E94852EA8
:1040B0008DB79EB706960FB6F8949EBF0FBE8DBF04
:1040C0005DC40E948008982F81E0913009F080E063
:1040D000882309F453C43091CF0620910F0700D0F4
:1040E00000D000D08DB79EB70196FC013083FC0153
:1040F000218326E6FC01228321E0FC01238322E0C8
:1041000030E0FC01358324830E94852E8DB79EB755
:1041100006960FB6F8949EBF0FBE8DBF2FC4309188
:10412000CF0620910F0700D000D000D08DB79EB7EA
:104130000196FC013083FC01218326E6FC012283E9
:1041400021E0FC012383FC01158214820E94852E4C
:104150008DB79EB706960FB6F8949EBF0FBE8DBF63
:1041600032C40E948008982F81E0913009F080E0ED
:10417000882309F405C43091CF0620910F0700D0A1
:1041800000D000D08DB79EB70196FC013083FC01B2
:10419000218321E2FC01228321E0FC01238325E02D
:1041A00030E0FC01358324830E94852E8DB79EB7B5
:1041B00006960FB6F8949EBF0FBE8DBFE1C30E9456
:1041C0008008982F81E0913009F080E0882319F071
:1041D0000E94B513D7C38091CF06282F30E0C901C4
:1041E00082959295907F9827807F9827820F931FC2
:1041F0008B559B4FFC018081873000F58091CF0665
:10420000282F30E0C90182959295907F9827807F72
:104210009827820F931F8B559B4FFC018081482F5D
:104220004F5FC90182959295907F9827807F98274C
:10423000820F931F8B559B4FFC0140838091CF06CB
:10424000882309F49FC35091CF0640910F078091B6
:10425000CF06282F30E0C90182959295907F98274C
:10426000807F9827820F931F8B559B4FFC01808185
:10427000282F30E000D000D000D08DB79EB7019637
:10428000FC015083FC0141834CE0FC01428341E08E
:10429000FC014383FC01358324830E94852E8DB766
:1042A0009EB706960FB6F8949EBF0FBE8DBF6AC329
:1042B0008091CF06282F30E0C90182959295907F9A
:1042C0009827807F9827820F931F8B559B4FFC0167
:1042D0008081882301F18091CF06282F30E0C90129
:1042E00082959295907F9827807F9827820F931FC1
:1042F0008B559B4FFC018081482F4150C90182950D
:104300009295907F9827807F9827820F931F8B55D7
:104310009B4FFC0140838091CF06882309F434C36E
:104320005091CF0640910F078091CF06282F30E0A3
:10433000C90182959295907F9827807F9827820F58
:10434000931F8B559B4FFC018081282F30E000D0BC
:1043500000D000D08DB79EB70196FC015083FC01C0
:1043600041834CE0FC01428341E0FC014383FC01BA
:10437000358324830E94852E8DB79EB706960FB68F
:10438000F8949EBF0FBE8DBFFFC20E948008982F79
:1043900081E0913009F080E0882309F4F7C2309180
:1043A000CF0620910F0700D000D000D08DB79EB768
:1043B0000196FC013083FC01218321E2FC01228370
:1043C00021E0FC01238329E030E0FC0135832483D4
:1043D0000E94852E8DB79EB706960FB6F8949EBFA5
:1043E0000FBE8DBFD3C20E948008982F81E091300C
:1043F00009F080E0882309F4CBC23091CF062091E8
:104400000F0700D000D000D08DB79EB70196FC01F9
:104410003083FC01218321E2FC01228321E0FC01A5
:1044200023832AE030E0FC01358324830E94852E1B
:104430008DB79EB706960FB6F8949EBF0FBE8DBF80
:10444000A7C20E948008982F81E0913009F080E097
:10445000882309F49FC23091CF0620910F0700D026
:1044600000D08DB79EB70196FC013083FC012183FB
:1044700029EDFC012283FC0113820E94852E0F90FE
:104480000F900F900F9086C20E948008982F81E0B5
:10449000913009F080E0882321F13091CF062091FE
:1044A0000F0700D000D000D08DB79EB70196FC0159
:1044B0003083FC01218321E2FC01228321E0FC0105
:1044C000238328E030E0FC01358324830E94852E7D
:1044D0008DB79EB706960FB6F8949EBF0FBE8DBFE0
:1044E0005BC28091CF06882309F456C23091CF0673
:1044F00020910F0700D000D08DB79EB70196FC0128
:104500003083FC01218328E1FC012283FC0113821A
:104510000E94852E0F900F900F900F903DC28091BA
:10452000CF06882309F43AC23091CF0620910F07B5
:1045300000D000D08DB79EB70196FC013083FC01FE
:1045400021832AE1FC012283FC0113820E94852E33
:104550000F900F900F900F9021C20E948008982F0B
:1045600081E0913009F080E0882321F13091CF067D
:1045700020910F0700D000D000D08DB79EB70196D4
:10458000FC013083FC01218321E2FC01228321E034
:10459000FC01238327E030E0FC01358324830E9463
:1045A000852E8DB79EB706960FB6F8949EBF0FBEA8
:1045B0008DBFF6C18091CF06882309F4F1C13091F7
:1045C000CF0620910F0700D000D08DB79EB701967F
:1045D000FC013083FC01218329E1FC012283FC01E1
:1045E00013820E94852E0F900F900F900F90D8C1CC
:1045F0008091CF06882309F4D5C13091CF06209150
:104600000F0700D000D08DB79EB70196FC01308314
:10461000FC0121832AE1FC012283FC0113820E9418
:10462000852E0F900F900F900F90BCC10E948008B4
:10463000982F81E0913009F080E0882321F13091BA
:10464000CF0620910F0700D000D000D08DB79EB7C5
:104650000196FC013083FC01218321E2FC012283CD
:1046600021E0FC01238324E030E0FC013583248336
:104670000E94852E8DB79EB706960FB6F8949EBF02
:104680000FBE8DBF91C18091CF06882309F48CC1E4
:104690003091CF0620910F0700D000D08DB79EB784
:1046A0000196FC013083FC01218321E1FC0122837E
:1046B000FC0113820E94852E0F900F900F900F9097
:1046C00073C18091CF06882309F470C13091CF0661
:1046D00020910F0700D000D08DB79EB70196FC0146
:1046E0003083FC01218323E1FC012283FC0113823E
:1046F0000E94852E0F900F900F900F9057C10E942F
:104700008008982F81E0913009F080E0882321F122
:104710003091CF0620910F0700D000D000D08DB788
:104720009EB70196FC013083FC01218321E2FC014C
:10473000228321E0FC01238323E030E0FC01358368
:1047400024830E94852E8DB79EB706960FB6F894E7
:104750009EBF0FBE8DBF2CC18091CF06882309F468
:1047600027C13091CF0620910F0700D000D08DB720
:104770009EB70196FC013083FC01218322E1FC01FC
:104780002283FC0113820E94852E0F900F900F90C0
:104790000F900EC18091CF06882309F40BC1309190
:1047A000CF0620910F0700D000D08DB79EB701969D
:1047B000FC013083FC01218323E1FC012283FC0105
:1047C00013820E94852E0F900F900F900F90F2C0D1
:1047D0000E948008982F81E0913009F080E08823C2
:1047E00021F13091CF0620910F0700D000D000D0EA
:1047F0008DB79EB70196FC013083FC01218321E235
:10480000FC01228321E0FC01238322E030E0FC0153
:10481000358324830E94852E8DB79EB706960FB6EA
:10482000F8949EBF0FBE8DBFC7C08091CF0688236E
:1048300009F4C2C03091CF0620910F0700D000D0FC
:104840008DB79EB70196FC013083FC01218324E1E2
:10485000FC012283FC0113820E94852E0F900F9091
:104860000F900F90A9C08091CF06882309F4A6C0AD
:104870003091CF0620910F0700D000D08DB79EB7A2
:104880000196FC013083FC01218326E1FC01228397
:10489000FC0113820E94852E0F900F900F900F90B5
:1048A0008DC00E948008982F81E0913009F080E04F
:1048B000882321F13091CF0620910F0700D000D03E
:1048C00000D08DB79EB70196FC013083FC01218397
:1048D00021E2FC01228321E0FC01238321E030E07E
:1048E000FC01358324830E94852E8DB79EB70696E2
:1048F0000FB6F8949EBF0FBE8DBF62C08091CF06E9
:10490000882309F45DC03091CF0620910F0700D0B5
:1049100000D08DB79EB70196FC013083FC01218346
:1049200025E1FC012283FC0113820E94852E0F9059
:104930000F900F900F9044C08091CF06882309F408
:1049400041C03091CF0620910F0700D000D08DB725
:104950009EB70196FC013083FC01218326E1FC0116
:104960002283FC0113820E94852E0F900F900F90DE
:104970000F9028C0000027C0000025C0000023C001
:10498000000021C000001FC000001DC000001BC0AF
:10499000000019C0000017C0000015C0000013C0BF
:1049A000000011C000000FC000000DC000000BC0CF
:1049B000000009C0000007C0000005C0000003C0DF
:1049C000000001C000000E946E08982F81E0913025
:1049D00009F080E0882309F442C08091CF06282F97
:1049E00030E0C90182959295907F9827807F982723
:1049F000820F931F88559B4FFC018081813079F590
:104A000010923B0A10923C0A10923D0A81E390E01A
:104A100021E330E0F90120812360FC01208382E35F
:104A200090E022E330E0F90120812C7FFC0120831B
:104A300028E032E080E1B9010E94E10A8091CF06CE
:104A4000282F30E0C90182959295907F9827807F2A
:104A50009827820F931F88559B4FFC011082DF918E
:104A6000CF910895CF93DF93CDB7DEB70E942C0886
:104A7000882F90E08831910521F08232910549F02C
:104A800031C01092D2061092D10680E00E946616C4
:104A900029C01092D2061092D1063091CF062091F3
:104AA0000F0700D000D000D08DB79EB70196FC0153
:104AB0003083FC01218329E0FC01228321E0FC01F9
:104AC0002383FC01158214820E94852E8DB79EB728
:104AD00006960FB6F8949EBF0FBE8DBF80E00E9471
:104AE00066160000DF91CF910895CF93DF93CDB785
:104AF000DEB70E942C08882F90E08831910521F0C4
:104B00008232910549F033C01092D4061092D30638
:104B100080E00E9466162BC01092D4061092D30635
:104B20003091CF0620910F0700D000D000D08DB774
:104B30009EB70196FC013083FC01218329E0FC0132
:104B4000228321E0FC01238321E030E0FC01358356
:104B500024830E94852E8DB79EB706960FB6F894D3
:104B60009EBF0FBE8DBF80E00E9466160000DF91E1
:104B7000CF910895CF93DF9300D000D00F92CDB79F
:104B8000DEB78D838091E806882F90E0382F2227AA
:104B90008091E906882F90E0820F931F9A83898382
:104BA0008091EC06882F90E0382F22278091ED0627
:104BB000882F90E0820F931F9C838B838D818823A5
:104BC00009F48CC18D81813208F088C18091E3069F
:104BD0008B3909F05EC08091E406882F90E08870E0
:104BE0009070009791F08D81282F30E0C901829557
:104BF0009295907F9827807F9827820F931F8C55DE
:104C00009B4F21E0FC01208310C08D81282F30E0D4
:104C1000C90182959295907F9827807F9827820F6F
:104C2000931F8C559B4FFC0110828D81282F30E003
:104C30008091E506482F50E0C90182959295907FBA
:104C40009827807F9827820F931F81569B4FFC01E6
:104C5000518340838D81282F30E08091EA06882F90
:104C600090E0582F44278091EB06882F90E0840F26
:104C7000951FAC01C90182959295907F9827807FFE
:104C80009827820F931F8F559B4FFC0151834083C0
:104C900023C18091E206833009F05EC08091E40672
:104CA000882F90E08C73907084309105F9F08530F6
:104CB00091051CF4009759F10FC18031910521F045
:104CC00084319105B9F108C18D81282F30E0C901E7
:104CD00082959295907F9827807F9827820F931FC7
:104CE00085559B4F21E0FC012083F6C08D81282F44
:104CF00030E0C90182959295907F9827807F982710
:104D0000820F931F85559B4FFC011082E5C08D815A
:104D1000282F30E0C90182959295907F9827807F57
:104D20009827820F931F85559B4F22E0FC0120831B
:104D30000000D2C08D81282F30E0C9018295929564
:104D4000907F9827807F9827820F931F85559B4FD0
:104D500023E0FC012083C0C08091E606882309F08F
:104D60005EC08091E406882F90E08C739070843050
:104D70009105F9F0853091051CF4009759F1ACC00C
:104D80008031910521F084319105B9F1A5C08D8163
:104D9000282F30E0C90182959295907F9827807FD7
:104DA0009827820F931F85559B4F21E0FC0120839C
:104DB00093C08D81282F30E0C90182959295907F14
:104DC0009827807F9827820F931F85559B4FFC0162
:104DD000108282C08D81282F30E0C9018295929582
:104DE000907F9827807F9827820F931F85559B4F30
:104DF00022E0FC01208300006FC08D81282F30E06D
:104E0000C90182959295907F9827807F9827820F7D
:104E1000931F85559B4F23E0FC0120835DC080914B
:104E2000E406882F90E08C73907084309105F9F03F
:104E3000853091051CF4009759F14EC080319105E1
:104E400021F084319105B1F147C08D81282F30E0E8
:104E5000C90182959295907F9827807F9827820F2D
:104E6000931F84559B4F21E0FC01208335C08D8129
:104E7000282F30E0C90182959295907F9827807FF6
:104E80009827820F931F84559B4FFC01108224C0EA
:104E90008D81282F30E0C90182959295907F9827C7
:104EA000807F9827820F931F84559B4F22E0FC013F
:104EB000208312C08D81282F30E0C9018295929500
:104EC000907F9827807F9827820F931F84559B4F50
:104ED00023E0FC01208300000E9462140F900F90D9
:104EE0000F900F900F90DF91CF910895CF93DF93A4
:104EF000CDB7DEB78091E406882F90E0873091052A
:104F000009F45BC088309105BCF48330910509F445
:104F10003EC0843091053CF48130910551F18230DE
:104F2000910571F18EC08530910509F43EC086303F
:104F300091050CF03EC032C08B30910509F459C088
:104F40008C3091054CF48930910509F444C08A30C5
:104F500091050CF047C038C08F30910509F463C04B
:104F60008031910509F466C08E30910509F454C072
:104F700068C020E333E080E1B9010E94E10A61C02A
:104F800021E433E080E1B9010E94E10A5AC022E540
:104F900033E080E1B9010E94E10A53C023E633E027
:104FA00080E1B9010E94E10A4CC080E00E946616CF
:104FB00048C082E00E94661644C024E733E080E1E6
:104FC000B9010E94E10A3DC025E833E080E1B90162
:104FD0000E94E10A36C026E933E080E1B9010E946F
:104FE000E10A2FC027EA33E080E1B9010E94E10A1B
:104FF00028C028E032E080E1B9010E94E10A9091E6
:10500000E50682E1692F0E94190B9091E60687E17F
:10501000692F0E94190B15C028EB33E080E1B9011C
:105020000E94E10A0EC029EC33E080E1B9010E9440
:10503000E10A07C02AED33E080E1B9010E94E10AEC
:105040000000DF91CF910895CF93DF93CDB7DEB706
:1050500080919A0490919B04009701F180919A04A9
:1050600090919B0427E0803D920750F480919A0430
:1050700090919B04019690939B0480939A040EC098
:1050800080919A0490919B0427E0803D920731F42F
:1050900088EB9BE090939B0480939A048091D106C7
:1050A0009091D2068230910554F08091D106909172
:1050B000D20601979093D2068093D1060EC08091BC
:1050C000D1069091D2068130910539F41092D20622
:1050D0001092D10680E00E9466168091D3069091CE
:1050E000D4068230910554F08091D3069091D40675
:1050F00001979093D4068093D3060EC08091D30677
:105100009091D4068130910539F41092D406109212
:10511000D30680E00E946616DF91CF910895CF9369
:10512000DF930F92CDB7DEB789838981882309F495
:105130008CC08981813208F088C08091E306882F75
:1051400090E08F709070009731F428E032E080E2B8
:10515000B9010E94E10A8091E306882F90E08170F6
:105160009070882331F02BEE33E080E2B9010E9489
:10517000E10A8091E306882F90E08270907000979A
:1051800031F02CEF33E080E2B9010E94E10A809116
:10519000E306882F90E080719070009731F02DE049
:1051A00034E080E3B9010E94E10A8091E306882F90
:1051B00090E080729070009731F02EE134E080E34F
:1051C000B9010E94E10A8091E306882F90E0807F78
:1051D0009070009731F428E032E080E3B9010E943A
:1051E000E10A8091E306882F90E084709070009728
:1051F00031F02FE234E080E2B9010E94E10A8091AF
:10520000E306882F90E088709070009731F020E4DA
:1052100034E080E2B9010E94E10A8091E306882F20
:1052200090E080749070009731F021E534E080E3E5
:10523000B9010E94E10A8091E306882334F422E652
:1052400034E080E3B9010E94E10A0F90DF91CF9131
:105250000895CF92DF92EF92FF920F931F93CF9317
:10526000DF93CDB7DEB72B970FB6F894DEBF0FBE36
:10527000CDBF89836A834B833D832C831F830E8339
:10528000F986E886DB86CA8610920E078BE290E0EC
:10529000FC0110828AE290E020EDFC01208385E988
:1052A00090E026E8FC01208380E990E02A81FC015F
:1052B000208389E290E02B81FC0120838981809307
:1052C000D6068C819D819093D8068093D7068E81D7
:1052D0009F819093DA068093D9068885998590936B
:1052E000DC068093DB068A859B859093DE0680939F
:1052F000DD068091D9069091DA06FC01099580912E
:10530000DD069091DE06FC0109958AE290E02AE232
:1053100030E0F90120812061FC0120838AE290E0E5
:105320002AE230E0F90120812E7FFC0120838DE10B
:105330009CE20E940F312B960FB6F894DEBF0FBE91
:10534000CDBFDF91CF911F910F91FF90EF90DF9034
:10535000CF900895CF93DF9300D000D00F92CDB7B8
:10536000DEB79E01225F3F4FCE010496FC013183E0
:1053700020838A858093F7068B858093F8068C8539
:105380008093F9068D858093FA0684E0898384E012
:10539000898317C08C819D819C012E5F3F4F3D8387
:1053A0002C83FC01808191819B838A838981882F52
:1053B00090E02A818950994FFC01208389818F5F79
:1053C00089838981282F30E08D85882F90E004968D
:1053D00041E0281739070CF040E04423D9F681E07A
:1053E00080930B070E94812A0F900F900F900F90CF
:1053F0000F90DF91CF910895CF93DF9300D000D02D
:105400000F92CDB7DEB780910B07882309F041C01A
:105410009E01225F3F4FCE010496FC013183208321
:105420008A858093F7068B858093F8068C85809318
:10543000F9068D858093FA0684E0898384E0898368
:1054400017C08C819D819C012E5F3F4F3D832C8333
:10545000FC01808191819B838A838981882F90E0E0
:105460002A818950994FFC01208389818F5F89832C
:105470008981282F30E08D85882F90E0049641E0C7
:10548000281739070CF040E04423D9F681E08093D7
:105490000B070F900F900F900F900F90DF91CF910F
:1054A0000895CF93DF9300D00F92CDB7DEB78091F0
:1054B000FA068C5F8B831A8219820DC08981882F2E
:1054C00090E08950994FFC0180819A81890F8A83ED
:1054D00089818F5F898381E029819B81291708F069
:1054E00080E0882359F78B81882F90E08950994F6D
:1054F0002A81FC0120830F900F900F90DF91CF91B4
:105500000895CF93DF93CDB7DEB780910D07882341
:1055100069F480910B07882349F081E080930D079F
:105520000E94512A10920C070E94992ADF91CF9174
:105530000895CF93DF93CDB7DEB780910D0781300B
:1055400009F05AC080910C07282F30E08091FA06AC
:10555000882F90E005962817390791F180910C0764
:10556000843170F58091DB069091DC06FC01099591
:105570008AE290E02AE230E0F90120812860FC0113
:1055800020838AE290E02AE230E0F90120812F7E38
:10559000FC0120838AE090E00E948D038CE290E081
:1055A00020910C07222F30E02950394FF90120813A
:1055B000FC01208380910C078F5F80930C071CC037
:1055C0008091DD069091DE06FC0109958AE290E06B
:1055D0002AE230E0F90120812061FC0120838AE287
:1055E00090E02AE230E0F90120812E7FFC01208347
:1055F00010920B0710920D07DF91CF9108951F9223
:105600000F920FB60F9200905B000F9211242F9310
:105610003F934F935F936F937F938F939F93AF933A
:10562000BF93EF93FF93CF93DF93CDB7DEB70E9485
:10563000992ADF91CF91FF91EF91BF91AF919F9107
:105640008F917F916F915F914F913F912F910F902B
:1056500000925B000F900FBE0F901F901895CF9394
:10566000DF9300D00F92CDB7DEB78091E2068C5F5A
:105670008B838B81843110F080E025C01A821982DF
:105680000DC08981882F90E08152994FFC01808163
:105690009A81890F8A8389818F5F898381E029813B
:1056A0009B81291708F080E0882359F78B81882F88
:1056B00090E08152994FFC0190818A81981711F4F2
:1056C00081E001C080E00F900F900F90DF91CF91AB
:1056D00008951F920F920FB60F9200905B000F92E9
:1056E00011242F933F934F935F936F937F938F93E7
:1056F0009F93AF93BF93EF93FF93CF93DF930F925B
:10570000CDB7DEB78BE290E0FC01808189831092F7
:10571000F5068981882F90E088719070009709F0D4
:1057200056C08CE290E0FC01808189838091F40670
:10573000882399F48091D6069981981709F04CC076
:105740008091F406882F90E08152994F2981FC01C5
:10575000208381E08093F4063FC08091F406882F77
:1057600090E08152994F2981FC0120838091F406B9
:105770008F5F8093F4068091F406853068F1809104
:10578000F406282F30E08091E206882F90E00596FD
:105790002817390721F08091F4068531E9F4109239
:1057A000F4060E942F2B982F81E0913009F080E0C1
:1057B000882391F08091D7069091D806009761F0E8
:1057C0008091D7069091D806FC01099505C08CE21E
:1057D00090E0FC01808189830F90DF91CF91FF9150
:1057E000EF91BF91AF919F918F917F916F915F9159
:1057F0004F913F912F910F9000925B000F900FBE41
:105800000F901F901895CF93DF93CDB7DEB780919F
:10581000F506893031F48AE08093F5061092F4069B
:1058200009C08091F5068A3029F08091F5068F5FD6
:105830008093F506DF91CF910895CF93DF93CDB795
:10584000DEB70E94032CDF91CF910895CF92DF92B3
:10585000EF92FF920F931F93CF93DF9300D0CDB7BA
:10586000DEB71092320A81E690E0FC01108282E6F7
:1058700090E02FEFFC0120831A8219820BC082E690
:1058800090E02FEFFC012083A89589819A810196F1
:105890009A83898321E089819A81843691050CF06D
:1058A00020E0222361F700001092310A1092300AA2
:1058B00080E290E0FC018081809583708F5D809311
:1058C0000F0780910F072CE73CE206E91FE2AFEAE1
:1058D000BFE2EFEBFFE260E040E17D016F010E947B
:1058E00029290F900F90DF91CF911F910F91FF9079
:1058F000EF90DF90CF9008952F923F924F925F925A
:105900006F927F928F929F92AF92BF92CF92DF92CF
:10591000EF92FF920F931F93CF93DF93CDB7DEB734
:1059200060970FB6F894DEBF0FBECDBF8091E10641
:10593000882F90E088379105A1F18937910524F4EB
:105940008530910549F0C8C18A39910509F443C0F1
:10595000813A9105D9F1C0C13091E00620910F073D
:1059600000D000D000D08DB79EB70196FC013083E7
:10597000FC01218328E7FC01228321E0FC01238331
:1059800025E030E0FC01358324830E94AA292DB74D
:105990003EB72A5F3F4F0FB6F8943EBF0FBE2DBFF4
:1059A0009BC18091E306813219F40E94762791C150
:1059B0008091E3068B3929F08091E3068E3909F056
:1059C00088C18091E0060E94BA2583C183EE96E0EB
:1059D0000E944A0E81C180910D07882309F07BC186
:1059E000F8948091300A9091310A009709F4EAC046
:1059F000309110073B83809111078C83909112079F
:105A00009D83E0911307EE8380911407282F30E0E7
:105A10003E872D8780911507A82FB0E0809116074B
:105A2000E82FF0E0F887EF8380911707282F30E008
:105A30003A87298780911807E82FF0E0FC87EB87E9
:105A400080911907282E332480911A07482E552457
:105A500080911B07682E772480911C07882E99243B
:105A600080911D07A82EBB2480911E07C82EDD241F
:105A700080911F07E82EFF2480912007082F10E057
:105A800080912107682F70E080912207482F50E015
:105A900080912307282F30E0388B2F878DB79EB752
:105AA00084970FB6F8949EBF0FBE8DBF8DB79EB77B
:105AB00001962B81FC0120832C81FC0121832D8107
:105AC000FC0122832E81FC0123832D853E85FC0170
:105AD00035832483FC01B783A6832F813885FC019D
